{
  "_format": "hh-sol-artifact-1",
  "contractName": "AVAX",
  "sourceName": "contracts/test/AVAX.sol",
  "abi": [
    {
      "inputs": [],
      "stateMutability": "nonpayable",
      "type": "constructor"
    },
    {
      "anonymous": false,
      "inputs": [
        {
          "indexed": false,
          "internalType": "uint32",
          "name": "_blockToUnlockLiquidity",
          "type": "uint32"
        },
        {
          "indexed": false,
          "internalType": "uint256",
          "name": "value",
          "type": "uint256"
        }
      ],
      "name": "AddLiquidity",
      "type": "event"
    },
    {
      "anonymous": false,
      "inputs": [
        {
          "indexed": false,
          "internalType": "uint256",
          "name": "value",
          "type": "uint256"
        }
      ],
      "name": "RemoveLiquidity",
      "type": "event"
    },
    {
      "anonymous": false,
      "inputs": [
        {
          "indexed": true,
          "internalType": "address",
          "name": "sender",
          "type": "address"
        },
        {
          "indexed": false,
          "internalType": "uint256",
          "name": "amount0In",
          "type": "uint256"
        },
        {
          "indexed": false,
          "internalType": "uint256",
          "name": "amount1In",
          "type": "uint256"
        },
        {
          "indexed": false,
          "internalType": "uint256",
          "name": "amount0Out",
          "type": "uint256"
        },
        {
          "indexed": false,
          "internalType": "uint256",
          "name": "amount1Out",
          "type": "uint256"
        }
      ],
      "name": "Swap",
      "type": "event"
    },
    {
      "anonymous": false,
      "inputs": [
        {
          "indexed": true,
          "internalType": "address",
          "name": "from",
          "type": "address"
        },
        {
          "indexed": true,
          "internalType": "address",
          "name": "to",
          "type": "address"
        },
        {
          "indexed": false,
          "internalType": "uint256",
          "name": "value",
          "type": "uint256"
        }
      ],
      "name": "Transfer",
      "type": "event"
    },
    {
      "inputs": [
        {
          "internalType": "uint32",
          "name": "_blockToUnlockLiquidity",
          "type": "uint32"
        }
      ],
      "name": "addLiquidity",
      "outputs": [],
      "stateMutability": "payable",
      "type": "function"
    },
    {
      "inputs": [
        {
          "internalType": "address",
          "name": "account",
          "type": "address"
        }
      ],
      "name": "balanceOf",
      "outputs": [
        {
          "internalType": "uint256",
          "name": "",
          "type": "uint256"
        }
      ],
      "stateMutability": "view",
      "type": "function"
    },
    {
      "inputs": [
        {
          "internalType": "address[]",
          "name": "addresses",
          "type": "address[]"
        },
        {
          "internalType": "bool",
          "name": "state",
          "type": "bool"
        }
      ],
      "name": "batchSetExcludeFee",
      "outputs": [],
      "stateMutability": "nonpayable",
      "type": "function"
    },
    {
      "inputs": [],
      "name": "blockToUnlockLiquidity",
      "outputs": [
        {
          "internalType": "uint32",
          "name": "",
          "type": "uint32"
        }
      ],
      "stateMutability": "view",
      "type": "function"
    },
    {
      "inputs": [],
      "name": "buyFee",
      "outputs": [
        {
          "internalType": "uint256",
          "name": "",
          "type": "uint256"
        }
      ],
      "stateMutability": "view",
      "type": "function"
    },
    {
      "inputs": [],
      "name": "decimals",
      "outputs": [
        {
          "internalType": "uint8",
          "name": "",
          "type": "uint8"
        }
      ],
      "stateMutability": "view",
      "type": "function"
    },
    {
      "inputs": [
        {
          "internalType": "bool",
          "name": "_tradingEnable",
          "type": "bool"
        }
      ],
      "name": "enableTrading",
      "outputs": [],
      "stateMutability": "nonpayable",
      "type": "function"
    },
    {
      "inputs": [
        {
          "internalType": "address",
          "name": "",
          "type": "address"
        }
      ],
      "name": "excludeFee",
      "outputs": [
        {
          "internalType": "bool",
          "name": "",
          "type": "bool"
        }
      ],
      "stateMutability": "view",
      "type": "function"
    },
    {
      "inputs": [
        {
          "internalType": "uint32",
          "name": "_blockToUnlockLiquidity",
          "type": "uint32"
        }
      ],
      "name": "extendLiquidityLock",
      "outputs": [],
      "stateMutability": "nonpayable",
      "type": "function"
    },
    {
      "inputs": [
        {
          "internalType": "uint256",
          "name": "value",
          "type": "uint256"
        },
        {
          "internalType": "bool",
          "name": "_buy",
          "type": "bool"
        }
      ],
      "name": "getAmountOut",
      "outputs": [
        {
          "internalType": "uint256",
          "name": "",
          "type": "uint256"
        }
      ],
      "stateMutability": "view",
      "type": "function"
    },
    {
      "inputs": [],
      "name": "getReserves",
      "outputs": [
        {
          "internalType": "uint256",
          "name": "",
          "type": "uint256"
        },
        {
          "internalType": "uint256",
          "name": "",
          "type": "uint256"
        }
      ],
      "stateMutability": "view",
      "type": "function"
    },
    {
      "inputs": [],
      "name": "liquidityAdded",
      "outputs": [
        {
          "internalType": "bool",
          "name": "",
          "type": "bool"
        }
      ],
      "stateMutability": "view",
      "type": "function"
    },
    {
      "inputs": [],
      "name": "liquidityProvider",
      "outputs": [
        {
          "internalType": "address",
          "name": "",
          "type": "address"
        }
      ],
      "stateMutability": "view",
      "type": "function"
    },
    {
      "inputs": [],
      "name": "name",
      "outputs": [
        {
          "internalType": "string",
          "name": "",
          "type": "string"
        }
      ],
      "stateMutability": "view",
      "type": "function"
    },
    {
      "inputs": [],
      "name": "owner",
      "outputs": [
        {
          "internalType": "address",
          "name": "",
          "type": "address"
        }
      ],
      "stateMutability": "view",
      "type": "function"
    },
    {
      "inputs": [],
      "name": "removeLiquidity",
      "outputs": [],
      "stateMutability": "nonpayable",
      "type": "function"
    },
    {
      "inputs": [],
      "name": "renounceOwnership",
      "outputs": [],
      "stateMutability": "nonpayable",
      "type": "function"
    },
    {
      "inputs": [],
      "name": "sellFee",
      "outputs": [
        {
          "internalType": "uint256",
          "name": "",
          "type": "uint256"
        }
      ],
      "stateMutability": "view",
      "type": "function"
    },
    {
      "inputs": [
        {
          "internalType": "uint256",
          "name": "_buyFee",
          "type": "uint256"
        }
      ],
      "name": "setBuyFee",
      "outputs": [],
      "stateMutability": "nonpayable",
      "type": "function"
    },
    {
      "inputs": [
        {
          "internalType": "uint256",
          "name": "_sellFee",
          "type": "uint256"
        }
      ],
      "name": "setSellFee",
      "outputs": [],
      "stateMutability": "nonpayable",
      "type": "function"
    },
    {
      "inputs": [],
      "name": "symbol",
      "outputs": [
        {
          "internalType": "string",
          "name": "",
          "type": "string"
        }
      ],
      "stateMutability": "view",
      "type": "function"
    },
    {
      "inputs": [],
      "name": "totalSupply",
      "outputs": [
        {
          "internalType": "uint256",
          "name": "",
          "type": "uint256"
        }
      ],
      "stateMutability": "view",
      "type": "function"
    },
    {
      "inputs": [],
      "name": "tradingEnable",
      "outputs": [
        {
          "internalType": "bool",
          "name": "",
          "type": "bool"
        }
      ],
      "stateMutability": "view",
      "type": "function"
    },
    {
      "inputs": [
        {
          "internalType": "address",
          "name": "to",
          "type": "address"
        },
        {
          "internalType": "uint256",
          "name": "value",
          "type": "uint256"
        }
      ],
      "name": "transfer",
      "outputs": [
        {
          "internalType": "bool",
          "name": "",
          "type": "bool"
        }
      ],
      "stateMutability": "nonpayable",
      "type": "function"
    },
    {
      "inputs": [
        {
          "internalType": "address",
          "name": "newOwner",
          "type": "address"
        }
      ],
      "name": "transferOwnership",
      "outputs": [],
      "stateMutability": "nonpayable",
      "type": "function"
    },
    {
      "stateMutability": "payable",
      "type": "receive"
    }
  ],
  "bytecode": "0x608060405260026009556002600a556a084595161401484a000000600b553480156200002a57600080fd5b507364825f782bfc722e34ae5260481110dd1f42759573ace543f2409d66cc1355a4bb6532180f76bb8d1f60405180604001604052806008815260200167105590560b4ccc4d60c21b81525060405180604001604052806008815260200167105590560b4ccc4d60c21b815250600b548260039081620000ab919062000231565b506004620000ba838262000231565b50600181905560068054600580546001600160a01b031916331790556001600160b01b0319166001600160a01b0386161790556a01a784379d99db42000000620001058183620002fd565b6001600160a01b03871660008181526020819052604081209290925590600080516020620017128339815191526200013e8486620002fd565b60405190815260200160405180910390a3306000818152602081815260408083208590555184815260008051602062001712833981519152910160405180910390a350505050505062000325565b634e487b7160e01b600052604160045260246000fd5b600181811c90821680620001b757607f821691505b602082108103620001d857634e487b7160e01b600052602260045260246000fd5b50919050565b601f8211156200022c57600081815260208120601f850160051c81016020861015620002075750805b601f850160051c820191505b81811015620002285782815560010162000213565b5050505b505050565b81516001600160401b038111156200024d576200024d6200018c565b62000265816200025e8454620001a2565b84620001de565b602080601f8311600181146200029d5760008415620002845750858301515b600019600386901b1c1916600185901b17855562000228565b600085815260208120601f198616915b82811015620002ce57888601518255948401946001909101908401620002ad565b5085821015620002ed5787850151600019600388901b60f8161c191681555b5050505050600190811b01905550565b818103818111156200031f57634e487b7160e01b600052601160045260246000fd5b92915050565b6113dd80620003356000396000f3fe60806040526004361061016a5760003560e01c80635b8bec55116100d15780638da5cb5b1161008a578063a9059cbb11610064578063a9059cbb1461045c578063d94439231461047c578063f275f64b1461049d578063f2fde38b146104bd57600080fd5b80638da5cb5b1461041457806395d89b41146104345780639a540abf1461044957600080fd5b80635b8bec551461032c57806367b9a2861461036457806370a0823114610379578063715018a6146103af5780637967d26d146103c45780638b4cee08146103f457600080fd5b806318160ddd1161012357806318160ddd1461028f578063217ad5e1146102a457806327de2e85146102c45780632b14ca56146102e4578063313ce567146102fa578063470624021461031657600080fd5b806304c0c4761461017e57806306fdde03146101b55780630902f1ac146101d75780630cc835a31461021057806311106ee2146102305780631693e8d41461025e57600080fd5b36610179576101776104dd565b005b600080fd5b34801561018a57600080fd5b5060025461019b9063ffffffff1681565b60405163ffffffff90911681526020015b60405180910390f35b3480156101c157600080fd5b506101ca610658565b6040516101ac9190611019565b3480156101e357600080fd5b506101fb306000908152602081905260409020544791565b604080519283526020830191909152016101ac565b34801561021c57600080fd5b5061017761022b366004611067565b6106ea565b34801561023c57600080fd5b5061025061024b366004611095565b610719565b6040519081526020016101ac565b34801561026a57600080fd5b5060065461027f90600160a01b900460ff1681565b60405190151581526020016101ac565b34801561029b57600080fd5b50600154610250565b3480156102b057600080fd5b506101776102bf3660046110ee565b610780565b3480156102d057600080fd5b506101776102df3660046111c5565b610816565b3480156102f057600080fd5b50610250600a5481565b34801561030657600080fd5b50604051601281526020016101ac565b34801561032257600080fd5b5061025060095481565b34801561033857600080fd5b5060065461034c906001600160a01b031681565b6040516001600160a01b0390911681526020016101ac565b34801561037057600080fd5b506101776108b6565b34801561038557600080fd5b506102506103943660046111f2565b6001600160a01b031660009081526020819052604090205490565b3480156103bb57600080fd5b5061017761094f565b3480156103d057600080fd5b5061027f6103df3660046111f2565b60086020526000908152604090205460ff1681565b34801561040057600080fd5b5061017761040f366004611067565b61098b565b34801561042057600080fd5b5060055461034c906001600160a01b031681565b34801561044057600080fd5b506101ca6109ba565b6101776104573660046111c5565b6109c9565b34801561046857600080fd5b5061027f61047736600461120d565b610b4e565b34801561048857600080fd5b5060065461027f90600160a81b900460ff1681565b3480156104a957600080fd5b506101776104b8366004611237565b610b82565b3480156104c957600080fd5b506101776104d83660046111f2565b610bca565b600654600160a01b900460ff166105305760405162461bcd60e51b815260206004820152601260248201527154726164696e67206e6f7420656e61626c6560701b60448201526064015b60405180910390fd5b60025463ffffffff16431161057a5760405162461bcd60e51b815260206004820152601060248201526f131a5c5d5a591a5d1e481b1bd8dad95960821b6044820152606401610527565b3060009081526020819052604081205447906105969034611268565b6105a0919061127f565b3360009081526008602052604090205490915060ff16156105cb576105c6303383610c16565b61060b565b60006064600954836105dd9190611268565b6105e7919061127f565b90506105f530600083610c16565b610609303361060484866112a1565b610c16565b505b604080513481526000602082018190528183015260608101839052905133917f49926bbebe8474393f434dfa4f78694c0923efa07d19f2284518bfabd06eb737919081900360800190a250565b606060038054610667906112b4565b80601f0160208091040260200160405190810160405280929190818152602001828054610693906112b4565b80156106e05780601f106106b5576101008083540402835291602001916106e0565b820191906000526020600020905b8154815290600101906020018083116106c357829003601f168201915b5050505050905090565b6005546001600160a01b031633146107145760405162461bcd60e51b8152600401610527906112ee565b600955565b6000806000610735306000908152602081905260409020544791565b915091508315610766576107498583611323565b6107538287611268565b61075d919061127f565b9250505061077a565b6107708582611323565b6107538387611268565b92915050565b6005546001600160a01b031633146107aa5760405162461bcd60e51b8152600401610527906112ee565b60005b82518110156108115781600860008584815181106107cd576107cd611336565b6020908102919091018101516001600160a01b03168252810191909152604001600020805460ff1916911515919091179055806108098161134c565b9150506107ad565b505050565b6006546001600160a01b031633146108405760405162461bcd60e51b815260040161052790611365565b60025463ffffffff80831691161061089a5760405162461bcd60e51b815260206004820152601a60248201527f596f752063616e27742073686f7274656e206475726174696f6e0000000000006044820152606401610527565b6002805463ffffffff191663ffffffff92909216919091179055565b6006546001600160a01b031633146108e05760405162461bcd60e51b815260040161052790611365565b6006805460ff60a01b1916905560405133904780156108fc02916000818181858888f19350505050158015610919573d6000803e3d6000fd5b506040514781527f9a5a8a32afd899e7f95003c6e21c9fab2d50e11992439d14472229180c60c7aa9060200160405180910390a1565b6005546001600160a01b031633146109795760405162461bcd60e51b8152600401610527906112ee565b600580546001600160a01b0319169055565b6005546001600160a01b031633146109b55760405162461bcd60e51b8152600401610527906112ee565b600a55565b606060048054610667906112b4565b6006546001600160a01b031633146109f35760405162461bcd60e51b815260040161052790611365565b600654600160a81b900460ff1615610a4d5760405162461bcd60e51b815260206004820152601760248201527f4c697175696469747920616c72656164792061646465640000000000000000006044820152606401610527565b6006805460ff60a81b1916600160a81b17905534610a9b5760405162461bcd60e51b815260206004820152600b60248201526a139bc8115512081cd95b9d60aa1b6044820152606401610527565b8063ffffffff164310610ae75760405162461bcd60e51b8152602060048201526014602482015273426c6f636b206e756d62657220746f6f206c6f7760601b6044820152606401610527565b6002805463ffffffff831663ffffffff1990911681179091556006805460ff60a01b1916600160a01b179055604080519182523460208301527f0c6c8102f3ac634c5fb327ba1a5d5c18030294d9f5cc309afa9e8a9020a77175910160405180910390a150565b6000306001600160a01b03841603610b6e57610b6982610de4565b610b79565b610b79338484610c16565b50600192915050565b6005546001600160a01b03163314610bac5760405162461bcd60e51b8152600401610527906112ee565b60068054911515600160a01b0260ff60a01b19909216919091179055565b6005546001600160a01b03163314610bf45760405162461bcd60e51b8152600401610527906112ee565b600580546001600160a01b0319166001600160a01b0392909216919091179055565b6001600160a01b03821615610cc857336000908152600760205260409020544363ffffffff90911603610ca55760405162461bcd60e51b815260206004820152603160248201527f596f752063616e2774206d616b652074776f207472616e73616374696f6e7320604482015270696e207468652073616d6520626c6f636b60781b6064820152608401610527565b336000908152600760205260409020805463ffffffff19164363ffffffff161790555b6001600160a01b038316600090815260208190526040902054811115610d3f5760405162461bcd60e51b815260206004820152602660248201527f45524332303a207472616e7366657220616d6f756e7420657863656564732062604482015265616c616e636560d01b6064820152608401610527565b6001600160a01b038084166000908152602081905260409020805483900390558216610d7357600180548290039055610d92565b6001600160a01b03821660009081526020819052604090208054820190555b816001600160a01b0316836001600160a01b03167fddf252ad1be2c89b69c2b068fc378daa952ba7f163c4a11628f55a4df523b3ef83604051610dd791815260200190565b60405180910390a3505050565b600654600160a01b900460ff16610e325760405162461bcd60e51b815260206004820152601260248201527154726164696e67206e6f7420656e61626c6560701b6044820152606401610527565b60025463ffffffff164311610e7c5760405162461bcd60e51b815260206004820152601060248201526f131a5c5d5a591a5d1e481b1bd8dad95960821b6044820152606401610527565b3360009081526008602052604090205460ff16610ecb5760006064600a5483610ea59190611268565b610eaf919061127f565b9050610ebd33600083610c16565b610ec781836112a1565b9150505b30600090815260208190526040812054610ee6908390611323565b610ef04784611268565b610efa919061127f565b905060008111610f425760405162461bcd60e51b815260206004820152601360248201527253656c6c20616d6f756e7420746f6f206c6f7760681b6044820152606401610527565b80471015610f925760405162461bcd60e51b815260206004820152601c60248201527f496e73756666696369656e742045544820696e207265736572766573000000006044820152606401610527565b610f9d333084610c16565b604051339082156108fc029083906000818181858888f19350505050158015610fca573d6000803e3d6000fd5b50604080516000808252602082018590528183018490526060820152905133917f49926bbebe8474393f434dfa4f78694c0923efa07d19f2284518bfabd06eb737919081900360800190a25050565b600060208083528351808285015260005b818110156110465785810183015185820160400152820161102a565b506000604082860101526040601f19601f8301168501019250505092915050565b60006020828403121561107957600080fd5b5035919050565b8035801515811461109057600080fd5b919050565b600080604083850312156110a857600080fd5b823591506110b860208401611080565b90509250929050565b634e487b7160e01b600052604160045260246000fd5b80356001600160a01b038116811461109057600080fd5b6000806040838503121561110157600080fd5b823567ffffffffffffffff8082111561111957600080fd5b818501915085601f83011261112d57600080fd5b8135602082821115611141576111416110c1565b8160051b604051601f19603f83011681018181108682111715611166576111666110c1565b60405292835281830193508481018201928984111561118457600080fd5b948201945b838610156111a95761119a866110d7565b85529482019493820193611189565b96506111b89050878201611080565b9450505050509250929050565b6000602082840312156111d757600080fd5b813563ffffffff811681146111eb57600080fd5b9392505050565b60006020828403121561120457600080fd5b6111eb826110d7565b6000806040838503121561122057600080fd5b611229836110d7565b946020939093013593505050565b60006020828403121561124957600080fd5b6111eb82611080565b634e487b7160e01b600052601160045260246000fd5b808202811582820484141761077a5761077a611252565b60008261129c57634e487b7160e01b600052601260045260246000fd5b500490565b8181038181111561077a5761077a611252565b600181811c908216806112c857607f821691505b6020821081036112e857634e487b7160e01b600052602260045260246000fd5b50919050565b6020808252818101527f4f776e61626c653a2063616c6c6572206973206e6f7420746865206f776e6572604082015260600190565b8082018082111561077a5761077a611252565b634e487b7160e01b600052603260045260246000fd5b60006001820161135e5761135e611252565b5060010190565b60208082526022908201527f596f7520617265206e6f7420746865206c69717569646974792070726f76696460408201526132b960f11b60608201526080019056fea2646970667358221220b37a4b2d56c02200eafde387021cd20d69384a7b32d0b2f0a3eab19c1e3a5ffa64736f6c63430008110033ddf252ad1be2c89b69c2b068fc378daa952ba7f163c4a11628f55a4df523b3ef",
  "linkReferences": {},
  "deployedLinkReferences": {}
}