{
  "_format": "hh-sol-artifact-1",
  "contractName": "InsMarket",
  "sourceName": "contracts/InsMarket.sol",
  "abi": [
    {
      "inputs": [],
      "stateMutability": "nonpayable",
      "type": "constructor"
    },
    {
      "anonymous": false,
      "inputs": [
        {
          "indexed": false,
          "internalType": "address",
          "name": "previousAdmin",
          "type": "address"
        },
        {
          "indexed": false,
          "internalType": "address",
          "name": "newAdmin",
          "type": "address"
        }
      ],
      "name": "AdminChanged",
      "type": "event"
    },
    {
      "anonymous": false,
      "inputs": [
        {
          "indexed": true,
          "internalType": "address",
          "name": "beacon",
          "type": "address"
        }
      ],
      "name": "BeaconUpgraded",
      "type": "event"
    },
    {
      "anonymous": false,
      "inputs": [
        {
          "indexed": false,
          "internalType": "address",
          "name": "buyer",
          "type": "address"
        },
        {
          "indexed": false,
          "internalType": "address",
          "name": "seller",
          "type": "address"
        },
        {
          "indexed": false,
          "internalType": "uint256",
          "name": "price",
          "type": "uint256"
        },
        {
          "indexed": false,
          "internalType": "uint256",
          "name": "order",
          "type": "uint256"
        }
      ],
      "name": "Buy",
      "type": "event"
    },
    {
      "anonymous": false,
      "inputs": [
        {
          "indexed": false,
          "internalType": "uint8",
          "name": "version",
          "type": "uint8"
        }
      ],
      "name": "Initialized",
      "type": "event"
    },
    {
      "anonymous": false,
      "inputs": [
        {
          "indexed": true,
          "internalType": "bytes32",
          "name": "role",
          "type": "bytes32"
        },
        {
          "indexed": true,
          "internalType": "bytes32",
          "name": "previousAdminRole",
          "type": "bytes32"
        },
        {
          "indexed": true,
          "internalType": "bytes32",
          "name": "newAdminRole",
          "type": "bytes32"
        }
      ],
      "name": "RoleAdminChanged",
      "type": "event"
    },
    {
      "anonymous": false,
      "inputs": [
        {
          "indexed": true,
          "internalType": "bytes32",
          "name": "role",
          "type": "bytes32"
        },
        {
          "indexed": true,
          "internalType": "address",
          "name": "account",
          "type": "address"
        },
        {
          "indexed": true,
          "internalType": "address",
          "name": "sender",
          "type": "address"
        }
      ],
      "name": "RoleGranted",
      "type": "event"
    },
    {
      "anonymous": false,
      "inputs": [
        {
          "indexed": true,
          "internalType": "bytes32",
          "name": "role",
          "type": "bytes32"
        },
        {
          "indexed": true,
          "internalType": "address",
          "name": "account",
          "type": "address"
        },
        {
          "indexed": true,
          "internalType": "address",
          "name": "sender",
          "type": "address"
        }
      ],
      "name": "RoleRevoked",
      "type": "event"
    },
    {
      "anonymous": false,
      "inputs": [
        {
          "indexed": true,
          "internalType": "address",
          "name": "implementation",
          "type": "address"
        }
      ],
      "name": "Upgraded",
      "type": "event"
    },
    {
      "inputs": [],
      "name": "DEFAULT_ADMIN_ROLE",
      "outputs": [
        {
          "internalType": "bytes32",
          "name": "",
          "type": "bytes32"
        }
      ],
      "stateMutability": "view",
      "type": "function"
    },
    {
      "inputs": [],
      "name": "DOMAIN_SEPARATOR",
      "outputs": [
        {
          "internalType": "bytes32",
          "name": "",
          "type": "bytes32"
        }
      ],
      "stateMutability": "view",
      "type": "function"
    },
    {
      "inputs": [],
      "name": "MANAGE_ROLE",
      "outputs": [
        {
          "internalType": "bytes32",
          "name": "",
          "type": "bytes32"
        }
      ],
      "stateMutability": "view",
      "type": "function"
    },
    {
      "inputs": [
        {
          "internalType": "address",
          "name": "token",
          "type": "address"
        }
      ],
      "name": "balance",
      "outputs": [
        {
          "internalType": "uint256",
          "name": "",
          "type": "uint256"
        }
      ],
      "stateMutability": "view",
      "type": "function"
    },
    {
      "inputs": [
        {
          "internalType": "bytes32",
          "name": "role",
          "type": "bytes32"
        },
        {
          "internalType": "address[]",
          "name": "accounts",
          "type": "address[]"
        }
      ],
      "name": "batchGrantRole",
      "outputs": [],
      "stateMutability": "nonpayable",
      "type": "function"
    },
    {
      "inputs": [
        {
          "internalType": "bytes32",
          "name": "role",
          "type": "bytes32"
        },
        {
          "internalType": "address[]",
          "name": "accounts",
          "type": "address[]"
        }
      ],
      "name": "batchRevokeRole",
      "outputs": [],
      "stateMutability": "nonpayable",
      "type": "function"
    },
    {
      "inputs": [
        {
          "internalType": "bytes",
          "name": "data",
          "type": "bytes"
        }
      ],
      "name": "buy",
      "outputs": [],
      "stateMutability": "payable",
      "type": "function"
    },
    {
      "inputs": [
        {
          "internalType": "bytes32",
          "name": "role",
          "type": "bytes32"
        }
      ],
      "name": "getRoleAdmin",
      "outputs": [
        {
          "internalType": "bytes32",
          "name": "",
          "type": "bytes32"
        }
      ],
      "stateMutability": "view",
      "type": "function"
    },
    {
      "inputs": [
        {
          "internalType": "bytes32",
          "name": "role",
          "type": "bytes32"
        },
        {
          "internalType": "uint256",
          "name": "index",
          "type": "uint256"
        }
      ],
      "name": "getRoleMember",
      "outputs": [
        {
          "internalType": "address",
          "name": "",
          "type": "address"
        }
      ],
      "stateMutability": "view",
      "type": "function"
    },
    {
      "inputs": [
        {
          "internalType": "bytes32",
          "name": "role",
          "type": "bytes32"
        }
      ],
      "name": "getRoleMemberCount",
      "outputs": [
        {
          "internalType": "uint256",
          "name": "",
          "type": "uint256"
        }
      ],
      "stateMutability": "view",
      "type": "function"
    },
    {
      "inputs": [
        {
          "internalType": "bytes32",
          "name": "role",
          "type": "bytes32"
        },
        {
          "internalType": "address",
          "name": "account",
          "type": "address"
        }
      ],
      "name": "grantRole",
      "outputs": [],
      "stateMutability": "nonpayable",
      "type": "function"
    },
    {
      "inputs": [
        {
          "internalType": "bytes32",
          "name": "role",
          "type": "bytes32"
        },
        {
          "internalType": "address",
          "name": "account",
          "type": "address"
        }
      ],
      "name": "hasRole",
      "outputs": [
        {
          "internalType": "bool",
          "name": "",
          "type": "bool"
        }
      ],
      "stateMutability": "view",
      "type": "function"
    },
    {
      "inputs": [
        {
          "internalType": "address",
          "name": "_signer",
          "type": "address"
        }
      ],
      "name": "initialize",
      "outputs": [],
      "stateMutability": "nonpayable",
      "type": "function"
    },
    {
      "inputs": [
        {
          "internalType": "address",
          "name": "",
          "type": "address"
        }
      ],
      "name": "nonces",
      "outputs": [
        {
          "internalType": "uint256",
          "name": "",
          "type": "uint256"
        }
      ],
      "stateMutability": "view",
      "type": "function"
    },
    {
      "inputs": [],
      "name": "proxiableUUID",
      "outputs": [
        {
          "internalType": "bytes32",
          "name": "",
          "type": "bytes32"
        }
      ],
      "stateMutability": "view",
      "type": "function"
    },
    {
      "inputs": [
        {
          "internalType": "bytes32",
          "name": "role",
          "type": "bytes32"
        }
      ],
      "name": "queryRoles",
      "outputs": [
        {
          "internalType": "address[]",
          "name": "",
          "type": "address[]"
        }
      ],
      "stateMutability": "view",
      "type": "function"
    },
    {
      "inputs": [
        {
          "internalType": "bytes32",
          "name": "role",
          "type": "bytes32"
        },
        {
          "internalType": "address",
          "name": "account",
          "type": "address"
        }
      ],
      "name": "renounceRole",
      "outputs": [],
      "stateMutability": "nonpayable",
      "type": "function"
    },
    {
      "inputs": [
        {
          "internalType": "bytes32",
          "name": "role",
          "type": "bytes32"
        },
        {
          "internalType": "address",
          "name": "account",
          "type": "address"
        }
      ],
      "name": "revokeRole",
      "outputs": [],
      "stateMutability": "nonpayable",
      "type": "function"
    },
    {
      "inputs": [],
      "name": "signer",
      "outputs": [
        {
          "internalType": "address",
          "name": "",
          "type": "address"
        }
      ],
      "stateMutability": "view",
      "type": "function"
    },
    {
      "inputs": [
        {
          "internalType": "bytes4",
          "name": "interfaceId",
          "type": "bytes4"
        }
      ],
      "name": "supportsInterface",
      "outputs": [
        {
          "internalType": "bool",
          "name": "",
          "type": "bool"
        }
      ],
      "stateMutability": "view",
      "type": "function"
    },
    {
      "inputs": [
        {
          "internalType": "address",
          "name": "newImplementation",
          "type": "address"
        }
      ],
      "name": "upgradeTo",
      "outputs": [],
      "stateMutability": "nonpayable",
      "type": "function"
    },
    {
      "inputs": [
        {
          "internalType": "address",
          "name": "newImplementation",
          "type": "address"
        },
        {
          "internalType": "bytes",
          "name": "data",
          "type": "bytes"
        }
      ],
      "name": "upgradeToAndCall",
      "outputs": [],
      "stateMutability": "payable",
      "type": "function"
    },
    {
      "inputs": [
        {
          "internalType": "address",
          "name": "to",
          "type": "address"
        },
        {
          "internalType": "uint256",
          "name": "amount",
          "type": "uint256"
        }
      ],
      "name": "withdrawBNB",
      "outputs": [],
      "stateMutability": "nonpayable",
      "type": "function"
    },
    {
      "inputs": [
        {
          "internalType": "address",
          "name": "token",
          "type": "address"
        },
        {
          "internalType": "address",
          "name": "to",
          "type": "address"
        },
        {
          "internalType": "uint256",
          "name": "amount",
          "type": "uint256"
        }
      ],
      "name": "withdrawErc20",
      "outputs": [],
      "stateMutability": "nonpayable",
      "type": "function"
    },
    {
      "stateMutability": "payable",
      "type": "receive"
    }
  ],
  "bytecode": "0x60a0604052306080523480156200001557600080fd5b506200002062000026565b620000e7565b600054610100900460ff1615620000935760405162461bcd60e51b815260206004820152602760248201527f496e697469616c697a61626c653a20636f6e747261637420697320696e697469604482015266616c697a696e6760c81b606482015260840160405180910390fd5b60005460ff90811614620000e5576000805460ff191660ff9081179091556040519081527f7f26b83ff96e1f2b6a682f133852f6798a09c465da95921460cefb38474024989060200160405180910390a15b565b60805161254f6200011f600039600081816106540152818161069401528181610bbf01528181610bff0152610c8e015261254f6000f3fe60806040526004361061014f5760003560e01c806360a4b76a116100b6578063a217fddf1161006f578063a217fddf146103d8578063a97af1f2146103ed578063c4d66de81461040d578063ca15c8731461042d578063d547741f1461044d578063e3d670d71461046d57600080fd5b806360a4b76a146102fb578063620bb3ca1461031d5780636f39feec1461034a5780637ecebe001461036a5780639010d07c1461039857806391d14854146103b857600080fd5b806336568abe1161010857806336568abe146102605780633659cfe6146102805780634559b892146102a057806346b5cb59146102b35780634f1ef286146102d357806352d1902d146102e657600080fd5b806301ffc9a71461015b5780631593dee114610190578063238ac933146101b2578063248a9ca3146101eb5780632f2ff15d146102295780633644e5151461024957600080fd5b3661015657005b600080fd5b34801561016757600080fd5b5061017b610176366004611e0f565b61048d565b60405190151581526020015b60405180910390f35b34801561019c57600080fd5b506101b06101ab366004611e4e565b6104b8565b005b3480156101be57600080fd5b50610160546101d3906001600160a01b031681565b6040516001600160a01b039091168152602001610187565b3480156101f757600080fd5b5061021b610206366004611e8f565b60009081526065602052604090206001015490565b604051908152602001610187565b34801561023557600080fd5b506101b0610244366004611ea8565b6105a2565b34801561025557600080fd5b5061021b61015f5481565b34801561026c57600080fd5b506101b061027b366004611ea8565b6105cc565b34801561028c57600080fd5b506101b061029b366004611ed8565b61064a565b6101b06102ae366004611ef5565b610729565b3480156102bf57600080fd5b506101b06102ce366004611f67565b610b4d565b6101b06102e1366004612089565b610bb5565b3480156102f257600080fd5b5061021b610c81565b34801561030757600080fd5b5061021b6000805160206124fa83398151915281565b34801561032957600080fd5b5061033d610338366004611e8f565b610d34565b60405161018791906120d9565b34801561035657600080fd5b506101b0610365366004611f67565b610de3565b34801561037657600080fd5b5061021b610385366004611ed8565b6101616020526000908152604090205481565b3480156103a457600080fd5b506101d36103b3366004612126565b610e4b565b3480156103c457600080fd5b5061017b6103d3366004611ea8565b610e6a565b3480156103e457600080fd5b5061021b600081565b3480156103f957600080fd5b506101b0610408366004612148565b610e95565b34801561041957600080fd5b506101b0610428366004611ed8565b610f2a565b34801561043957600080fd5b5061021b610448366004611e8f565b61115b565b34801561045957600080fd5b506101b0610468366004611ea8565b611172565b34801561047957600080fd5b5061021b610488366004611ed8565b611197565b60006001600160e01b03198216635a05180f60e01b14806104b257506104b282611216565b92915050565b6000805160206124fa8339815191526104d08161124b565b6040516370a0823160e01b81523060048201526000906001600160a01b038616906370a0823190602401602060405180830381865afa158015610517573d6000803e3d6000fd5b505050506040513d601f19601f8201168201806040525081019061053b9190612174565b9050828110156105875760405162461bcd60e51b815260206004820152601260248201527111549493d48e925394d551919250d251539560721b60448201526064015b60405180910390fd5b61059b6001600160a01b0386168585611255565b5050505050565b6000828152606560205260409020600101546105bd8161124b565b6105c783836112a7565b505050565b6001600160a01b038116331461063c5760405162461bcd60e51b815260206004820152602f60248201527f416363657373436f6e74726f6c3a2063616e206f6e6c792072656e6f756e636560448201526e103937b632b9903337b91039b2b63360891b606482015260840161057e565b61064682826112c9565b5050565b6001600160a01b037f00000000000000000000000000000000000000000000000000000000000000001630036106925760405162461bcd60e51b815260040161057e9061218d565b7f00000000000000000000000000000000000000000000000000000000000000006001600160a01b03166106db6000805160206124b3833981519152546001600160a01b031690565b6001600160a01b0316146107015760405162461bcd60e51b815260040161057e906121d9565b61070a816112eb565b6040805160008082526020820190925261072691839190611303565b50565b600080808080808061073d888a018a612225565b9650965096509650965096509650336001600160a01b0316876001600160a01b0316146107ac5760405162461bcd60e51b815260206004820152601760248201527f496e734d61726b65743a20696e76616c69642075736572000000000000000000604482015260640161057e565b3360009081526101616020526040902054831461080b5760405162461bcd60e51b815260206004820152601860248201527f496e734d61726b65743a20696e76616c6964206e6f6e63650000000000000000604482015260640161057e565b814211156108515760405162461bcd60e51b8152602060048201526013602482015272125b9cd3585c9ad95d0e881d1a5b59481bdd5d606a1b604482015260640161057e565b600080600061085f8461146e565b925092509250600061015f546040516020016108ea907f5065726d6974286164647265737320757365722c75696e74323536207072696381527f652c616464726573732072656365697665722c75696e74323536206f7264657260208201527f2c75696e74323536206e6f6e63652c75696e7432353620646561646c696e6529604082015260600190565b60408051808303601f190181528282528051602091820120818401526001600160a01b038f811684840152606084018f90528d16608084015260a083018c905260c083018b905260e08084018b9052825180850390910181526101008401909252815191012061190160f01b6101208301526101228201929092526101428101919091526101620160408051601f1981840301815282825280516020918201206000845290830180835281905260ff8716918301919091526060820185905260808201849052915060019060a0016020604051602081039080840390855afa1580156109da573d6000803e3d6000fd5b5050604051601f190151610160546001600160a01b039081169116149050610a445760405162461bcd60e51b815260206004820152601a60248201527f496e734d61726b65743a20494e56414c49445f52455155455354000000000000604482015260640161057e565b33600090815261016160205260408120805491610a60836122c4565b919050555089341015610ab55760405162461bcd60e51b815260206004820152601760248201527f496e734d61726b65743a20696e73756666696369656e74000000000000000000604482015260640161057e565b6040516001600160a01b038a16908b156108fc02908c906000818181858888f19350505050158015610aeb573d6000803e3d6000fd5b50604080516001600160a01b03808e1682528b1660208201529081018b9052606081018990527f89f5adc174562e07c9c9b1cae7109bbecb21cf9d1b2847e550042b8653c54a0e9060800160405180910390a150505050505050505050505050565b600083815260656020526040902060010154610b688161124b565b60005b8281101561059b57610ba385858584818110610b8957610b896122dd565b9050602002016020810190610b9e9190611ed8565b6112a7565b80610bad816122c4565b915050610b6b565b6001600160a01b037f0000000000000000000000000000000000000000000000000000000000000000163003610bfd5760405162461bcd60e51b815260040161057e9061218d565b7f00000000000000000000000000000000000000000000000000000000000000006001600160a01b0316610c466000805160206124b3833981519152546001600160a01b031690565b6001600160a01b031614610c6c5760405162461bcd60e51b815260040161057e906121d9565b610c75826112eb565b61064682826001611303565b6000306001600160a01b037f00000000000000000000000000000000000000000000000000000000000000001614610d215760405162461bcd60e51b815260206004820152603860248201527f555550535570677261646561626c653a206d757374206e6f742062652063616c60448201527f6c6564207468726f7567682064656c656761746563616c6c0000000000000000606482015260840161057e565b506000805160206124b383398151915290565b60606000610d418361115b565b905060008167ffffffffffffffff811115610d5e57610d5e611fe6565b604051908082528060200260200182016040528015610d87578160200160208202803683370190505b50905060005b82811015610ddb57610d9f8582610e4b565b828281518110610db157610db16122dd565b6001600160a01b039092166020928302919091019091015280610dd3816122c4565b915050610d8d565b509392505050565b600083815260656020526040902060010154610dfe8161124b565b60005b8281101561059b57610e3985858584818110610e1f57610e1f6122dd565b9050602002016020810190610e349190611ed8565b6112c9565b80610e43816122c4565b915050610e01565b6000828152609760205260408120610e6390836114e0565b9392505050565b60009182526065602090815260408084206001600160a01b0393909316845291905290205460ff1690565b6000805160206124fa833981519152610ead8161124b565b303182811015610ef45760405162461bcd60e51b815260206004820152601260248201527111549493d48e925394d551919250d251539560721b604482015260640161057e565b6040516001600160a01b0385169084156108fc029085906000818181858888f1935050505015801561059b573d6000803e3d6000fd5b600054610100900460ff1615808015610f4a5750600054600160ff909116105b80610f645750303b158015610f64575060005460ff166001145b610fc75760405162461bcd60e51b815260206004820152602e60248201527f496e697469616c697a61626c653a20636f6e747261637420697320616c72656160448201526d191e481a5b9a5d1a585b1a5e995960921b606482015260840161057e565b6000805460ff191660011790558015610fea576000805461ff0019166101001790555b610ff26114ec565b610ffa611515565b6110026114ec565b61100d6000336112a7565b6110256000805160206124fa833981519152336112a7565b61016080546001600160a01b0319166001600160a01b0384161790556040805180820182526009815268125b9cd3585c9ad95d60ba1b6020918201528151808301835260018152603160f81b9082015281517f8b73c3c69bb8fe3d512ecc4cf759cc79239f7b179b0ffacaa9a75d522b39400f818301527f43a367168fcb3b0f9dcc015f829686ede8d9411df5ca87e886ff03938a823168818401527fc89efdaa54c0f20c7adf612882df0950f5a951637e0307cdcb4c672f298b8bc660608201524660808201523060a0808301919091528351808303909101815260c0909101909252815191012061015f558015610646576000805461ff0019169055604051600181527f7f26b83ff96e1f2b6a682f133852f6798a09c465da95921460cefb38474024989060200160405180910390a15050565b60008181526097602052604081206104b290611544565b60008281526065602052604090206001015461118d8161124b565b6105c783836112c9565b60006001600160a01b0382166111ae575047919050565b6040516370a0823160e01b81523060048201526001600160a01b038316906370a0823190602401602060405180830381865afa1580156111f2573d6000803e3d6000fd5b505050506040513d601f19601f820116820180604052508101906104b29190612174565b60006001600160e01b03198216637965db0b60e01b14806104b257506301ffc9a760e01b6001600160e01b03198316146104b2565b610726813361154e565b604080516001600160a01b038416602482015260448082018490528251808303909101815260649091019091526020810180516001600160e01b031663a9059cbb60e01b1790526105c79084906115a7565b6112b1828261167c565b60008281526097602052604090206105c79082611702565b6112d38282611717565b60008281526097602052604090206105c7908261177e565b6000805160206124fa8339815191526106468161124b565b7f4910fdfa16fed3260ed0e7147f7cc6da11a60208b5b9406d12a635614ffd91435460ff1615611336576105c783611793565b826001600160a01b03166352d1902d6040518163ffffffff1660e01b8152600401602060405180830381865afa925050508015611390575060408051601f3d908101601f1916820190925261138d91810190612174565b60015b6113f35760405162461bcd60e51b815260206004820152602e60248201527f45524331393637557067726164653a206e657720696d706c656d656e7461746960448201526d6f6e206973206e6f74205555505360901b606482015260840161057e565b6000805160206124b383398151915281146114625760405162461bcd60e51b815260206004820152602960248201527f45524331393637557067726164653a20756e737570706f727465642070726f786044820152681a58589b195555525160ba1b606482015260840161057e565b506105c783838361182f565b600080600083516041146114c45760405162461bcd60e51b815260206004820152601a60248201527f4e6f7420496e76616c6964205369676e61747572652044617461000000000000604482015260640161057e565b5050506020810151604082015160609092015160001a92909190565b6000610e63838361185a565b600054610100900460ff166115135760405162461bcd60e51b815260040161057e906122f3565b565b600054610100900460ff1661153c5760405162461bcd60e51b815260040161057e906122f3565b611513611884565b60006104b2825490565b6115588282610e6a565b61064657611565816118b2565b6115708360206118c4565b604051602001611581929190612362565b60408051601f198184030181529082905262461bcd60e51b825261057e916004016123d7565b60006115fc826040518060400160405280602081526020017f5361666545524332303a206c6f772d6c6576656c2063616c6c206661696c6564815250856001600160a01b0316611a609092919063ffffffff16565b905080516000148061161d57508080602001905181019061161d919061240a565b6105c75760405162461bcd60e51b815260206004820152602a60248201527f5361666545524332303a204552433230206f7065726174696f6e20646964206e6044820152691bdd081cdd58d8d9595960b21b606482015260840161057e565b6116868282610e6a565b6106465760008281526065602090815260408083206001600160a01b03851684529091529020805460ff191660011790556116be3390565b6001600160a01b0316816001600160a01b0316837f2f8788117e7eff1d82e926ec794901d17c78024a50270940304540a733656f0d60405160405180910390a45050565b6000610e63836001600160a01b038416611a77565b6117218282610e6a565b156106465760008281526065602090815260408083206001600160a01b0385168085529252808320805460ff1916905551339285917ff6391f5c32d9c69d2a47ea670b442974b53935d1edc7fd64eb21e047a839171b9190a45050565b6000610e63836001600160a01b038416611ac6565b6001600160a01b0381163b6118005760405162461bcd60e51b815260206004820152602d60248201527f455243313936373a206e657720696d706c656d656e746174696f6e206973206e60448201526c1bdd08184818dbdb9d1c9858dd609a1b606482015260840161057e565b6000805160206124b383398151915280546001600160a01b0319166001600160a01b0392909216919091179055565b61183883611bb9565b6000825111806118455750805b156105c7576118548383611bf9565b50505050565b6000826000018281548110611871576118716122dd565b9060005260206000200154905092915050565b600054610100900460ff166118ab5760405162461bcd60e51b815260040161057e906122f3565b600160c955565b60606104b26001600160a01b03831660145b606060006118d383600261242c565b6118de906002612443565b67ffffffffffffffff8111156118f6576118f6611fe6565b6040519080825280601f01601f191660200182016040528015611920576020820181803683370190505b509050600360fc1b8160008151811061193b5761193b6122dd565b60200101906001600160f81b031916908160001a905350600f60fb1b8160018151811061196a5761196a6122dd565b60200101906001600160f81b031916908160001a905350600061198e84600261242c565b611999906001612443565b90505b6001811115611a11576f181899199a1a9b1b9c1cb0b131b232b360811b85600f16601081106119cd576119cd6122dd565b1a60f81b8282815181106119e3576119e36122dd565b60200101906001600160f81b031916908160001a90535060049490941c93611a0a81612456565b905061199c565b508315610e635760405162461bcd60e51b815260206004820181905260248201527f537472696e67733a20686578206c656e67746820696e73756666696369656e74604482015260640161057e565b6060611a6f8484600085611c1e565b949350505050565b6000818152600183016020526040812054611abe575081546001818101845560008481526020808220909301849055845484825282860190935260409020919091556104b2565b5060006104b2565b60008181526001830160205260408120548015611baf576000611aea60018361246d565b8554909150600090611afe9060019061246d565b9050818114611b63576000866000018281548110611b1e57611b1e6122dd565b9060005260206000200154905080876000018481548110611b4157611b416122dd565b6000918252602080832090910192909255918252600188019052604090208390555b8554869080611b7457611b74612480565b6001900381819060005260206000200160009055905585600101600086815260200190815260200160002060009055600193505050506104b2565b60009150506104b2565b611bc281611793565b6040516001600160a01b038216907fbc7cd75a20ee27fd9adebab32041f755214dbc6bffa90cc0225b39da2e5c2d3b90600090a250565b6060610e6383836040518060600160405280602781526020016124d360279139611cf9565b606082471015611c7f5760405162461bcd60e51b815260206004820152602660248201527f416464726573733a20696e73756666696369656e742062616c616e636520666f6044820152651c8818d85b1b60d21b606482015260840161057e565b600080866001600160a01b03168587604051611c9b9190612496565b60006040518083038185875af1925050503d8060008114611cd8576040519150601f19603f3d011682016040523d82523d6000602084013e611cdd565b606091505b5091509150611cee87838387611d71565b979650505050505050565b6060600080856001600160a01b031685604051611d169190612496565b600060405180830381855af49150503d8060008114611d51576040519150601f19603f3d011682016040523d82523d6000602084013e611d56565b606091505b5091509150611d6786838387611d71565b9695505050505050565b60608315611de0578251600003611dd9576001600160a01b0385163b611dd95760405162461bcd60e51b815260206004820152601d60248201527f416464726573733a2063616c6c20746f206e6f6e2d636f6e7472616374000000604482015260640161057e565b5081611a6f565b611a6f8383815115611df55781518083602001fd5b8060405162461bcd60e51b815260040161057e91906123d7565b600060208284031215611e2157600080fd5b81356001600160e01b031981168114610e6357600080fd5b6001600160a01b038116811461072657600080fd5b600080600060608486031215611e6357600080fd5b8335611e6e81611e39565b92506020840135611e7e81611e39565b929592945050506040919091013590565b600060208284031215611ea157600080fd5b5035919050565b60008060408385031215611ebb57600080fd5b823591506020830135611ecd81611e39565b809150509250929050565b600060208284031215611eea57600080fd5b8135610e6381611e39565b60008060208385031215611f0857600080fd5b823567ffffffffffffffff80821115611f2057600080fd5b818501915085601f830112611f3457600080fd5b813581811115611f4357600080fd5b866020828501011115611f5557600080fd5b60209290920196919550909350505050565b600080600060408486031215611f7c57600080fd5b83359250602084013567ffffffffffffffff80821115611f9b57600080fd5b818601915086601f830112611faf57600080fd5b813581811115611fbe57600080fd5b8760208260051b8501011115611fd357600080fd5b6020830194508093505050509250925092565b634e487b7160e01b600052604160045260246000fd5b600082601f83011261200d57600080fd5b813567ffffffffffffffff8082111561202857612028611fe6565b604051601f8301601f19908116603f0116810190828211818310171561205057612050611fe6565b8160405283815286602085880101111561206957600080fd5b836020870160208301376000602085830101528094505050505092915050565b6000806040838503121561209c57600080fd5b82356120a781611e39565b9150602083013567ffffffffffffffff8111156120c357600080fd5b6120cf85828601611ffc565b9150509250929050565b6020808252825182820181905260009190848201906040850190845b8181101561211a5783516001600160a01b0316835292840192918401916001016120f5565b50909695505050505050565b6000806040838503121561213957600080fd5b50508035926020909101359150565b6000806040838503121561215b57600080fd5b823561216681611e39565b946020939093013593505050565b60006020828403121561218657600080fd5b5051919050565b6020808252602c908201527f46756e6374696f6e206d7573742062652063616c6c6564207468726f7567682060408201526b19195b1959d85d1958d85b1b60a21b606082015260800190565b6020808252602c908201527f46756e6374696f6e206d7573742062652063616c6c6564207468726f7567682060408201526b6163746976652070726f787960a01b606082015260800190565b600080600080600080600060e0888a03121561224057600080fd5b873561224b81611e39565b965060208801359550604088013561226281611e39565b9450606088013593506080880135925060a0880135915060c088013567ffffffffffffffff81111561229357600080fd5b61229f8a828b01611ffc565b91505092959891949750929550565b634e487b7160e01b600052601160045260246000fd5b6000600182016122d6576122d66122ae565b5060010190565b634e487b7160e01b600052603260045260246000fd5b6020808252602b908201527f496e697469616c697a61626c653a20636f6e7472616374206973206e6f74206960408201526a6e697469616c697a696e6760a81b606082015260800190565b60005b83811015612359578181015183820152602001612341565b50506000910152565b7f416363657373436f6e74726f6c3a206163636f756e742000000000000000000081526000835161239a81601785016020880161233e565b7001034b99036b4b9b9b4b733903937b6329607d1b60179184019182015283516123cb81602884016020880161233e565b01602801949350505050565b60208152600082518060208401526123f681604085016020870161233e565b601f01601f19169190910160400192915050565b60006020828403121561241c57600080fd5b81518015158114610e6357600080fd5b80820281158282048414176104b2576104b26122ae565b808201808211156104b2576104b26122ae565b600081612465576124656122ae565b506000190190565b818103818111156104b2576104b26122ae565b634e487b7160e01b600052603160045260246000fd5b600082516124a881846020870161233e565b919091019291505056fe360894a13ba1a3210667c828492db98dca3e2076cc3735a920a3ca505d382bbc416464726573733a206c6f772d6c6576656c2064656c65676174652063616c6c206661696c6564a076a07f65bcd51bcb15a0f01a65bc18f2d922acb81bcfd8af4caf5adb557091a2646970667358221220340bd721456a516d6806c091099bcf9edfe46ef3e0259b1234c43af9790e35e364736f6c63430008110033",
  "linkReferences": {},
  "deployedLinkReferences": {}
}