{
  "_format": "hh-sol-artifact-1",
  "contractName": "WhiteList",
  "sourceName": "contracts/WhiteList.sol",
  "abi": [
    {
      "inputs": [],
      "stateMutability": "nonpayable",
      "type": "constructor"
    },
    {
      "anonymous": false,
      "inputs": [
        {
          "indexed": false,
          "internalType": "address",
          "name": "previousAdmin",
          "type": "address"
        },
        {
          "indexed": false,
          "internalType": "address",
          "name": "newAdmin",
          "type": "address"
        }
      ],
      "name": "AdminChanged",
      "type": "event"
    },
    {
      "anonymous": false,
      "inputs": [
        {
          "indexed": true,
          "internalType": "address",
          "name": "beacon",
          "type": "address"
        }
      ],
      "name": "BeaconUpgraded",
      "type": "event"
    },
    {
      "anonymous": false,
      "inputs": [
        {
          "indexed": false,
          "internalType": "address",
          "name": "caller",
          "type": "address"
        },
        {
          "indexed": false,
          "internalType": "uint256",
          "name": "num",
          "type": "uint256"
        },
        {
          "indexed": false,
          "internalType": "uint256",
          "name": "usdtAmount",
          "type": "uint256"
        }
      ],
      "name": "BuyWhiteList",
      "type": "event"
    },
    {
      "anonymous": false,
      "inputs": [
        {
          "indexed": false,
          "internalType": "uint8",
          "name": "version",
          "type": "uint8"
        }
      ],
      "name": "Initialized",
      "type": "event"
    },
    {
      "anonymous": false,
      "inputs": [
        {
          "indexed": true,
          "internalType": "bytes32",
          "name": "role",
          "type": "bytes32"
        },
        {
          "indexed": true,
          "internalType": "bytes32",
          "name": "previousAdminRole",
          "type": "bytes32"
        },
        {
          "indexed": true,
          "internalType": "bytes32",
          "name": "newAdminRole",
          "type": "bytes32"
        }
      ],
      "name": "RoleAdminChanged",
      "type": "event"
    },
    {
      "anonymous": false,
      "inputs": [
        {
          "indexed": true,
          "internalType": "bytes32",
          "name": "role",
          "type": "bytes32"
        },
        {
          "indexed": true,
          "internalType": "address",
          "name": "account",
          "type": "address"
        },
        {
          "indexed": true,
          "internalType": "address",
          "name": "sender",
          "type": "address"
        }
      ],
      "name": "RoleGranted",
      "type": "event"
    },
    {
      "anonymous": false,
      "inputs": [
        {
          "indexed": true,
          "internalType": "bytes32",
          "name": "role",
          "type": "bytes32"
        },
        {
          "indexed": true,
          "internalType": "address",
          "name": "account",
          "type": "address"
        },
        {
          "indexed": true,
          "internalType": "address",
          "name": "sender",
          "type": "address"
        }
      ],
      "name": "RoleRevoked",
      "type": "event"
    },
    {
      "anonymous": false,
      "inputs": [
        {
          "indexed": true,
          "internalType": "address",
          "name": "implementation",
          "type": "address"
        }
      ],
      "name": "Upgraded",
      "type": "event"
    },
    {
      "inputs": [],
      "name": "DEFAULT_ADMIN_ROLE",
      "outputs": [
        {
          "internalType": "bytes32",
          "name": "",
          "type": "bytes32"
        }
      ],
      "stateMutability": "view",
      "type": "function"
    },
    {
      "inputs": [],
      "name": "MANAGE_ROLE",
      "outputs": [
        {
          "internalType": "bytes32",
          "name": "",
          "type": "bytes32"
        }
      ],
      "stateMutability": "view",
      "type": "function"
    },
    {
      "inputs": [
        {
          "internalType": "address",
          "name": "token",
          "type": "address"
        }
      ],
      "name": "balance",
      "outputs": [
        {
          "internalType": "uint256",
          "name": "",
          "type": "uint256"
        }
      ],
      "stateMutability": "view",
      "type": "function"
    },
    {
      "inputs": [
        {
          "internalType": "bytes32",
          "name": "role",
          "type": "bytes32"
        },
        {
          "internalType": "address[]",
          "name": "accounts",
          "type": "address[]"
        }
      ],
      "name": "batchGrantRole",
      "outputs": [],
      "stateMutability": "nonpayable",
      "type": "function"
    },
    {
      "inputs": [
        {
          "internalType": "bytes32",
          "name": "role",
          "type": "bytes32"
        },
        {
          "internalType": "address[]",
          "name": "accounts",
          "type": "address[]"
        }
      ],
      "name": "batchRevokeRole",
      "outputs": [],
      "stateMutability": "nonpayable",
      "type": "function"
    },
    {
      "inputs": [
        {
          "internalType": "uint256",
          "name": "num",
          "type": "uint256"
        }
      ],
      "name": "buyWhiteList",
      "outputs": [],
      "stateMutability": "nonpayable",
      "type": "function"
    },
    {
      "inputs": [
        {
          "internalType": "address",
          "name": "",
          "type": "address"
        }
      ],
      "name": "currentPersonalWhiteListNum",
      "outputs": [
        {
          "internalType": "uint256",
          "name": "",
          "type": "uint256"
        }
      ],
      "stateMutability": "view",
      "type": "function"
    },
    {
      "inputs": [],
      "name": "currentWhiteListNum",
      "outputs": [
        {
          "internalType": "uint256",
          "name": "",
          "type": "uint256"
        }
      ],
      "stateMutability": "view",
      "type": "function"
    },
    {
      "inputs": [],
      "name": "funSwitch",
      "outputs": [
        {
          "internalType": "bool",
          "name": "",
          "type": "bool"
        }
      ],
      "stateMutability": "view",
      "type": "function"
    },
    {
      "inputs": [
        {
          "internalType": "bytes32",
          "name": "role",
          "type": "bytes32"
        }
      ],
      "name": "getRoleAdmin",
      "outputs": [
        {
          "internalType": "bytes32",
          "name": "",
          "type": "bytes32"
        }
      ],
      "stateMutability": "view",
      "type": "function"
    },
    {
      "inputs": [
        {
          "internalType": "bytes32",
          "name": "role",
          "type": "bytes32"
        },
        {
          "internalType": "uint256",
          "name": "index",
          "type": "uint256"
        }
      ],
      "name": "getRoleMember",
      "outputs": [
        {
          "internalType": "address",
          "name": "",
          "type": "address"
        }
      ],
      "stateMutability": "view",
      "type": "function"
    },
    {
      "inputs": [
        {
          "internalType": "bytes32",
          "name": "role",
          "type": "bytes32"
        }
      ],
      "name": "getRoleMemberCount",
      "outputs": [
        {
          "internalType": "uint256",
          "name": "",
          "type": "uint256"
        }
      ],
      "stateMutability": "view",
      "type": "function"
    },
    {
      "inputs": [],
      "name": "getWhiteListState",
      "outputs": [
        {
          "components": [
            {
              "internalType": "uint256",
              "name": "maxWhiteListNum",
              "type": "uint256"
            },
            {
              "internalType": "uint256",
              "name": "currentWhiteListNum",
              "type": "uint256"
            },
            {
              "internalType": "uint256",
              "name": "unitPrice",
              "type": "uint256"
            },
            {
              "internalType": "uint256",
              "name": "personalMaxWhiteListNum",
              "type": "uint256"
            },
            {
              "internalType": "uint256",
              "name": "personalWhiteList",
              "type": "uint256"
            }
          ],
          "internalType": "struct WhiteList.WhiteListState",
          "name": "whiteListState",
          "type": "tuple"
        }
      ],
      "stateMutability": "view",
      "type": "function"
    },
    {
      "inputs": [
        {
          "internalType": "bytes32",
          "name": "role",
          "type": "bytes32"
        },
        {
          "internalType": "address",
          "name": "account",
          "type": "address"
        }
      ],
      "name": "grantRole",
      "outputs": [],
      "stateMutability": "nonpayable",
      "type": "function"
    },
    {
      "inputs": [
        {
          "internalType": "bytes32",
          "name": "role",
          "type": "bytes32"
        },
        {
          "internalType": "address",
          "name": "account",
          "type": "address"
        }
      ],
      "name": "hasRole",
      "outputs": [
        {
          "internalType": "bool",
          "name": "",
          "type": "bool"
        }
      ],
      "stateMutability": "view",
      "type": "function"
    },
    {
      "inputs": [
        {
          "internalType": "contract IERC20Upgradeable",
          "name": "_usdt",
          "type": "address"
        },
        {
          "internalType": "address",
          "name": "_usdtReceiver",
          "type": "address"
        }
      ],
      "name": "initialize",
      "outputs": [],
      "stateMutability": "nonpayable",
      "type": "function"
    },
    {
      "inputs": [],
      "name": "maxWhiteListNum",
      "outputs": [
        {
          "internalType": "uint256",
          "name": "",
          "type": "uint256"
        }
      ],
      "stateMutability": "view",
      "type": "function"
    },
    {
      "inputs": [],
      "name": "personalMaxWhiteListNum",
      "outputs": [
        {
          "internalType": "uint256",
          "name": "",
          "type": "uint256"
        }
      ],
      "stateMutability": "view",
      "type": "function"
    },
    {
      "inputs": [],
      "name": "proxiableUUID",
      "outputs": [
        {
          "internalType": "bytes32",
          "name": "",
          "type": "bytes32"
        }
      ],
      "stateMutability": "view",
      "type": "function"
    },
    {
      "inputs": [
        {
          "internalType": "bytes32",
          "name": "role",
          "type": "bytes32"
        }
      ],
      "name": "queryRoles",
      "outputs": [
        {
          "internalType": "address[]",
          "name": "",
          "type": "address[]"
        }
      ],
      "stateMutability": "view",
      "type": "function"
    },
    {
      "inputs": [
        {
          "internalType": "bytes32",
          "name": "role",
          "type": "bytes32"
        },
        {
          "internalType": "address",
          "name": "account",
          "type": "address"
        }
      ],
      "name": "renounceRole",
      "outputs": [],
      "stateMutability": "nonpayable",
      "type": "function"
    },
    {
      "inputs": [
        {
          "internalType": "bytes32",
          "name": "role",
          "type": "bytes32"
        },
        {
          "internalType": "address",
          "name": "account",
          "type": "address"
        }
      ],
      "name": "revokeRole",
      "outputs": [],
      "stateMutability": "nonpayable",
      "type": "function"
    },
    {
      "inputs": [
        {
          "internalType": "bool",
          "name": "_funSwitch",
          "type": "bool"
        }
      ],
      "name": "setFunSwitch",
      "outputs": [],
      "stateMutability": "nonpayable",
      "type": "function"
    },
    {
      "inputs": [
        {
          "internalType": "uint256",
          "name": "_maxWhiteListNum",
          "type": "uint256"
        }
      ],
      "name": "setMaxWhiteListNum",
      "outputs": [],
      "stateMutability": "nonpayable",
      "type": "function"
    },
    {
      "inputs": [
        {
          "internalType": "uint256",
          "name": "_personalMaxWhiteListNum",
          "type": "uint256"
        }
      ],
      "name": "setPersonalMaxWhiteListNum",
      "outputs": [],
      "stateMutability": "nonpayable",
      "type": "function"
    },
    {
      "inputs": [
        {
          "internalType": "uint256",
          "name": "_uintPrice",
          "type": "uint256"
        }
      ],
      "name": "setUnitPrice",
      "outputs": [],
      "stateMutability": "nonpayable",
      "type": "function"
    },
    {
      "inputs": [
        {
          "internalType": "contract IERC20Upgradeable",
          "name": "_usdt",
          "type": "address"
        }
      ],
      "name": "setUsdt",
      "outputs": [],
      "stateMutability": "nonpayable",
      "type": "function"
    },
    {
      "inputs": [
        {
          "internalType": "address",
          "name": "_usdtReceiver",
          "type": "address"
        }
      ],
      "name": "setUsdtReceiver",
      "outputs": [],
      "stateMutability": "nonpayable",
      "type": "function"
    },
    {
      "inputs": [
        {
          "internalType": "bytes4",
          "name": "interfaceId",
          "type": "bytes4"
        }
      ],
      "name": "supportsInterface",
      "outputs": [
        {
          "internalType": "bool",
          "name": "",
          "type": "bool"
        }
      ],
      "stateMutability": "view",
      "type": "function"
    },
    {
      "inputs": [],
      "name": "unitPrice",
      "outputs": [
        {
          "internalType": "uint256",
          "name": "",
          "type": "uint256"
        }
      ],
      "stateMutability": "view",
      "type": "function"
    },
    {
      "inputs": [
        {
          "internalType": "address",
          "name": "newImplementation",
          "type": "address"
        }
      ],
      "name": "upgradeTo",
      "outputs": [],
      "stateMutability": "nonpayable",
      "type": "function"
    },
    {
      "inputs": [
        {
          "internalType": "address",
          "name": "newImplementation",
          "type": "address"
        },
        {
          "internalType": "bytes",
          "name": "data",
          "type": "bytes"
        }
      ],
      "name": "upgradeToAndCall",
      "outputs": [],
      "stateMutability": "payable",
      "type": "function"
    },
    {
      "inputs": [],
      "name": "usdt",
      "outputs": [
        {
          "internalType": "contract IERC20Upgradeable",
          "name": "",
          "type": "address"
        }
      ],
      "stateMutability": "view",
      "type": "function"
    },
    {
      "inputs": [],
      "name": "usdtReceiver",
      "outputs": [
        {
          "internalType": "address",
          "name": "",
          "type": "address"
        }
      ],
      "stateMutability": "view",
      "type": "function"
    },
    {
      "inputs": [
        {
          "internalType": "address",
          "name": "to",
          "type": "address"
        },
        {
          "internalType": "uint256",
          "name": "amount",
          "type": "uint256"
        }
      ],
      "name": "withdrawBNB",
      "outputs": [],
      "stateMutability": "nonpayable",
      "type": "function"
    },
    {
      "inputs": [
        {
          "internalType": "address",
          "name": "token",
          "type": "address"
        },
        {
          "internalType": "address",
          "name": "to",
          "type": "address"
        },
        {
          "internalType": "uint256",
          "name": "amount",
          "type": "uint256"
        }
      ],
      "name": "withdrawErc20",
      "outputs": [],
      "stateMutability": "nonpayable",
      "type": "function"
    }
  ],
  "bytecode": "0x60a0604052306080523480156200001557600080fd5b506200002062000026565b620000e7565b600054610100900460ff1615620000935760405162461bcd60e51b815260206004820152602760248201527f496e697469616c697a61626c653a20636f6e747261637420697320696e697469604482015266616c697a696e6760c81b606482015260840160405180910390fd5b60005460ff90811614620000e5576000805460ff191660ff9081179091556040519081527f7f26b83ff96e1f2b6a682f133852f6798a09c465da95921460cefb38474024989060200160405180910390a15b565b6080516125966200011f600039600081816108b7015281816108f701528181610b9f01528181610bdf0152610c6e01526125966000f3fe60806040526004361061020f5760003560e01c806360a4b76a11610118578063ca15c873116100a0578063dc1b73281161006f578063dc1b732814610659578063e3d670d714610679578063e73faa2d14610699578063e7499367146106b0578063ef6cf804146106d057600080fd5b8063ca15c873146105a7578063caf97d94146105c7578063d547741f146105e2578063d72404601461060257600080fd5b80639010d07c116100e75780639010d07c1461051b57806391d148541461053b578063a217fddf1461055b578063a97af1f214610570578063bd0656721461059057600080fd5b806360a4b76a1461048c578063620bb3ca146104ae57806367ab5b8d146104db5780636f39feec146104fb57600080fd5b806336568abe1161019b5780634f1ef2861161016a5780634f1ef2861461040457806352d1902d14610417578063539643f71461042c578063582b8f691461044c57806358979bfe1461046c57600080fd5b806336568abe146103845780633659cfe6146103a457806346b5cb59146103c4578063485cc955146103e457600080fd5b80631ad43a0f116101e25780631ad43a0f146102e0578063248a9ca3146102f75780632a72f8cf146103275780632f2ff15d1461033e5780632f48ab7d1461035e57600080fd5b806301ffc9a714610214578063035dc19f1461024957806313d0d8e7146102855780631593dee1146102be575b600080fd5b34801561022057600080fd5b5061023461022f366004611f16565b6106f0565b60405190151581526020015b60405180910390f35b34801561025557600080fd5b50610277610264366004611f55565b6101656020526000908152604090205481565b604051908152602001610240565b34801561029157600080fd5b50610160546102a6906001600160a01b031681565b6040516001600160a01b039091168152602001610240565b3480156102ca57600080fd5b506102de6102d9366004611f72565b61071b565b005b3480156102ec57600080fd5b506102776101615481565b34801561030357600080fd5b50610277610312366004611fb3565b60009081526065602052604090206001015490565b34801561033357600080fd5b506102776101645481565b34801561034a57600080fd5b506102de610359366004611fcc565b610805565b34801561036a57600080fd5b5061015f546102a69061010090046001600160a01b031681565b34801561039057600080fd5b506102de61039f366004611fcc565b61082f565b3480156103b057600080fd5b506102de6103bf366004611f55565b6108ad565b3480156103d057600080fd5b506102de6103df366004611ffc565b61098c565b3480156103f057600080fd5b506102de6103ff36600461207b565b6109f4565b6102de6104123660046120bf565b610b95565b34801561042357600080fd5b50610277610c61565b34801561043857600080fd5b506102de610447366004611fb3565b610d14565b34801561045857600080fd5b506102de610467366004612191565b610d33565b34801561047857600080fd5b506102de610487366004611f55565b610d60565b34801561049857600080fd5b5061027760008051602061254183398151915281565b3480156104ba57600080fd5b506104ce6104c9366004611fb3565b610da2565b60405161024091906121ae565b3480156104e757600080fd5b506102de6104f6366004611f55565b610e51565b34801561050757600080fd5b506102de610516366004611ffc565b610e8d565b34801561052757600080fd5b506102a66105363660046121fb565b610ef5565b34801561054757600080fd5b50610234610556366004611fcc565b610f14565b34801561056757600080fd5b50610277600081565b34801561057c57600080fd5b506102de61058b36600461221d565b610f3f565b34801561059c57600080fd5b506102776101625481565b3480156105b357600080fd5b506102776105c2366004611fb3565b610fd4565b3480156105d357600080fd5b5061015f546102349060ff1681565b3480156105ee57600080fd5b506102de6105fd366004611fcc565b610feb565b34801561060e57600080fd5b50610617611010565b6040516102409190600060a082019050825182526020830151602083015260408301516040830152606083015160608301526080830151608083015292915050565b34801561066557600080fd5b506102de610674366004611fb3565b611082565b34801561068557600080fd5b50610277610694366004611f55565b6110a1565b3480156106a557600080fd5b506102776101635481565b3480156106bc57600080fd5b506102de6106cb366004611fb3565b611120565b3480156106dc57600080fd5b506102de6106eb366004611fb3565b61113f565b60006001600160e01b03198216635a05180f60e01b1480610715575061071582611346565b92915050565b6000805160206125418339815191526107338161137b565b6040516370a0823160e01b81523060048201526000906001600160a01b038616906370a0823190602401602060405180830381865afa15801561077a573d6000803e3d6000fd5b505050506040513d601f19601f8201168201806040525081019061079e9190612249565b9050828110156107ea5760405162461bcd60e51b815260206004820152601260248201527111549493d48e925394d551919250d251539560721b60448201526064015b60405180910390fd5b6107fe6001600160a01b0386168585611385565b5050505050565b6000828152606560205260409020600101546108208161137b565b61082a83836113e8565b505050565b6001600160a01b038116331461089f5760405162461bcd60e51b815260206004820152602f60248201527f416363657373436f6e74726f6c3a2063616e206f6e6c792072656e6f756e636560448201526e103937b632b9903337b91039b2b63360891b60648201526084016107e1565b6108a9828261140a565b5050565b6001600160a01b037f00000000000000000000000000000000000000000000000000000000000000001630036108f55760405162461bcd60e51b81526004016107e190612262565b7f00000000000000000000000000000000000000000000000000000000000000006001600160a01b031661093e6000805160206124fa833981519152546001600160a01b031690565b6001600160a01b0316146109645760405162461bcd60e51b81526004016107e1906122ae565b61096d8161142c565b6040805160008082526020820190925261098991839190611444565b50565b6000838152606560205260409020600101546109a78161137b565b60005b828110156107fe576109e2858585848181106109c8576109c86122fa565b90506020020160208101906109dd9190611f55565b6113e8565b806109ec81612326565b9150506109aa565b600054610100900460ff1615808015610a145750600054600160ff909116105b80610a2e5750303b158015610a2e575060005460ff166001145b610a915760405162461bcd60e51b815260206004820152602e60248201527f496e697469616c697a61626c653a20636f6e747261637420697320616c72656160448201526d191e481a5b9a5d1a585b1a5e995960921b60648201526084016107e1565b6000805460ff191660011790558015610ab4576000805461ff0019166101001790555b610abc6115af565b610ac46115d8565b610acc6115af565b610ad76000336113e8565b610aef600080516020612541833981519152336113e8565b61015f8054610100600160a81b0319166101006001600160a01b03868116919091029190911790915561016080546001600160a01b031916918416919091179055624c4b4061016155671bc16d674ec800006101635560c861016455801561082a576000805461ff0019169055604051600181527f7f26b83ff96e1f2b6a682f133852f6798a09c465da95921460cefb38474024989060200160405180910390a1505050565b6001600160a01b037f0000000000000000000000000000000000000000000000000000000000000000163003610bdd5760405162461bcd60e51b81526004016107e190612262565b7f00000000000000000000000000000000000000000000000000000000000000006001600160a01b0316610c266000805160206124fa833981519152546001600160a01b031690565b6001600160a01b031614610c4c5760405162461bcd60e51b81526004016107e1906122ae565b610c558261142c565b6108a982826001611444565b6000306001600160a01b037f00000000000000000000000000000000000000000000000000000000000000001614610d015760405162461bcd60e51b815260206004820152603860248201527f555550535570677261646561626c653a206d757374206e6f742062652063616c60448201527f6c6564207468726f7567682064656c656761746563616c6c000000000000000060648201526084016107e1565b506000805160206124fa83398151915290565b600080516020612541833981519152610d2c8161137b565b5061016155565b600080516020612541833981519152610d4b8161137b565b5061015f805460ff1916911515919091179055565b600080516020612541833981519152610d788161137b565b5061015f80546001600160a01b0390921661010002610100600160a81b0319909216919091179055565b60606000610daf83610fd4565b905060008167ffffffffffffffff811115610dcc57610dcc6120a9565b604051908082528060200260200182016040528015610df5578160200160208202803683370190505b50905060005b82811015610e4957610e0d8582610ef5565b828281518110610e1f57610e1f6122fa565b6001600160a01b039092166020928302919091019091015280610e4181612326565b915050610dfb565b509392505050565b600080516020612541833981519152610e698161137b565b5061016080546001600160a01b0319166001600160a01b0392909216919091179055565b600083815260656020526040902060010154610ea88161137b565b60005b828110156107fe57610ee385858584818110610ec957610ec96122fa565b9050602002016020810190610ede9190611f55565b61140a565b80610eed81612326565b915050610eab565b6000828152609760205260408120610f0d9083611607565b9392505050565b60009182526065602090815260408084206001600160a01b0393909316845291905290205460ff1690565b600080516020612541833981519152610f578161137b565b303182811015610f9e5760405162461bcd60e51b815260206004820152601260248201527111549493d48e925394d551919250d251539560721b60448201526064016107e1565b6040516001600160a01b0385169084156108fc029085906000818181858888f193505050501580156107fe573d6000803e3d6000fd5b600081815260976020526040812061071590611613565b6000828152606560205260409020600101546110068161137b565b61082a838361140a565b6110426040518060a0016040528060008152602001600081526020016000815260200160008152602001600081525090565b6101615481526101625460208083019190915261016354604080840191909152610164546060840152336000908152610165909252902054608082015290565b60008051602061254183398151915261109a8161137b565b5061016355565b60006001600160a01b0382166110b8575047919050565b6040516370a0823160e01b81523060048201526001600160a01b038316906370a0823190602401602060405180830381865afa1580156110fc573d6000803e3d6000fd5b505050506040513d601f19601f820116820180604052508101906107159190612249565b6000805160206125418339815191526111388161137b565b5061016455565b61015f5460ff161561118b5760405162461bcd60e51b815260206004820152601560248201527457686974654c6973743a206e6f742073746172742160581b60448201526064016107e1565b61016154816101625461119e919061233f565b11156111ec5760405162461bcd60e51b815260206004820181905260248201527f57686974654c6973743a20657863656564206d6178206e756d206c696d69742160448201526064016107e1565b61016154336000908152610165602052604090205461120c90839061233f565b111561126c5760405162461bcd60e51b815260206004820152602960248201527f57686974654c6973743a2065786365656420706572736f6e616c206d6178206e604482015268756d206c696d69742160b81b60648201526084016107e1565b61016054610163546112aa9133916001600160a01b03909116906112909085612352565b61015f5461010090046001600160a01b031692919061161d565b8061016260008282546112bd919061233f565b90915550503360009081526101656020526040812080548392906112e290849061233f565b925050819055507fbac3d4ad3a08640666e4f14e0e21ebfe1c8c63488222caeae814473634b4cb1b3382610163548461131b9190612352565b604080516001600160a01b03909416845260208401929092529082015260600160405180910390a150565b60006001600160e01b03198216637965db0b60e01b148061071557506301ffc9a760e01b6001600160e01b0319831614610715565b610989813361165b565b6040516001600160a01b03831660248201526044810182905261082a90849063a9059cbb60e01b906064015b60408051601f198184030181529190526020810180516001600160e01b03166001600160e01b0319909316929092179091526116b4565b6113f28282611789565b600082815260976020526040902061082a908261180f565b6114148282611824565b600082815260976020526040902061082a908261188b565b6000805160206125418339815191526108a98161137b565b7f4910fdfa16fed3260ed0e7147f7cc6da11a60208b5b9406d12a635614ffd91435460ff16156114775761082a836118a0565b826001600160a01b03166352d1902d6040518163ffffffff1660e01b8152600401602060405180830381865afa9250505080156114d1575060408051601f3d908101601f191682019092526114ce91810190612249565b60015b6115345760405162461bcd60e51b815260206004820152602e60248201527f45524331393637557067726164653a206e657720696d706c656d656e7461746960448201526d6f6e206973206e6f74205555505360901b60648201526084016107e1565b6000805160206124fa83398151915281146115a35760405162461bcd60e51b815260206004820152602960248201527f45524331393637557067726164653a20756e737570706f727465642070726f786044820152681a58589b195555525160ba1b60648201526084016107e1565b5061082a83838361193c565b600054610100900460ff166115d65760405162461bcd60e51b81526004016107e190612369565b565b600054610100900460ff166115ff5760405162461bcd60e51b81526004016107e190612369565b6115d6611961565b6000610f0d838361198f565b6000610715825490565b6040516001600160a01b03808516602483015283166044820152606481018290526116559085906323b872dd60e01b906084016113b1565b50505050565b6116658282610f14565b6108a957611672816119b9565b61167d8360206119cb565b60405160200161168e9291906123d8565b60408051601f198184030181529082905262461bcd60e51b82526107e19160040161244d565b6000611709826040518060400160405280602081526020017f5361666545524332303a206c6f772d6c6576656c2063616c6c206661696c6564815250856001600160a01b0316611b679092919063ffffffff16565b905080516000148061172a57508080602001905181019061172a9190612480565b61082a5760405162461bcd60e51b815260206004820152602a60248201527f5361666545524332303a204552433230206f7065726174696f6e20646964206e6044820152691bdd081cdd58d8d9595960b21b60648201526084016107e1565b6117938282610f14565b6108a95760008281526065602090815260408083206001600160a01b03851684529091529020805460ff191660011790556117cb3390565b6001600160a01b0316816001600160a01b0316837f2f8788117e7eff1d82e926ec794901d17c78024a50270940304540a733656f0d60405160405180910390a45050565b6000610f0d836001600160a01b038416611b7e565b61182e8282610f14565b156108a95760008281526065602090815260408083206001600160a01b0385168085529252808320805460ff1916905551339285917ff6391f5c32d9c69d2a47ea670b442974b53935d1edc7fd64eb21e047a839171b9190a45050565b6000610f0d836001600160a01b038416611bcd565b6001600160a01b0381163b61190d5760405162461bcd60e51b815260206004820152602d60248201527f455243313936373a206e657720696d706c656d656e746174696f6e206973206e60448201526c1bdd08184818dbdb9d1c9858dd609a1b60648201526084016107e1565b6000805160206124fa83398151915280546001600160a01b0319166001600160a01b0392909216919091179055565b61194583611cc0565b6000825111806119525750805b1561082a576116558383611d00565b600054610100900460ff166119885760405162461bcd60e51b81526004016107e190612369565b600160c955565b60008260000182815481106119a6576119a66122fa565b9060005260206000200154905092915050565b60606107156001600160a01b03831660145b606060006119da836002612352565b6119e590600261233f565b67ffffffffffffffff8111156119fd576119fd6120a9565b6040519080825280601f01601f191660200182016040528015611a27576020820181803683370190505b509050600360fc1b81600081518110611a4257611a426122fa565b60200101906001600160f81b031916908160001a905350600f60fb1b81600181518110611a7157611a716122fa565b60200101906001600160f81b031916908160001a9053506000611a95846002612352565b611aa090600161233f565b90505b6001811115611b18576f181899199a1a9b1b9c1cb0b131b232b360811b85600f1660108110611ad457611ad46122fa565b1a60f81b828281518110611aea57611aea6122fa565b60200101906001600160f81b031916908160001a90535060049490941c93611b118161249d565b9050611aa3565b508315610f0d5760405162461bcd60e51b815260206004820181905260248201527f537472696e67733a20686578206c656e67746820696e73756666696369656e7460448201526064016107e1565b6060611b768484600085611d25565b949350505050565b6000818152600183016020526040812054611bc557508154600181810184556000848152602080822090930184905584548482528286019093526040902091909155610715565b506000610715565b60008181526001830160205260408120548015611cb6576000611bf16001836124b4565b8554909150600090611c05906001906124b4565b9050818114611c6a576000866000018281548110611c2557611c256122fa565b9060005260206000200154905080876000018481548110611c4857611c486122fa565b6000918252602080832090910192909255918252600188019052604090208390555b8554869080611c7b57611c7b6124c7565b600190038181906000526020600020016000905590558560010160008681526020019081526020016000206000905560019350505050610715565b6000915050610715565b611cc9816118a0565b6040516001600160a01b038216907fbc7cd75a20ee27fd9adebab32041f755214dbc6bffa90cc0225b39da2e5c2d3b90600090a250565b6060610f0d838360405180606001604052806027815260200161251a60279139611e00565b606082471015611d865760405162461bcd60e51b815260206004820152602660248201527f416464726573733a20696e73756666696369656e742062616c616e636520666f6044820152651c8818d85b1b60d21b60648201526084016107e1565b600080866001600160a01b03168587604051611da291906124dd565b60006040518083038185875af1925050503d8060008114611ddf576040519150601f19603f3d011682016040523d82523d6000602084013e611de4565b606091505b5091509150611df587838387611e78565b979650505050505050565b6060600080856001600160a01b031685604051611e1d91906124dd565b600060405180830381855af49150503d8060008114611e58576040519150601f19603f3d011682016040523d82523d6000602084013e611e5d565b606091505b5091509150611e6e86838387611e78565b9695505050505050565b60608315611ee7578251600003611ee0576001600160a01b0385163b611ee05760405162461bcd60e51b815260206004820152601d60248201527f416464726573733a2063616c6c20746f206e6f6e2d636f6e747261637400000060448201526064016107e1565b5081611b76565b611b768383815115611efc5781518083602001fd5b8060405162461bcd60e51b81526004016107e1919061244d565b600060208284031215611f2857600080fd5b81356001600160e01b031981168114610f0d57600080fd5b6001600160a01b038116811461098957600080fd5b600060208284031215611f6757600080fd5b8135610f0d81611f40565b600080600060608486031215611f8757600080fd5b8335611f9281611f40565b92506020840135611fa281611f40565b929592945050506040919091013590565b600060208284031215611fc557600080fd5b5035919050565b60008060408385031215611fdf57600080fd5b823591506020830135611ff181611f40565b809150509250929050565b60008060006040848603121561201157600080fd5b83359250602084013567ffffffffffffffff8082111561203057600080fd5b818601915086601f83011261204457600080fd5b81358181111561205357600080fd5b8760208260051b850101111561206857600080fd5b6020830194508093505050509250925092565b6000806040838503121561208e57600080fd5b823561209981611f40565b91506020830135611ff181611f40565b634e487b7160e01b600052604160045260246000fd5b600080604083850312156120d257600080fd5b82356120dd81611f40565b9150602083013567ffffffffffffffff808211156120fa57600080fd5b818501915085601f83011261210e57600080fd5b813581811115612120576121206120a9565b604051601f8201601f19908116603f01168101908382118183101715612148576121486120a9565b8160405282815288602084870101111561216157600080fd5b8260208601602083013760006020848301015280955050505050509250929050565b801515811461098957600080fd5b6000602082840312156121a357600080fd5b8135610f0d81612183565b6020808252825182820181905260009190848201906040850190845b818110156121ef5783516001600160a01b0316835292840192918401916001016121ca565b50909695505050505050565b6000806040838503121561220e57600080fd5b50508035926020909101359150565b6000806040838503121561223057600080fd5b823561223b81611f40565b946020939093013593505050565b60006020828403121561225b57600080fd5b5051919050565b6020808252602c908201527f46756e6374696f6e206d7573742062652063616c6c6564207468726f7567682060408201526b19195b1959d85d1958d85b1b60a21b606082015260800190565b6020808252602c908201527f46756e6374696f6e206d7573742062652063616c6c6564207468726f7567682060408201526b6163746976652070726f787960a01b606082015260800190565b634e487b7160e01b600052603260045260246000fd5b634e487b7160e01b600052601160045260246000fd5b60006001820161233857612338612310565b5060010190565b8082018082111561071557610715612310565b808202811582820484141761071557610715612310565b6020808252602b908201527f496e697469616c697a61626c653a20636f6e7472616374206973206e6f74206960408201526a6e697469616c697a696e6760a81b606082015260800190565b60005b838110156123cf5781810151838201526020016123b7565b50506000910152565b7f416363657373436f6e74726f6c3a206163636f756e74200000000000000000008152600083516124108160178501602088016123b4565b7001034b99036b4b9b9b4b733903937b6329607d1b60179184019182015283516124418160288401602088016123b4565b01602801949350505050565b602081526000825180602084015261246c8160408501602087016123b4565b601f01601f19169190910160400192915050565b60006020828403121561249257600080fd5b8151610f0d81612183565b6000816124ac576124ac612310565b506000190190565b8181038181111561071557610715612310565b634e487b7160e01b600052603160045260246000fd5b600082516124ef8184602087016123b4565b919091019291505056fe360894a13ba1a3210667c828492db98dca3e2076cc3735a920a3ca505d382bbc416464726573733a206c6f772d6c6576656c2064656c65676174652063616c6c206661696c6564a076a07f65bcd51bcb15a0f01a65bc18f2d922acb81bcfd8af4caf5adb557091a264697066735822122064dbc24b309970a551728d9815bcf58292e4ddf6c0aa6dd18714917ac5cb2f1164736f6c63430008110033",
  "linkReferences": {},
  "deployedLinkReferences": {}
}