{
  "_format": "hh-sol-artifact-1",
  "contractName": "Inscription",
  "sourceName": "contracts/Inscription.sol",
  "abi": [
    {
      "inputs": [],
      "stateMutability": "nonpayable",
      "type": "constructor"
    },
    {
      "anonymous": false,
      "inputs": [
        {
          "indexed": false,
          "internalType": "address",
          "name": "previousAdmin",
          "type": "address"
        },
        {
          "indexed": false,
          "internalType": "address",
          "name": "newAdmin",
          "type": "address"
        }
      ],
      "name": "AdminChanged",
      "type": "event"
    },
    {
      "anonymous": false,
      "inputs": [
        {
          "indexed": true,
          "internalType": "address",
          "name": "beacon",
          "type": "address"
        }
      ],
      "name": "BeaconUpgraded",
      "type": "event"
    },
    {
      "anonymous": false,
      "inputs": [
        {
          "indexed": false,
          "internalType": "uint8",
          "name": "version",
          "type": "uint8"
        }
      ],
      "name": "Initialized",
      "type": "event"
    },
    {
      "anonymous": false,
      "inputs": [
        {
          "indexed": false,
          "internalType": "address",
          "name": "caller",
          "type": "address"
        },
        {
          "indexed": false,
          "internalType": "uint256",
          "name": "order",
          "type": "uint256"
        },
        {
          "indexed": false,
          "internalType": "bytes[]",
          "name": "ins",
          "type": "bytes[]"
        }
      ],
      "name": "Mint",
      "type": "event"
    },
    {
      "anonymous": false,
      "inputs": [
        {
          "indexed": true,
          "internalType": "bytes32",
          "name": "role",
          "type": "bytes32"
        },
        {
          "indexed": true,
          "internalType": "bytes32",
          "name": "previousAdminRole",
          "type": "bytes32"
        },
        {
          "indexed": true,
          "internalType": "bytes32",
          "name": "newAdminRole",
          "type": "bytes32"
        }
      ],
      "name": "RoleAdminChanged",
      "type": "event"
    },
    {
      "anonymous": false,
      "inputs": [
        {
          "indexed": true,
          "internalType": "bytes32",
          "name": "role",
          "type": "bytes32"
        },
        {
          "indexed": true,
          "internalType": "address",
          "name": "account",
          "type": "address"
        },
        {
          "indexed": true,
          "internalType": "address",
          "name": "sender",
          "type": "address"
        }
      ],
      "name": "RoleGranted",
      "type": "event"
    },
    {
      "anonymous": false,
      "inputs": [
        {
          "indexed": true,
          "internalType": "bytes32",
          "name": "role",
          "type": "bytes32"
        },
        {
          "indexed": true,
          "internalType": "address",
          "name": "account",
          "type": "address"
        },
        {
          "indexed": true,
          "internalType": "address",
          "name": "sender",
          "type": "address"
        }
      ],
      "name": "RoleRevoked",
      "type": "event"
    },
    {
      "anonymous": false,
      "inputs": [
        {
          "indexed": true,
          "internalType": "address",
          "name": "implementation",
          "type": "address"
        }
      ],
      "name": "Upgraded",
      "type": "event"
    },
    {
      "inputs": [],
      "name": "DEFAULT_ADMIN_ROLE",
      "outputs": [
        {
          "internalType": "bytes32",
          "name": "",
          "type": "bytes32"
        }
      ],
      "stateMutability": "view",
      "type": "function"
    },
    {
      "inputs": [],
      "name": "DOMAIN_SEPARATOR",
      "outputs": [
        {
          "internalType": "bytes32",
          "name": "",
          "type": "bytes32"
        }
      ],
      "stateMutability": "view",
      "type": "function"
    },
    {
      "inputs": [],
      "name": "MANAGE_ROLE",
      "outputs": [
        {
          "internalType": "bytes32",
          "name": "",
          "type": "bytes32"
        }
      ],
      "stateMutability": "view",
      "type": "function"
    },
    {
      "inputs": [
        {
          "internalType": "address",
          "name": "token",
          "type": "address"
        }
      ],
      "name": "balance",
      "outputs": [
        {
          "internalType": "uint256",
          "name": "",
          "type": "uint256"
        }
      ],
      "stateMutability": "view",
      "type": "function"
    },
    {
      "inputs": [
        {
          "internalType": "bytes32",
          "name": "role",
          "type": "bytes32"
        },
        {
          "internalType": "address[]",
          "name": "accounts",
          "type": "address[]"
        }
      ],
      "name": "batchGrantRole",
      "outputs": [],
      "stateMutability": "nonpayable",
      "type": "function"
    },
    {
      "inputs": [
        {
          "internalType": "bytes32",
          "name": "role",
          "type": "bytes32"
        },
        {
          "internalType": "address[]",
          "name": "accounts",
          "type": "address[]"
        }
      ],
      "name": "batchRevokeRole",
      "outputs": [],
      "stateMutability": "nonpayable",
      "type": "function"
    },
    {
      "inputs": [
        {
          "internalType": "bytes",
          "name": "_ins",
          "type": "bytes"
        },
        {
          "internalType": "bytes",
          "name": "_p",
          "type": "bytes"
        },
        {
          "internalType": "bytes",
          "name": "_tick",
          "type": "bytes"
        },
        {
          "internalType": "uint256",
          "name": "_max",
          "type": "uint256"
        },
        {
          "internalType": "uint256",
          "name": "_lim",
          "type": "uint256"
        }
      ],
      "name": "deploy",
      "outputs": [],
      "stateMutability": "nonpayable",
      "type": "function"
    },
    {
      "inputs": [],
      "name": "feeReceiver",
      "outputs": [
        {
          "internalType": "address",
          "name": "",
          "type": "address"
        }
      ],
      "stateMutability": "view",
      "type": "function"
    },
    {
      "inputs": [
        {
          "internalType": "bytes32",
          "name": "role",
          "type": "bytes32"
        }
      ],
      "name": "getRoleAdmin",
      "outputs": [
        {
          "internalType": "bytes32",
          "name": "",
          "type": "bytes32"
        }
      ],
      "stateMutability": "view",
      "type": "function"
    },
    {
      "inputs": [
        {
          "internalType": "bytes32",
          "name": "role",
          "type": "bytes32"
        },
        {
          "internalType": "uint256",
          "name": "index",
          "type": "uint256"
        }
      ],
      "name": "getRoleMember",
      "outputs": [
        {
          "internalType": "address",
          "name": "",
          "type": "address"
        }
      ],
      "stateMutability": "view",
      "type": "function"
    },
    {
      "inputs": [
        {
          "internalType": "bytes32",
          "name": "role",
          "type": "bytes32"
        }
      ],
      "name": "getRoleMemberCount",
      "outputs": [
        {
          "internalType": "uint256",
          "name": "",
          "type": "uint256"
        }
      ],
      "stateMutability": "view",
      "type": "function"
    },
    {
      "inputs": [
        {
          "internalType": "bytes32",
          "name": "role",
          "type": "bytes32"
        },
        {
          "internalType": "address",
          "name": "account",
          "type": "address"
        }
      ],
      "name": "grantRole",
      "outputs": [],
      "stateMutability": "nonpayable",
      "type": "function"
    },
    {
      "inputs": [
        {
          "internalType": "bytes32",
          "name": "role",
          "type": "bytes32"
        },
        {
          "internalType": "address",
          "name": "account",
          "type": "address"
        }
      ],
      "name": "hasRole",
      "outputs": [
        {
          "internalType": "bool",
          "name": "",
          "type": "bool"
        }
      ],
      "stateMutability": "view",
      "type": "function"
    },
    {
      "inputs": [
        {
          "internalType": "contract IERC20Upgradeable",
          "name": "_usdt",
          "type": "address"
        },
        {
          "internalType": "contract IERC20Upgradeable",
          "name": "_weth",
          "type": "address"
        },
        {
          "internalType": "contract IUniswapV2Router02",
          "name": "_router",
          "type": "address"
        },
        {
          "internalType": "address",
          "name": "_feeReceiver",
          "type": "address"
        },
        {
          "internalType": "address",
          "name": "_signer",
          "type": "address"
        }
      ],
      "name": "initialize",
      "outputs": [],
      "stateMutability": "nonpayable",
      "type": "function"
    },
    {
      "inputs": [
        {
          "internalType": "string",
          "name": "",
          "type": "string"
        }
      ],
      "name": "inscriptions",
      "outputs": [
        {
          "internalType": "string",
          "name": "p",
          "type": "string"
        },
        {
          "internalType": "string",
          "name": "tick",
          "type": "string"
        },
        {
          "internalType": "uint256",
          "name": "max",
          "type": "uint256"
        },
        {
          "internalType": "uint256",
          "name": "lim",
          "type": "uint256"
        },
        {
          "internalType": "uint256",
          "name": "minted",
          "type": "uint256"
        }
      ],
      "stateMutability": "view",
      "type": "function"
    },
    {
      "inputs": [
        {
          "internalType": "bytes",
          "name": "data",
          "type": "bytes"
        }
      ],
      "name": "mint",
      "outputs": [],
      "stateMutability": "payable",
      "type": "function"
    },
    {
      "inputs": [
        {
          "internalType": "string",
          "name": "tick",
          "type": "string"
        },
        {
          "internalType": "uint256",
          "name": "amt",
          "type": "uint256"
        },
        {
          "internalType": "address",
          "name": "receiver",
          "type": "address"
        }
      ],
      "name": "mintTo",
      "outputs": [],
      "stateMutability": "nonpayable",
      "type": "function"
    },
    {
      "inputs": [
        {
          "internalType": "address",
          "name": "",
          "type": "address"
        }
      ],
      "name": "nonces",
      "outputs": [
        {
          "internalType": "uint256",
          "name": "",
          "type": "uint256"
        }
      ],
      "stateMutability": "view",
      "type": "function"
    },
    {
      "inputs": [],
      "name": "proxiableUUID",
      "outputs": [
        {
          "internalType": "bytes32",
          "name": "",
          "type": "bytes32"
        }
      ],
      "stateMutability": "view",
      "type": "function"
    },
    {
      "inputs": [
        {
          "internalType": "bytes32",
          "name": "role",
          "type": "bytes32"
        }
      ],
      "name": "queryRoles",
      "outputs": [
        {
          "internalType": "address[]",
          "name": "",
          "type": "address[]"
        }
      ],
      "stateMutability": "view",
      "type": "function"
    },
    {
      "inputs": [
        {
          "internalType": "uint256",
          "name": "usdtAmount",
          "type": "uint256"
        }
      ],
      "name": "queryWethByUsdt",
      "outputs": [
        {
          "internalType": "uint256",
          "name": "wethAmount",
          "type": "uint256"
        }
      ],
      "stateMutability": "view",
      "type": "function"
    },
    {
      "inputs": [
        {
          "internalType": "bytes32",
          "name": "role",
          "type": "bytes32"
        },
        {
          "internalType": "address",
          "name": "account",
          "type": "address"
        }
      ],
      "name": "renounceRole",
      "outputs": [],
      "stateMutability": "nonpayable",
      "type": "function"
    },
    {
      "inputs": [
        {
          "internalType": "bytes32",
          "name": "role",
          "type": "bytes32"
        },
        {
          "internalType": "address",
          "name": "account",
          "type": "address"
        }
      ],
      "name": "revokeRole",
      "outputs": [],
      "stateMutability": "nonpayable",
      "type": "function"
    },
    {
      "inputs": [],
      "name": "router",
      "outputs": [
        {
          "internalType": "contract IUniswapV2Router02",
          "name": "",
          "type": "address"
        }
      ],
      "stateMutability": "view",
      "type": "function"
    },
    {
      "inputs": [],
      "name": "signer",
      "outputs": [
        {
          "internalType": "address",
          "name": "",
          "type": "address"
        }
      ],
      "stateMutability": "view",
      "type": "function"
    },
    {
      "inputs": [
        {
          "internalType": "bytes4",
          "name": "interfaceId",
          "type": "bytes4"
        }
      ],
      "name": "supportsInterface",
      "outputs": [
        {
          "internalType": "bool",
          "name": "",
          "type": "bool"
        }
      ],
      "stateMutability": "view",
      "type": "function"
    },
    {
      "inputs": [
        {
          "internalType": "address",
          "name": "newImplementation",
          "type": "address"
        }
      ],
      "name": "upgradeTo",
      "outputs": [],
      "stateMutability": "nonpayable",
      "type": "function"
    },
    {
      "inputs": [
        {
          "internalType": "address",
          "name": "newImplementation",
          "type": "address"
        },
        {
          "internalType": "bytes",
          "name": "data",
          "type": "bytes"
        }
      ],
      "name": "upgradeToAndCall",
      "outputs": [],
      "stateMutability": "payable",
      "type": "function"
    },
    {
      "inputs": [],
      "name": "usdt",
      "outputs": [
        {
          "internalType": "contract IERC20Upgradeable",
          "name": "",
          "type": "address"
        }
      ],
      "stateMutability": "view",
      "type": "function"
    },
    {
      "inputs": [],
      "name": "weth",
      "outputs": [
        {
          "internalType": "contract IERC20Upgradeable",
          "name": "",
          "type": "address"
        }
      ],
      "stateMutability": "view",
      "type": "function"
    },
    {
      "inputs": [
        {
          "internalType": "address",
          "name": "to",
          "type": "address"
        },
        {
          "internalType": "uint256",
          "name": "amount",
          "type": "uint256"
        }
      ],
      "name": "withdrawBNB",
      "outputs": [],
      "stateMutability": "nonpayable",
      "type": "function"
    },
    {
      "inputs": [
        {
          "internalType": "address",
          "name": "token",
          "type": "address"
        },
        {
          "internalType": "address",
          "name": "to",
          "type": "address"
        },
        {
          "internalType": "uint256",
          "name": "amount",
          "type": "uint256"
        }
      ],
      "name": "withdrawErc20",
      "outputs": [],
      "stateMutability": "nonpayable",
      "type": "function"
    }
  ],
  "bytecode": "0x60a0604052306080523480156200001557600080fd5b506200002062000026565b620000e7565b600054610100900460ff1615620000935760405162461bcd60e51b815260206004820152602760248201527f496e697469616c697a61626c653a20636f6e747261637420697320696e697469604482015266616c697a696e6760c81b606482015260840160405180910390fd5b60005460ff90811614620000e5576000805460ff191660ff9081179091556040519081527f7f26b83ff96e1f2b6a682f133852f6798a09c465da95921460cefb38474024989060200160405180910390a15b565b6080516135716200011f60003960008181610c7a01528181610cba0152818161108e015281816110ce015261115d01526135716000f3fe6080604052600436106101e35760003560e01c806352d1902d11610102578063a217fddf11610095578063ca15c87311610064578063ca15c873146105ae578063d547741f146105ce578063e3d670d7146105ee578063f887ea401461060e57600080fd5b8063a217fddf14610527578063a97af1f21461053c578063b3f006741461055c578063c6f487fd1461057d57600080fd5b80637ba0e2e7116100d15780637ba0e2e7146104a65780637ecebe00146104b95780639010d07c146104e757806391d148541461050757600080fd5b806352d1902d1461042257806360a4b76a14610437578063620bb3ca146104595780636f39feec1461048657600080fd5b80633644e5151161017a5780633fc8cef3116101495780633fc8cef3146103ae57806343a4c2cc146103cf57806346b5cb59146103ef5780634f1ef2861461040f57600080fd5b80633644e5151461033757806336568abe1461034e5780633659cfe61461036e5780633adc8b011461038e57600080fd5b8063248a9ca3116101b6578063248a9ca314610298578063276daa8f146102d65780632f2ff15d146102f65780632f48ab7d1461031657600080fd5b806301ffc9a7146101e85780631459457a1461021d5780631593dee11461023f578063238ac9331461025f575b600080fd5b3480156101f457600080fd5b50610208610203366004612868565b61062f565b60405190151581526020015b60405180910390f35b34801561022957600080fd5b5061023d6102383660046128a7565b61065a565b005b34801561024b57600080fd5b5061023d61025a366004612918565b6108d6565b34801561026b57600080fd5b5061016554610280906001600160a01b031681565b6040516001600160a01b039091168152602001610214565b3480156102a457600080fd5b506102c86102b3366004612959565b60009081526065602052604090206001015490565b604051908152602001610214565b3480156102e257600080fd5b5061023d6102f1366004612a27565b6109bb565b34801561030257600080fd5b5061023d610311366004612a81565b610bc8565b34801561032257600080fd5b5061015f54610280906001600160a01b031681565b34801561034357600080fd5b506102c86101645481565b34801561035a57600080fd5b5061023d610369366004612a81565b610bf2565b34801561037a57600080fd5b5061023d610389366004612ab1565b610c70565b34801561039a57600080fd5b5061023d6103a9366004612b16565b610d4f565b3480156103ba57600080fd5b5061016054610280906001600160a01b031681565b3480156103db57600080fd5b506102c86103ea366004612959565b610e7e565b3480156103fb57600080fd5b5061023d61040a366004612bb5565b61101c565b61023d61041d366004612c33565b611084565b34801561042e57600080fd5b506102c8611150565b34801561044357600080fd5b506102c86000805160206134e083398151915281565b34801561046557600080fd5b50610479610474366004612959565b611203565b6040516102149190612cc6565b34801561049257600080fd5b5061023d6104a1366004612bb5565b6112b1565b61023d6104b4366004612cd9565b611319565b3480156104c557600080fd5b506102c86104d4366004612ab1565b6101666020526000908152604090205481565b3480156104f357600080fd5b50610280610502366004612d1a565b611653565b34801561051357600080fd5b50610208610522366004612a81565b611672565b34801561053357600080fd5b506102c8600081565b34801561054857600080fd5b5061023d610557366004612d3c565b61169d565b34801561056857600080fd5b5061016354610280906001600160a01b031681565b34801561058957600080fd5b5061059d610598366004612d68565b611732565b604051610214959493929190612dec565b3480156105ba57600080fd5b506102c86105c9366004612959565b61187c565b3480156105da57600080fd5b5061023d6105e9366004612a81565b611893565b3480156105fa57600080fd5b506102c8610609366004612ab1565b6118b8565b34801561061a57600080fd5b5061016154610280906001600160a01b031681565b60006001600160e01b03198216635a05180f60e01b1480610654575061065482611937565b92915050565b600054610100900460ff161580801561067a5750600054600160ff909116105b806106945750303b158015610694575060005460ff166001145b6106fc5760405162461bcd60e51b815260206004820152602e60248201527f496e697469616c697a61626c653a20636f6e747261637420697320616c72656160448201526d191e481a5b9a5d1a585b1a5e995960921b60648201526084015b60405180910390fd5b6000805460ff19166001179055801561071f576000805461ff0019166101001790555b61072761196c565b61072f611995565b61073761196c565b6107426000336119c4565b61075a6000805160206134e0833981519152336119c4565b61015f80546001600160a01b03199081166001600160a01b03898116919091179092556101608054821688841617905561016180548216878416179055610163805482168684161790556101658054909116918416919091179055604080518082018252600b81526a24b739b1b934b83a34b7b760a91b6020918201528151808301835260018152603160f81b9082015281517f8b73c3c69bb8fe3d512ecc4cf759cc79239f7b179b0ffacaa9a75d522b39400f818301527f18760929a663bf2a6bd60a882b886c3b701a9d1eb0e44a1fd374368051550692818401527fc89efdaa54c0f20c7adf612882df0950f5a951637e0307cdcb4c672f298b8bc660608201524660808201523060a0808301919091528351808303909101815260c090910190925281519101206101645580156108ce576000805461ff0019169055604051600181527f7f26b83ff96e1f2b6a682f133852f6798a09c465da95921460cefb38474024989060200160405180910390a15b505050505050565b6000805160206134e08339815191526108ee816119e6565b6040516370a0823160e01b81523060048201526000906001600160a01b038616906370a0823190602401602060405180830381865afa158015610935573d6000803e3d6000fd5b505050506040513d601f19601f820116820180604052508101906109599190612e2f565b9050828110156109a05760405162461bcd60e51b815260206004820152601260248201527111549493d48e925394d551919250d251539560721b60448201526064016106f3565b6109b46001600160a01b03861685856119f0565b5050505050565b6000805160206134e08339815191526109d3816119e6565b6000610162856040516109e69190612e48565b9081526020016040518091039020905060008160020154118015610a11575080600201548160040154105b610a565760405162461bcd60e51b815260206004820152601660248201527524b7399d1024b739b1b934b83a34b7b71032b93937b960511b60448201526064016106f3565b8060020154848260040154610a6b9190612e7a565b1115610ab05760405162461bcd60e51b8152602060048201526014602482015273496e733a20457863656564206d6178206e756d3b60601b60448201526064016106f3565b610abc61271085612ea3565b15610afa5760405162461bcd60e51b815260206004820152600e60248201526d24b7399d1030b6ba1032b93937b960911b60448201526064016106f3565b6000610b0861271086612eb7565b905060005b81811015610bbf576000856001600160a01b031660006040518060600160405280603c8152602001613500603c9139604051610b499190612e48565b60006040518083038185875af1925050503d8060008114610b86576040519150601f19603f3d011682016040523d82523d6000602084013e610b8b565b606091505b5050905080610bac5760405162461bcd60e51b81526004016106f390612ecb565b5080610bb781612f02565b915050610b0d565b50505050505050565b600082815260656020526040902060010154610be3816119e6565b610bed83836119c4565b505050565b6001600160a01b0381163314610c625760405162461bcd60e51b815260206004820152602f60248201527f416363657373436f6e74726f6c3a2063616e206f6e6c792072656e6f756e636560448201526e103937b632b9903337b91039b2b63360891b60648201526084016106f3565b610c6c8282611a42565b5050565b6001600160a01b037f0000000000000000000000000000000000000000000000000000000000000000163003610cb85760405162461bcd60e51b81526004016106f390612f1b565b7f00000000000000000000000000000000000000000000000000000000000000006001600160a01b0316610d01600080516020613499833981519152546001600160a01b031690565b6001600160a01b031614610d275760405162461bcd60e51b81526004016106f390612f67565b610d3081611a64565b60408051600080825260208201909252610d4c91839190611a7c565b50565b6000805160206134e0833981519152610d67816119e6565b6000336001600160a01b031660008989604051610d85929190612fb3565b60006040518083038185875af1925050503d8060008114610dc2576040519150601f19603f3d011682016040523d82523d6000602084013e610dc7565b606091505b5050905080610de85760405162461bcd60e51b81526004016106f390612ecb565b6040518060a00160405280878152602001868152602001858152602001848152602001600081525061016286604051610e219190612e48565b90815260405190819003602001902081518190610e3e9082613043565b5060208201516001820190610e539082613043565b5060408201516002820155606082015160038201556080909101516004909101555050505050505050565b60408051600280825260608201835260009283929190602083019080368337505061015f5482519293506001600160a01b031691839150600090610ec457610ec4613102565b6001600160a01b03928316602091820292909201015261016054825191169082906001908110610ef657610ef6613102565b6001600160a01b0392831660209182029290920101526101615460405163d06ca61f60e01b8152600092919091169063d06ca61f90610f4390670de0b6b3a7640000908690600401613118565b600060405180830381865afa158015610f60573d6000803e3d6000fd5b505050506040513d6000823e601f3d908101601f19168201604052610f889190810190613131565b90506001815111610fdb5760405162461bcd60e51b815260206004820152601960248201527f496e733a204745545f414d4f554e545f4f55545f4552524f520000000000000060448201526064016106f3565b670de0b6b3a76400008482600181518110610ff857610ff8613102565b602002602001015161100a91906131d6565b6110149190612eb7565b949350505050565b600083815260656020526040902060010154611037816119e6565b60005b828110156109b4576110728585858481811061105857611058613102565b905060200201602081019061106d9190612ab1565b6119c4565b8061107c81612f02565b91505061103a565b6001600160a01b037f00000000000000000000000000000000000000000000000000000000000000001630036110cc5760405162461bcd60e51b81526004016106f390612f1b565b7f00000000000000000000000000000000000000000000000000000000000000006001600160a01b0316611115600080516020613499833981519152546001600160a01b031690565b6001600160a01b03161461113b5760405162461bcd60e51b81526004016106f390612f67565b61114482611a64565b610c6c82826001611a7c565b6000306001600160a01b037f000000000000000000000000000000000000000000000000000000000000000016146111f05760405162461bcd60e51b815260206004820152603860248201527f555550535570677261646561626c653a206d757374206e6f742062652063616c60448201527f6c6564207468726f7567682064656c656761746563616c6c000000000000000060648201526084016106f3565b5060008051602061349983398151915290565b606060006112108361187c565b90506000816001600160401b0381111561122c5761122c612972565b604051908082528060200260200182016040528015611255578160200160208202803683370190505b50905060005b828110156112a95761126d8582611653565b82828151811061127f5761127f613102565b6001600160a01b0390921660209283029190910190910152806112a181612f02565b91505061125b565b509392505050565b6000838152606560205260409020600101546112cc816119e6565b60005b828110156109b457611307858585848181106112ed576112ed613102565b90506020020160208101906113029190612ab1565b611a42565b8061131181612f02565b9150506112cf565b60008060006113288585611be7565b925092509250600061016260405161134a90636274696160e01b815260040190565b9081526020016040518091039020905060008160020154118015611375575080600201548160040154105b6113ba5760405162461bcd60e51b815260206004820152601660248201527524b7399d1024b739b1b934b83a34b7b71032b93937b960511b60448201526064016106f3565b60028101546113cb856127106131d6565b82600401546113da9190612e7a565b111561141f5760405162461bcd60e51b8152602060048201526014602482015273496e733a20457863656564206d6178206e756d3b60601b60448201526064016106f3565b61142882610e7e565b34101561146b5760405162461bcd60e51b8152602060048201526011602482015270125b9cce881a5b9cdd59999a58da595b9d607a1b60448201526064016106f3565b610163546001600160a01b03166108fc61148484610e7e565b6040518115909202916000818181858888f193505050501580156114ac573d6000803e3d6000fd5b506114b9846127106131d6565b8160040160008282546114cc9190612e7a565b9091555060009050846001600160401b038111156114ec576114ec612972565b60405190808252806020026020018201604052801561151f57816020015b606081526020019060019003908161150a5790505b50905060005b8581101561160e576000336001600160a01b031660006040518060600160405280603c8152602001613500603c91396040516115619190612e48565b60006040518083038185875af1925050503d806000811461159e576040519150601f19603f3d011682016040523d82523d6000602084013e6115a3565b606091505b50509050806115c45760405162461bcd60e51b81526004016106f390612ecb565b6040518060600160405280603c8152602001613500603c91398383815181106115ef576115ef613102565b602002602001018190525050808061160690612f02565b915050611525565b507fe1dc5b2bce14dd8e697b62df2dd1298805c8ea0dbee44c16eecd58a3c5576996338583604051611642939291906131ed565b60405180910390a150505050505050565b600082815260976020526040812061166b9083611f28565b9392505050565b60009182526065602090815260408084206001600160a01b0393909316845291905290205460ff1690565b6000805160206134e08339815191526116b5816119e6565b3031828110156116fc5760405162461bcd60e51b815260206004820152601260248201527111549493d48e925394d551919250d251539560721b60448201526064016106f3565b6040516001600160a01b0385169084156108fc029085906000818181858888f193505050501580156109b4573d6000803e3d6000fd5b80516020818301810180516101628252928201919093012091528054819061175990612fc3565b80601f016020809104026020016040519081016040528092919081815260200182805461178590612fc3565b80156117d25780601f106117a7576101008083540402835291602001916117d2565b820191906000526020600020905b8154815290600101906020018083116117b557829003601f168201915b5050505050908060010180546117e790612fc3565b80601f016020809104026020016040519081016040528092919081815260200182805461181390612fc3565b80156118605780601f1061183557610100808354040283529160200191611860565b820191906000526020600020905b81548152906001019060200180831161184357829003601f168201915b5050505050908060020154908060030154908060040154905085565b600081815260976020526040812061065490611f34565b6000828152606560205260409020600101546118ae816119e6565b610bed8383611a42565b60006001600160a01b0382166118cf575047919050565b6040516370a0823160e01b81523060048201526001600160a01b038316906370a0823190602401602060405180830381865afa158015611913573d6000803e3d6000fd5b505050506040513d601f19601f820116820180604052508101906106549190612e2f565b60006001600160e01b03198216637965db0b60e01b148061065457506301ffc9a760e01b6001600160e01b0319831614610654565b600054610100900460ff166119935760405162461bcd60e51b81526004016106f390613266565b565b600054610100900460ff166119bc5760405162461bcd60e51b81526004016106f390613266565b611993611f3e565b6119ce8282611f6c565b6000828152609760205260409020610bed9082611ff2565b610d4c8133612007565b604080516001600160a01b038416602482015260448082018490528251808303909101815260649091019091526020810180516001600160e01b031663a9059cbb60e01b179052610bed908490612060565b611a4c8282612135565b6000828152609760205260409020610bed908261219c565b6000805160206134e0833981519152610c6c816119e6565b7f4910fdfa16fed3260ed0e7147f7cc6da11a60208b5b9406d12a635614ffd91435460ff1615611aaf57610bed836121b1565b826001600160a01b03166352d1902d6040518163ffffffff1660e01b8152600401602060405180830381865afa925050508015611b09575060408051601f3d908101601f19168201909252611b0691810190612e2f565b60015b611b6c5760405162461bcd60e51b815260206004820152602e60248201527f45524331393637557067726164653a206e657720696d706c656d656e7461746960448201526d6f6e206973206e6f74205555505360901b60648201526084016106f3565b6000805160206134998339815191528114611bdb5760405162461bcd60e51b815260206004820152602960248201527f45524331393637557067726164653a20756e737570706f727465642070726f786044820152681a58589b195555525160ba1b60648201526084016106f3565b50610bed83838361224d565b60008080808080808080808080611c008d8f018f6132b1565b985098509850985098509850985098509850336001600160a01b0316896001600160a01b031614611c675760405162461bcd60e51b815260206004820152601160248201527024b7399d1034b73b30b634b2103ab9b2b960791b60448201526064016106f3565b33600090815261016660205260409020548314611cbb5760405162461bcd60e51b8152602060048201526012602482015271496e733a20696e76616c6964206e6f6e636560701b60448201526064016106f3565b81421115611cfb5760405162461bcd60e51b815260206004820152600d60248201526c125b9cce881d1a5b59481bdd5d609a1b60448201526064016106f3565b6000806000611d0984612278565b925092509250600061016454604051602001611db2907f5065726d6974286164647265737320757365722c737472696e67207469636b2c81527f75696e7432353620616d742c75696e743235362074696d65732c75696e74323560208201527f36206f726465722c75696e743235362070726963652c75696e74323536206e6f6040820152746e63652c75696e7432353620646561646c696e652960581b606082015260750190565b604051602081830303815290604052805190602001208d8d8d8d8d8d8d604051602001611de6989796959493929190613361565b60405160208183030381529060405280519060200120604051602001611e2392919061190160f01b81526002810192909252602282015260420190565b60408051601f1981840301815282825280516020918201206000845290830180835281905260ff8716918301919091526060820185905260808201849052915060019060a0016020604051602081039080840390855afa158015611e8b573d6000803e3d6000fd5b5050604051601f190151610165546001600160a01b039081169116149050611eed5760405162461bcd60e51b815260206004820152601560248201527411549493d48e9253959053125117d49154555154d5605a1b60448201526064016106f3565b33600090815261016660205260408120805491611f0983612f02565b90915550999f50979d50959b5050505050505050505050509250925092565b600061166b83836122ea565b6000610654825490565b600054610100900460ff16611f655760405162461bcd60e51b81526004016106f390613266565b600160c955565b611f768282611672565b610c6c5760008281526065602090815260408083206001600160a01b03851684529091529020805460ff19166001179055611fae3390565b6001600160a01b0316816001600160a01b0316837f2f8788117e7eff1d82e926ec794901d17c78024a50270940304540a733656f0d60405160405180910390a45050565b600061166b836001600160a01b038416612314565b6120118282611672565b610c6c5761201e81612363565b612029836020612375565b60405160200161203a9291906133ae565b60408051601f198184030181529082905262461bcd60e51b82526106f391600401613423565b60006120b5826040518060400160405280602081526020017f5361666545524332303a206c6f772d6c6576656c2063616c6c206661696c6564815250856001600160a01b03166125109092919063ffffffff16565b90508051600014806120d65750808060200190518101906120d69190613436565b610bed5760405162461bcd60e51b815260206004820152602a60248201527f5361666545524332303a204552433230206f7065726174696f6e20646964206e6044820152691bdd081cdd58d8d9595960b21b60648201526084016106f3565b61213f8282611672565b15610c6c5760008281526065602090815260408083206001600160a01b0385168085529252808320805460ff1916905551339285917ff6391f5c32d9c69d2a47ea670b442974b53935d1edc7fd64eb21e047a839171b9190a45050565b600061166b836001600160a01b03841661251f565b6001600160a01b0381163b61221e5760405162461bcd60e51b815260206004820152602d60248201527f455243313936373a206e657720696d706c656d656e746174696f6e206973206e60448201526c1bdd08184818dbdb9d1c9858dd609a1b60648201526084016106f3565b60008051602061349983398151915280546001600160a01b0319166001600160a01b0392909216919091179055565b61225683612612565b6000825111806122635750805b15610bed576122728383612652565b50505050565b600080600083516041146122ce5760405162461bcd60e51b815260206004820152601a60248201527f4e6f7420496e76616c6964205369676e6174757265204461746100000000000060448201526064016106f3565b5050506020810151604082015160609092015160001a92909190565b600082600001828154811061230157612301613102565b9060005260206000200154905092915050565b600081815260018301602052604081205461235b57508154600181810184556000848152602080822090930184905584548482528286019093526040902091909155610654565b506000610654565b60606106546001600160a01b03831660145b606060006123848360026131d6565b61238f906002612e7a565b6001600160401b038111156123a6576123a6612972565b6040519080825280601f01601f1916602001820160405280156123d0576020820181803683370190505b509050600360fc1b816000815181106123eb576123eb613102565b60200101906001600160f81b031916908160001a905350600f60fb1b8160018151811061241a5761241a613102565b60200101906001600160f81b031916908160001a905350600061243e8460026131d6565b612449906001612e7a565b90505b60018111156124c1576f181899199a1a9b1b9c1cb0b131b232b360811b85600f166010811061247d5761247d613102565b1a60f81b82828151811061249357612493613102565b60200101906001600160f81b031916908160001a90535060049490941c936124ba81613458565b905061244c565b50831561166b5760405162461bcd60e51b815260206004820181905260248201527f537472696e67733a20686578206c656e67746820696e73756666696369656e7460448201526064016106f3565b60606110148484600085612677565b6000818152600183016020526040812054801561260857600061254360018361346f565b85549091506000906125579060019061346f565b90508181146125bc57600086600001828154811061257757612577613102565b906000526020600020015490508087600001848154811061259a5761259a613102565b6000918252602080832090910192909255918252600188019052604090208390555b85548690806125cd576125cd613482565b600190038181906000526020600020016000905590558560010160008681526020019081526020016000206000905560019350505050610654565b6000915050610654565b61261b816121b1565b6040516001600160a01b038216907fbc7cd75a20ee27fd9adebab32041f755214dbc6bffa90cc0225b39da2e5c2d3b90600090a250565b606061166b83836040518060600160405280602781526020016134b960279139612752565b6060824710156126d85760405162461bcd60e51b815260206004820152602660248201527f416464726573733a20696e73756666696369656e742062616c616e636520666f6044820152651c8818d85b1b60d21b60648201526084016106f3565b600080866001600160a01b031685876040516126f49190612e48565b60006040518083038185875af1925050503d8060008114612731576040519150601f19603f3d011682016040523d82523d6000602084013e612736565b606091505b5091509150612747878383876127ca565b979650505050505050565b6060600080856001600160a01b03168560405161276f9190612e48565b600060405180830381855af49150503d80600081146127aa576040519150601f19603f3d011682016040523d82523d6000602084013e6127af565b606091505b50915091506127c0868383876127ca565b9695505050505050565b60608315612839578251600003612832576001600160a01b0385163b6128325760405162461bcd60e51b815260206004820152601d60248201527f416464726573733a2063616c6c20746f206e6f6e2d636f6e747261637400000060448201526064016106f3565b5081611014565b611014838381511561284e5781518083602001fd5b8060405162461bcd60e51b81526004016106f39190613423565b60006020828403121561287a57600080fd5b81356001600160e01b03198116811461166b57600080fd5b6001600160a01b0381168114610d4c57600080fd5b600080600080600060a086880312156128bf57600080fd5b85356128ca81612892565b945060208601356128da81612892565b935060408601356128ea81612892565b925060608601356128fa81612892565b9150608086013561290a81612892565b809150509295509295909350565b60008060006060848603121561292d57600080fd5b833561293881612892565b9250602084013561294881612892565b929592945050506040919091013590565b60006020828403121561296b57600080fd5b5035919050565b634e487b7160e01b600052604160045260246000fd5b604051601f8201601f191681016001600160401b03811182821017156129b0576129b0612972565b604052919050565b600082601f8301126129c957600080fd5b81356001600160401b038111156129e2576129e2612972565b6129f5601f8201601f1916602001612988565b818152846020838601011115612a0a57600080fd5b816020850160208301376000918101602001919091529392505050565b600080600060608486031215612a3c57600080fd5b83356001600160401b03811115612a5257600080fd5b612a5e868287016129b8565b935050602084013591506040840135612a7681612892565b809150509250925092565b60008060408385031215612a9457600080fd5b823591506020830135612aa681612892565b809150509250929050565b600060208284031215612ac357600080fd5b813561166b81612892565b60008083601f840112612ae057600080fd5b5081356001600160401b03811115612af757600080fd5b602083019150836020828501011115612b0f57600080fd5b9250929050565b60008060008060008060a08789031215612b2f57600080fd5b86356001600160401b0380821115612b4657600080fd5b612b528a838b01612ace565b90985096506020890135915080821115612b6b57600080fd5b612b778a838b016129b8565b95506040890135915080821115612b8d57600080fd5b50612b9a89828a016129b8565b93505060608701359150608087013590509295509295509295565b600080600060408486031215612bca57600080fd5b8335925060208401356001600160401b0380821115612be857600080fd5b818601915086601f830112612bfc57600080fd5b813581811115612c0b57600080fd5b8760208260051b8501011115612c2057600080fd5b6020830194508093505050509250925092565b60008060408385031215612c4657600080fd5b8235612c5181612892565b915060208301356001600160401b03811115612c6c57600080fd5b612c78858286016129b8565b9150509250929050565b600081518084526020808501945080840160005b83811015612cbb5781516001600160a01b031687529582019590820190600101612c96565b509495945050505050565b60208152600061166b6020830184612c82565b60008060208385031215612cec57600080fd5b82356001600160401b03811115612d0257600080fd5b612d0e85828601612ace565b90969095509350505050565b60008060408385031215612d2d57600080fd5b50508035926020909101359150565b60008060408385031215612d4f57600080fd5b8235612d5a81612892565b946020939093013593505050565b600060208284031215612d7a57600080fd5b81356001600160401b03811115612d9057600080fd5b611014848285016129b8565b60005b83811015612db7578181015183820152602001612d9f565b50506000910152565b60008151808452612dd8816020860160208601612d9c565b601f01601f19169290920160200192915050565b60a081526000612dff60a0830188612dc0565b8281036020840152612e118188612dc0565b60408401969096525050606081019290925260809091015292915050565b600060208284031215612e4157600080fd5b5051919050565b60008251612e5a818460208701612d9c565b9190910192915050565b634e487b7160e01b600052601160045260246000fd5b8082018082111561065457610654612e64565b634e487b7160e01b600052601260045260246000fd5b600082612eb257612eb2612e8d565b500690565b600082612ec657612ec6612e8d565b500490565b60208082526019908201527f496e733a2045787465726e616c2063616c6c206661696c656400000000000000604082015260600190565b600060018201612f1457612f14612e64565b5060010190565b6020808252602c908201527f46756e6374696f6e206d7573742062652063616c6c6564207468726f7567682060408201526b19195b1959d85d1958d85b1b60a21b606082015260800190565b6020808252602c908201527f46756e6374696f6e206d7573742062652063616c6c6564207468726f7567682060408201526b6163746976652070726f787960a01b606082015260800190565b8183823760009101908152919050565b600181811c90821680612fd757607f821691505b602082108103612ff757634e487b7160e01b600052602260045260246000fd5b50919050565b601f821115610bed57600081815260208120601f850160051c810160208610156130245750805b601f850160051c820191505b818110156108ce57828155600101613030565b81516001600160401b0381111561305c5761305c612972565b6130708161306a8454612fc3565b84612ffd565b602080601f8311600181146130a5576000841561308d5750858301515b600019600386901b1c1916600185901b1785556108ce565b600085815260208120601f198616915b828110156130d4578886015182559484019460019091019084016130b5565b50858210156130f25787850151600019600388901b60f8161c191681555b5050505050600190811b01905550565b634e487b7160e01b600052603260045260246000fd5b8281526040602082015260006110146040830184612c82565b6000602080838503121561314457600080fd5b82516001600160401b038082111561315b57600080fd5b818501915085601f83011261316f57600080fd5b81518181111561318157613181612972565b8060051b9150613192848301612988565b81815291830184019184810190888411156131ac57600080fd5b938501935b838510156131ca578451825293850193908501906131b1565b98975050505050505050565b808202811582820484141761065457610654612e64565b60006060820160018060a01b0386168352602085818501526060604085015281855180845260808601915060808160051b870101935082870160005b8281101561325757607f19888703018452613245868351612dc0565b95509284019290840190600101613229565b50939998505050505050505050565b6020808252602b908201527f496e697469616c697a61626c653a20636f6e7472616374206973206e6f74206960408201526a6e697469616c697a696e6760a81b606082015260800190565b60008060008060008060008060006101208a8c0312156132d057600080fd5b89356132db81612892565b985060208a01356001600160401b03808211156132f757600080fd5b6133038d838e016129b8565b995060408c0135985060608c0135975060808c0135965060a08c0135955060c08c0135945060e08c013593506101008c013591508082111561334457600080fd5b506133518c828d016129b8565b9150509295985092959850929598565b60006101008a835280602084015261337b8184018b612dc0565b604084019990995250506060810195909552608085019390935260a084019190915260c083015260e09091015292915050565b7f416363657373436f6e74726f6c3a206163636f756e74200000000000000000008152600083516133e6816017850160208801612d9c565b7001034b99036b4b9b9b4b733903937b6329607d1b6017918401918201528351613417816028840160208801612d9c565b01602801949350505050565b60208152600061166b6020830184612dc0565b60006020828403121561344857600080fd5b8151801515811461166b57600080fd5b60008161346757613467612e64565b506000190190565b8181038181111561065457610654612e64565b634e487b7160e01b600052603160045260246000fdfe360894a13ba1a3210667c828492db98dca3e2076cc3735a920a3ca505d382bbc416464726573733a206c6f772d6c6576656c2064656c65676174652063616c6c206661696c6564a076a07f65bcd51bcb15a0f01a65bc18f2d922acb81bcfd8af4caf5adb557091646174613a2c7b2270223a226273632d3230222c226f70223a226d696e74222c227469636b223a2262746961222c22616d74223a223130303030227da26469706673582212201c26395ffde676ff26e70a3bbda0ce7dacb8b12a55f12f75697000f00373297064736f6c63430008110033",
  "linkReferences": {},
  "deployedLinkReferences": {}
}