{
  "_format": "hh-sol-artifact-1",
  "contractName": "InsSwap",
  "sourceName": "contracts/InsSwap.sol",
  "abi": [
    {
      "inputs": [],
      "stateMutability": "nonpayable",
      "type": "constructor"
    },
    {
      "anonymous": false,
      "inputs": [
        {
          "indexed": false,
          "internalType": "address",
          "name": "previousAdmin",
          "type": "address"
        },
        {
          "indexed": false,
          "internalType": "address",
          "name": "newAdmin",
          "type": "address"
        }
      ],
      "name": "AdminChanged",
      "type": "event"
    },
    {
      "anonymous": false,
      "inputs": [
        {
          "indexed": true,
          "internalType": "address",
          "name": "beacon",
          "type": "address"
        }
      ],
      "name": "BeaconUpgraded",
      "type": "event"
    },
    {
      "anonymous": false,
      "inputs": [
        {
          "indexed": false,
          "internalType": "uint8",
          "name": "version",
          "type": "uint8"
        }
      ],
      "name": "Initialized",
      "type": "event"
    },
    {
      "anonymous": false,
      "inputs": [
        {
          "indexed": true,
          "internalType": "bytes32",
          "name": "role",
          "type": "bytes32"
        },
        {
          "indexed": true,
          "internalType": "bytes32",
          "name": "previousAdminRole",
          "type": "bytes32"
        },
        {
          "indexed": true,
          "internalType": "bytes32",
          "name": "newAdminRole",
          "type": "bytes32"
        }
      ],
      "name": "RoleAdminChanged",
      "type": "event"
    },
    {
      "anonymous": false,
      "inputs": [
        {
          "indexed": true,
          "internalType": "bytes32",
          "name": "role",
          "type": "bytes32"
        },
        {
          "indexed": true,
          "internalType": "address",
          "name": "account",
          "type": "address"
        },
        {
          "indexed": true,
          "internalType": "address",
          "name": "sender",
          "type": "address"
        }
      ],
      "name": "RoleGranted",
      "type": "event"
    },
    {
      "anonymous": false,
      "inputs": [
        {
          "indexed": true,
          "internalType": "bytes32",
          "name": "role",
          "type": "bytes32"
        },
        {
          "indexed": true,
          "internalType": "address",
          "name": "account",
          "type": "address"
        },
        {
          "indexed": true,
          "internalType": "address",
          "name": "sender",
          "type": "address"
        }
      ],
      "name": "RoleRevoked",
      "type": "event"
    },
    {
      "anonymous": false,
      "inputs": [
        {
          "indexed": false,
          "internalType": "address",
          "name": "buyer",
          "type": "address"
        },
        {
          "indexed": false,
          "internalType": "address",
          "name": "seller",
          "type": "address"
        },
        {
          "indexed": false,
          "internalType": "uint256",
          "name": "price",
          "type": "uint256"
        },
        {
          "indexed": false,
          "internalType": "uint256",
          "name": "inOrOut",
          "type": "uint256"
        },
        {
          "indexed": false,
          "internalType": "uint256",
          "name": "order",
          "type": "uint256"
        }
      ],
      "name": "Swap",
      "type": "event"
    },
    {
      "anonymous": false,
      "inputs": [
        {
          "indexed": true,
          "internalType": "address",
          "name": "implementation",
          "type": "address"
        }
      ],
      "name": "Upgraded",
      "type": "event"
    },
    {
      "inputs": [],
      "name": "DEFAULT_ADMIN_ROLE",
      "outputs": [
        {
          "internalType": "bytes32",
          "name": "",
          "type": "bytes32"
        }
      ],
      "stateMutability": "view",
      "type": "function"
    },
    {
      "inputs": [],
      "name": "DOMAIN_SEPARATOR",
      "outputs": [
        {
          "internalType": "bytes32",
          "name": "",
          "type": "bytes32"
        }
      ],
      "stateMutability": "view",
      "type": "function"
    },
    {
      "inputs": [],
      "name": "MANAGE_ROLE",
      "outputs": [
        {
          "internalType": "bytes32",
          "name": "",
          "type": "bytes32"
        }
      ],
      "stateMutability": "view",
      "type": "function"
    },
    {
      "inputs": [
        {
          "internalType": "address",
          "name": "token",
          "type": "address"
        }
      ],
      "name": "balance",
      "outputs": [
        {
          "internalType": "uint256",
          "name": "",
          "type": "uint256"
        }
      ],
      "stateMutability": "view",
      "type": "function"
    },
    {
      "inputs": [
        {
          "internalType": "bytes32",
          "name": "role",
          "type": "bytes32"
        },
        {
          "internalType": "address[]",
          "name": "accounts",
          "type": "address[]"
        }
      ],
      "name": "batchGrantRole",
      "outputs": [],
      "stateMutability": "nonpayable",
      "type": "function"
    },
    {
      "inputs": [
        {
          "internalType": "bytes32",
          "name": "role",
          "type": "bytes32"
        },
        {
          "internalType": "address[]",
          "name": "accounts",
          "type": "address[]"
        }
      ],
      "name": "batchRevokeRole",
      "outputs": [],
      "stateMutability": "nonpayable",
      "type": "function"
    },
    {
      "inputs": [
        {
          "internalType": "bytes32",
          "name": "role",
          "type": "bytes32"
        }
      ],
      "name": "getRoleAdmin",
      "outputs": [
        {
          "internalType": "bytes32",
          "name": "",
          "type": "bytes32"
        }
      ],
      "stateMutability": "view",
      "type": "function"
    },
    {
      "inputs": [
        {
          "internalType": "bytes32",
          "name": "role",
          "type": "bytes32"
        },
        {
          "internalType": "uint256",
          "name": "index",
          "type": "uint256"
        }
      ],
      "name": "getRoleMember",
      "outputs": [
        {
          "internalType": "address",
          "name": "",
          "type": "address"
        }
      ],
      "stateMutability": "view",
      "type": "function"
    },
    {
      "inputs": [
        {
          "internalType": "bytes32",
          "name": "role",
          "type": "bytes32"
        }
      ],
      "name": "getRoleMemberCount",
      "outputs": [
        {
          "internalType": "uint256",
          "name": "",
          "type": "uint256"
        }
      ],
      "stateMutability": "view",
      "type": "function"
    },
    {
      "inputs": [
        {
          "internalType": "bytes32",
          "name": "role",
          "type": "bytes32"
        },
        {
          "internalType": "address",
          "name": "account",
          "type": "address"
        }
      ],
      "name": "grantRole",
      "outputs": [],
      "stateMutability": "nonpayable",
      "type": "function"
    },
    {
      "inputs": [
        {
          "internalType": "bytes32",
          "name": "role",
          "type": "bytes32"
        },
        {
          "internalType": "address",
          "name": "account",
          "type": "address"
        }
      ],
      "name": "hasRole",
      "outputs": [
        {
          "internalType": "bool",
          "name": "",
          "type": "bool"
        }
      ],
      "stateMutability": "view",
      "type": "function"
    },
    {
      "inputs": [
        {
          "internalType": "address",
          "name": "_signer",
          "type": "address"
        }
      ],
      "name": "initialize",
      "outputs": [],
      "stateMutability": "nonpayable",
      "type": "function"
    },
    {
      "inputs": [
        {
          "internalType": "address",
          "name": "",
          "type": "address"
        }
      ],
      "name": "nonces",
      "outputs": [
        {
          "internalType": "uint256",
          "name": "",
          "type": "uint256"
        }
      ],
      "stateMutability": "view",
      "type": "function"
    },
    {
      "inputs": [],
      "name": "proxiableUUID",
      "outputs": [
        {
          "internalType": "bytes32",
          "name": "",
          "type": "bytes32"
        }
      ],
      "stateMutability": "view",
      "type": "function"
    },
    {
      "inputs": [
        {
          "internalType": "bytes32",
          "name": "role",
          "type": "bytes32"
        }
      ],
      "name": "queryRoles",
      "outputs": [
        {
          "internalType": "address[]",
          "name": "",
          "type": "address[]"
        }
      ],
      "stateMutability": "view",
      "type": "function"
    },
    {
      "inputs": [
        {
          "internalType": "bytes32",
          "name": "role",
          "type": "bytes32"
        },
        {
          "internalType": "address",
          "name": "account",
          "type": "address"
        }
      ],
      "name": "renounceRole",
      "outputs": [],
      "stateMutability": "nonpayable",
      "type": "function"
    },
    {
      "inputs": [
        {
          "internalType": "bytes32",
          "name": "role",
          "type": "bytes32"
        },
        {
          "internalType": "address",
          "name": "account",
          "type": "address"
        }
      ],
      "name": "revokeRole",
      "outputs": [],
      "stateMutability": "nonpayable",
      "type": "function"
    },
    {
      "inputs": [],
      "name": "signer",
      "outputs": [
        {
          "internalType": "address",
          "name": "",
          "type": "address"
        }
      ],
      "stateMutability": "view",
      "type": "function"
    },
    {
      "inputs": [
        {
          "internalType": "bytes4",
          "name": "interfaceId",
          "type": "bytes4"
        }
      ],
      "name": "supportsInterface",
      "outputs": [
        {
          "internalType": "bool",
          "name": "",
          "type": "bool"
        }
      ],
      "stateMutability": "view",
      "type": "function"
    },
    {
      "inputs": [
        {
          "internalType": "bytes",
          "name": "data",
          "type": "bytes"
        }
      ],
      "name": "swap",
      "outputs": [],
      "stateMutability": "payable",
      "type": "function"
    },
    {
      "inputs": [
        {
          "internalType": "address",
          "name": "newImplementation",
          "type": "address"
        }
      ],
      "name": "upgradeTo",
      "outputs": [],
      "stateMutability": "nonpayable",
      "type": "function"
    },
    {
      "inputs": [
        {
          "internalType": "address",
          "name": "newImplementation",
          "type": "address"
        },
        {
          "internalType": "bytes",
          "name": "data",
          "type": "bytes"
        }
      ],
      "name": "upgradeToAndCall",
      "outputs": [],
      "stateMutability": "payable",
      "type": "function"
    },
    {
      "inputs": [
        {
          "internalType": "address",
          "name": "to",
          "type": "address"
        },
        {
          "internalType": "uint256",
          "name": "amount",
          "type": "uint256"
        }
      ],
      "name": "withdrawBNB",
      "outputs": [],
      "stateMutability": "nonpayable",
      "type": "function"
    },
    {
      "inputs": [
        {
          "internalType": "address",
          "name": "token",
          "type": "address"
        },
        {
          "internalType": "address",
          "name": "to",
          "type": "address"
        },
        {
          "internalType": "uint256",
          "name": "amount",
          "type": "uint256"
        }
      ],
      "name": "withdrawErc20",
      "outputs": [],
      "stateMutability": "nonpayable",
      "type": "function"
    },
    {
      "stateMutability": "payable",
      "type": "receive"
    }
  ],
  "bytecode": "0x60a0604052306080523480156200001557600080fd5b506200002062000026565b620000e7565b600054610100900460ff1615620000935760405162461bcd60e51b815260206004820152602760248201527f496e697469616c697a61626c653a20636f6e747261637420697320696e697469604482015266616c697a696e6760c81b606482015260840160405180910390fd5b60005460ff90811614620000e5576000805460ff191660ff9081179091556040519081527f7f26b83ff96e1f2b6a682f133852f6798a09c465da95921460cefb38474024989060200160405180910390a15b565b6080516125df6200011f60003960008181610654015281816106940152818161079b015281816107db015261086a01526125df6000f3fe60806040526004361061014f5760003560e01c8063620bb3ca116100b6578063a217fddf1161006f578063a217fddf146103d8578063a97af1f2146103ed578063c4d66de81461040d578063ca15c8731461042d578063d547741f1461044d578063e3d670d71461046d57600080fd5b8063620bb3ca1461030a578063627dd56a146103375780636f39feec1461034a5780637ecebe001461036a5780639010d07c1461039857806391d14854146103b857600080fd5b806336568abe1161010857806336568abe146102605780633659cfe61461028057806346b5cb59146102a05780634f1ef286146102c057806352d1902d146102d357806360a4b76a146102e857600080fd5b806301ffc9a71461015b5780631593dee114610190578063238ac933146101b2578063248a9ca3146101eb5780632f2ff15d146102295780633644e5151461024957600080fd5b3661015657005b600080fd5b34801561016757600080fd5b5061017b610176366004611e82565b61048d565b60405190151581526020015b60405180910390f35b34801561019c57600080fd5b506101b06101ab366004611ec1565b6104b8565b005b3480156101be57600080fd5b50610160546101d3906001600160a01b031681565b6040516001600160a01b039091168152602001610187565b3480156101f757600080fd5b5061021b610206366004611f02565b60009081526065602052604090206001015490565b604051908152602001610187565b34801561023557600080fd5b506101b0610244366004611f1b565b6105a2565b34801561025557600080fd5b5061021b61015f5481565b34801561026c57600080fd5b506101b061027b366004611f1b565b6105cc565b34801561028c57600080fd5b506101b061029b366004611f4b565b61064a565b3480156102ac57600080fd5b506101b06102bb366004611f68565b610729565b6101b06102ce36600461208a565b610791565b3480156102df57600080fd5b5061021b61085d565b3480156102f457600080fd5b5061021b60008051602061258a83398151915281565b34801561031657600080fd5b5061032a610325366004611f02565b610910565b60405161018791906120da565b6101b0610345366004612127565b6109bf565b34801561035657600080fd5b506101b0610365366004611f68565b610e0f565b34801561037657600080fd5b5061021b610385366004611f4b565b6101616020526000908152604090205481565b3480156103a457600080fd5b506101d36103b3366004612199565b610e77565b3480156103c457600080fd5b5061017b6103d3366004611f1b565b610e96565b3480156103e457600080fd5b5061021b600081565b3480156103f957600080fd5b506101b06104083660046121bb565b610ec1565b34801561041957600080fd5b506101b0610428366004611f4b565b610f56565b34801561043957600080fd5b5061021b610448366004611f02565b611185565b34801561045957600080fd5b506101b0610468366004611f1b565b61119c565b34801561047957600080fd5b5061021b610488366004611f4b565b6111c1565b60006001600160e01b03198216635a05180f60e01b14806104b257506104b282611240565b92915050565b60008051602061258a8339815191526104d081611275565b6040516370a0823160e01b81523060048201526000906001600160a01b038616906370a0823190602401602060405180830381865afa158015610517573d6000803e3d6000fd5b505050506040513d601f19601f8201168201806040525081019061053b91906121e7565b9050828110156105875760405162461bcd60e51b815260206004820152601260248201527111549493d48e925394d551919250d251539560721b60448201526064015b60405180910390fd5b61059b6001600160a01b038616858561127f565b5050505050565b6000828152606560205260409020600101546105bd81611275565b6105c783836112e2565b505050565b6001600160a01b038116331461063c5760405162461bcd60e51b815260206004820152602f60248201527f416363657373436f6e74726f6c3a2063616e206f6e6c792072656e6f756e636560448201526e103937b632b9903337b91039b2b63360891b606482015260840161057e565b6106468282611304565b5050565b6001600160a01b037f00000000000000000000000000000000000000000000000000000000000000001630036106925760405162461bcd60e51b815260040161057e90612200565b7f00000000000000000000000000000000000000000000000000000000000000006001600160a01b03166106db600080516020612543833981519152546001600160a01b031690565b6001600160a01b0316146107015760405162461bcd60e51b815260040161057e9061224c565b61070a81611326565b604080516000808252602082019092526107269183919061133e565b50565b60008381526065602052604090206001015461074481611275565b60005b8281101561059b5761077f8585858481811061076557610765612298565b905060200201602081019061077a9190611f4b565b6112e2565b80610789816122c4565b915050610747565b6001600160a01b037f00000000000000000000000000000000000000000000000000000000000000001630036107d95760405162461bcd60e51b815260040161057e90612200565b7f00000000000000000000000000000000000000000000000000000000000000006001600160a01b0316610822600080516020612543833981519152546001600160a01b031690565b6001600160a01b0316146108485760405162461bcd60e51b815260040161057e9061224c565b61085182611326565b6106468282600161133e565b6000306001600160a01b037f000000000000000000000000000000000000000000000000000000000000000016146108fd5760405162461bcd60e51b815260206004820152603860248201527f555550535570677261646561626c653a206d757374206e6f742062652063616c60448201527f6c6564207468726f7567682064656c656761746563616c6c0000000000000000606482015260840161057e565b5060008051602061254383398151915290565b6060600061091d83611185565b905060008167ffffffffffffffff81111561093a5761093a611fe7565b604051908082528060200260200182016040528015610963578160200160208202803683370190505b50905060005b828110156109b75761097b8582610e77565b82828151811061098d5761098d612298565b6001600160a01b0390921660209283029190910190910152806109af816122c4565b915050610969565b509392505050565b600080808080808080806109d58a8c018c6122dd565b985098509850985098509850985098509850336001600160a01b0316896001600160a01b031614610a485760405162461bcd60e51b815260206004820152601760248201527f496e734d61726b65743a20696e76616c69642075736572000000000000000000604482015260640161057e565b33600090815261016160205260409020548314610aa75760405162461bcd60e51b815260206004820152601860248201527f496e734d61726b65743a20696e76616c6964206e6f6e63650000000000000000604482015260640161057e565b81421115610aed5760405162461bcd60e51b8152602060048201526013602482015272125b9cd3585c9ad95d0e881d1a5b59481bdd5d606a1b604482015260640161057e565b6000806000610afb846114a9565b925092509250600061015f54604051602001610bac907f5065726d6974286164647265737320757365722c6164647265737320746f6b6581527f6e2c75696e7432353620696e4f724f75742c75696e743235362070726963652c60208201527f616464726573732072656365697665722c75696e74323536206f726465722c7560408201527f696e74323536206e6f6e63652c75696e7432353620646561646c696e652900006060820152607e0190565b604051602081830303815290604052805190602001208e8e8e8e8e8e8e8e604051602001610c2d999897969594939291909889526001600160a01b0397881660208a015295871660408901526060880194909452608087019290925290931660a085015260c084019290925260e08301919091526101008201526101200190565b60405160208183030381529060405280519060200120604051602001610c6a92919061190160f01b81526002810192909252602282015260420190565b60408051601f1981840301815282825280516020918201206000845290830180835281905260ff8716918301919091526060820185905260808201849052915060019060a0016020604051602081039080840390855afa158015610cd2573d6000803e3d6000fd5b5050604051601f190151610160546001600160a01b039081169116149050610d3c5760405162461bcd60e51b815260206004820152601a60248201527f496e734d61726b65743a20494e56414c49445f52455155455354000000000000604482015260640161057e565b33600090815261016160205260408120805491610d58836122c4565b91905055508a600003610d7f57610d7a6001600160a01b038d1633308d61151b565b610d93565b610d936001600160a01b038d16338c61127f565b7f9734819749a91fc3be03ea83205f924ee08479bd3f0da48efc91d94d050cac1e8d8a8c8e8c604051610df69594939291906001600160a01b03958616815293909416602084015260408301919091526060820152608081019190915260a00190565b60405180910390a1505050505050505050505050505050565b600083815260656020526040902060010154610e2a81611275565b60005b8281101561059b57610e6585858584818110610e4b57610e4b612298565b9050602002016020810190610e609190611f4b565b611304565b80610e6f816122c4565b915050610e2d565b6000828152609760205260408120610e8f9083611559565b9392505050565b60009182526065602090815260408084206001600160a01b0393909316845291905290205460ff1690565b60008051602061258a833981519152610ed981611275565b303182811015610f205760405162461bcd60e51b815260206004820152601260248201527111549493d48e925394d551919250d251539560721b604482015260640161057e565b6040516001600160a01b0385169084156108fc029085906000818181858888f1935050505015801561059b573d6000803e3d6000fd5b600054610100900460ff1615808015610f765750600054600160ff909116105b80610f905750303b158015610f90575060005460ff166001145b610ff35760405162461bcd60e51b815260206004820152602e60248201527f496e697469616c697a61626c653a20636f6e747261637420697320616c72656160448201526d191e481a5b9a5d1a585b1a5e995960921b606482015260840161057e565b6000805460ff191660011790558015611016576000805461ff0019166101001790555b61101e611565565b61102661158e565b61102e611565565b6110396000336112e2565b61105160008051602061258a833981519152336112e2565b61016080546001600160a01b0319166001600160a01b03841617905560408051808201825260078152660496e73537761760cc1b6020918201528151808301835260018152603160f81b9082015281517f8b73c3c69bb8fe3d512ecc4cf759cc79239f7b179b0ffacaa9a75d522b39400f818301527fc1c2b8d8a02b580348a758d68f7e5c24b175310b805cd6a7f5a8d8034e7d92fc818401527fc89efdaa54c0f20c7adf612882df0950f5a951637e0307cdcb4c672f298b8bc660608201524660808201523060a0808301919091528351808303909101815260c0909101909252815191012061015f558015610646576000805461ff0019169055604051600181527f7f26b83ff96e1f2b6a682f133852f6798a09c465da95921460cefb38474024989060200160405180910390a15050565b60008181526097602052604081206104b2906115bd565b6000828152606560205260409020600101546111b781611275565b6105c78383611304565b60006001600160a01b0382166111d8575047919050565b6040516370a0823160e01b81523060048201526001600160a01b038316906370a0823190602401602060405180830381865afa15801561121c573d6000803e3d6000fd5b505050506040513d601f19601f820116820180604052508101906104b291906121e7565b60006001600160e01b03198216637965db0b60e01b14806104b257506301ffc9a760e01b6001600160e01b03198316146104b2565b61072681336115c7565b6040516001600160a01b0383166024820152604481018290526105c790849063a9059cbb60e01b906064015b60408051601f198184030181529190526020810180516001600160e01b03166001600160e01b031990931692909217909152611620565b6112ec82826116f5565b60008281526097602052604090206105c7908261177b565b61130e8282611790565b60008281526097602052604090206105c790826117f7565b60008051602061258a83398151915261064681611275565b7f4910fdfa16fed3260ed0e7147f7cc6da11a60208b5b9406d12a635614ffd91435460ff1615611371576105c78361180c565b826001600160a01b03166352d1902d6040518163ffffffff1660e01b8152600401602060405180830381865afa9250505080156113cb575060408051601f3d908101601f191682019092526113c8918101906121e7565b60015b61142e5760405162461bcd60e51b815260206004820152602e60248201527f45524331393637557067726164653a206e657720696d706c656d656e7461746960448201526d6f6e206973206e6f74205555505360901b606482015260840161057e565b600080516020612543833981519152811461149d5760405162461bcd60e51b815260206004820152602960248201527f45524331393637557067726164653a20756e737570706f727465642070726f786044820152681a58589b195555525160ba1b606482015260840161057e565b506105c78383836118a8565b600080600083516041146114ff5760405162461bcd60e51b815260206004820152601a60248201527f4e6f7420496e76616c6964205369676e61747572652044617461000000000000604482015260640161057e565b5050506020810151604082015160609092015160001a92909190565b6040516001600160a01b03808516602483015283166044820152606481018290526115539085906323b872dd60e01b906084016112ab565b50505050565b6000610e8f83836118cd565b600054610100900460ff1661158c5760405162461bcd60e51b815260040161057e90612383565b565b600054610100900460ff166115b55760405162461bcd60e51b815260040161057e90612383565b61158c6118f7565b60006104b2825490565b6115d18282610e96565b610646576115de81611925565b6115e9836020611937565b6040516020016115fa9291906123f2565b60408051601f198184030181529082905262461bcd60e51b825261057e91600401612467565b6000611675826040518060400160405280602081526020017f5361666545524332303a206c6f772d6c6576656c2063616c6c206661696c6564815250856001600160a01b0316611ad39092919063ffffffff16565b9050805160001480611696575080806020019051810190611696919061249a565b6105c75760405162461bcd60e51b815260206004820152602a60248201527f5361666545524332303a204552433230206f7065726174696f6e20646964206e6044820152691bdd081cdd58d8d9595960b21b606482015260840161057e565b6116ff8282610e96565b6106465760008281526065602090815260408083206001600160a01b03851684529091529020805460ff191660011790556117373390565b6001600160a01b0316816001600160a01b0316837f2f8788117e7eff1d82e926ec794901d17c78024a50270940304540a733656f0d60405160405180910390a45050565b6000610e8f836001600160a01b038416611aea565b61179a8282610e96565b156106465760008281526065602090815260408083206001600160a01b0385168085529252808320805460ff1916905551339285917ff6391f5c32d9c69d2a47ea670b442974b53935d1edc7fd64eb21e047a839171b9190a45050565b6000610e8f836001600160a01b038416611b39565b6001600160a01b0381163b6118795760405162461bcd60e51b815260206004820152602d60248201527f455243313936373a206e657720696d706c656d656e746174696f6e206973206e60448201526c1bdd08184818dbdb9d1c9858dd609a1b606482015260840161057e565b60008051602061254383398151915280546001600160a01b0319166001600160a01b0392909216919091179055565b6118b183611c2c565b6000825111806118be5750805b156105c7576115538383611c6c565b60008260000182815481106118e4576118e4612298565b9060005260206000200154905092915050565b600054610100900460ff1661191e5760405162461bcd60e51b815260040161057e90612383565b600160c955565b60606104b26001600160a01b03831660145b606060006119468360026124bc565b6119519060026124d3565b67ffffffffffffffff81111561196957611969611fe7565b6040519080825280601f01601f191660200182016040528015611993576020820181803683370190505b509050600360fc1b816000815181106119ae576119ae612298565b60200101906001600160f81b031916908160001a905350600f60fb1b816001815181106119dd576119dd612298565b60200101906001600160f81b031916908160001a9053506000611a018460026124bc565b611a0c9060016124d3565b90505b6001811115611a84576f181899199a1a9b1b9c1cb0b131b232b360811b85600f1660108110611a4057611a40612298565b1a60f81b828281518110611a5657611a56612298565b60200101906001600160f81b031916908160001a90535060049490941c93611a7d816124e6565b9050611a0f565b508315610e8f5760405162461bcd60e51b815260206004820181905260248201527f537472696e67733a20686578206c656e67746820696e73756666696369656e74604482015260640161057e565b6060611ae28484600085611c91565b949350505050565b6000818152600183016020526040812054611b31575081546001818101845560008481526020808220909301849055845484825282860190935260409020919091556104b2565b5060006104b2565b60008181526001830160205260408120548015611c22576000611b5d6001836124fd565b8554909150600090611b71906001906124fd565b9050818114611bd6576000866000018281548110611b9157611b91612298565b9060005260206000200154905080876000018481548110611bb457611bb4612298565b6000918252602080832090910192909255918252600188019052604090208390555b8554869080611be757611be7612510565b6001900381819060005260206000200160009055905585600101600086815260200190815260200160002060009055600193505050506104b2565b60009150506104b2565b611c358161180c565b6040516001600160a01b038216907fbc7cd75a20ee27fd9adebab32041f755214dbc6bffa90cc0225b39da2e5c2d3b90600090a250565b6060610e8f838360405180606001604052806027815260200161256360279139611d6c565b606082471015611cf25760405162461bcd60e51b815260206004820152602660248201527f416464726573733a20696e73756666696369656e742062616c616e636520666f6044820152651c8818d85b1b60d21b606482015260840161057e565b600080866001600160a01b03168587604051611d0e9190612526565b60006040518083038185875af1925050503d8060008114611d4b576040519150601f19603f3d011682016040523d82523d6000602084013e611d50565b606091505b5091509150611d6187838387611de4565b979650505050505050565b6060600080856001600160a01b031685604051611d899190612526565b600060405180830381855af49150503d8060008114611dc4576040519150601f19603f3d011682016040523d82523d6000602084013e611dc9565b606091505b5091509150611dda86838387611de4565b9695505050505050565b60608315611e53578251600003611e4c576001600160a01b0385163b611e4c5760405162461bcd60e51b815260206004820152601d60248201527f416464726573733a2063616c6c20746f206e6f6e2d636f6e7472616374000000604482015260640161057e565b5081611ae2565b611ae28383815115611e685781518083602001fd5b8060405162461bcd60e51b815260040161057e9190612467565b600060208284031215611e9457600080fd5b81356001600160e01b031981168114610e8f57600080fd5b6001600160a01b038116811461072657600080fd5b600080600060608486031215611ed657600080fd5b8335611ee181611eac565b92506020840135611ef181611eac565b929592945050506040919091013590565b600060208284031215611f1457600080fd5b5035919050565b60008060408385031215611f2e57600080fd5b823591506020830135611f4081611eac565b809150509250929050565b600060208284031215611f5d57600080fd5b8135610e8f81611eac565b600080600060408486031215611f7d57600080fd5b83359250602084013567ffffffffffffffff80821115611f9c57600080fd5b818601915086601f830112611fb057600080fd5b813581811115611fbf57600080fd5b8760208260051b8501011115611fd457600080fd5b6020830194508093505050509250925092565b634e487b7160e01b600052604160045260246000fd5b600082601f83011261200e57600080fd5b813567ffffffffffffffff8082111561202957612029611fe7565b604051601f8301601f19908116603f0116810190828211818310171561205157612051611fe7565b8160405283815286602085880101111561206a57600080fd5b836020870160208301376000602085830101528094505050505092915050565b6000806040838503121561209d57600080fd5b82356120a881611eac565b9150602083013567ffffffffffffffff8111156120c457600080fd5b6120d085828601611ffd565b9150509250929050565b6020808252825182820181905260009190848201906040850190845b8181101561211b5783516001600160a01b0316835292840192918401916001016120f6565b50909695505050505050565b6000806020838503121561213a57600080fd5b823567ffffffffffffffff8082111561215257600080fd5b818501915085601f83011261216657600080fd5b81358181111561217557600080fd5b86602082850101111561218757600080fd5b60209290920196919550909350505050565b600080604083850312156121ac57600080fd5b50508035926020909101359150565b600080604083850312156121ce57600080fd5b82356121d981611eac565b946020939093013593505050565b6000602082840312156121f957600080fd5b5051919050565b6020808252602c908201527f46756e6374696f6e206d7573742062652063616c6c6564207468726f7567682060408201526b19195b1959d85d1958d85b1b60a21b606082015260800190565b6020808252602c908201527f46756e6374696f6e206d7573742062652063616c6c6564207468726f7567682060408201526b6163746976652070726f787960a01b606082015260800190565b634e487b7160e01b600052603260045260246000fd5b634e487b7160e01b600052601160045260246000fd5b6000600182016122d6576122d66122ae565b5060010190565b60008060008060008060008060006101208a8c0312156122fc57600080fd5b893561230781611eac565b985060208a013561231781611eac565b975060408a0135965060608a0135955060808a013561233581611eac565b945060a08a0135935060c08a0135925060e08a013591506101008a013567ffffffffffffffff81111561236757600080fd5b6123738c828d01611ffd565b9150509295985092959850929598565b6020808252602b908201527f496e697469616c697a61626c653a20636f6e7472616374206973206e6f74206960408201526a6e697469616c697a696e6760a81b606082015260800190565b60005b838110156123e95781810151838201526020016123d1565b50506000910152565b7f416363657373436f6e74726f6c3a206163636f756e742000000000000000000081526000835161242a8160178501602088016123ce565b7001034b99036b4b9b9b4b733903937b6329607d1b601791840191820152835161245b8160288401602088016123ce565b01602801949350505050565b60208152600082518060208401526124868160408501602087016123ce565b601f01601f19169190910160400192915050565b6000602082840312156124ac57600080fd5b81518015158114610e8f57600080fd5b80820281158282048414176104b2576104b26122ae565b808201808211156104b2576104b26122ae565b6000816124f5576124f56122ae565b506000190190565b818103818111156104b2576104b26122ae565b634e487b7160e01b600052603160045260246000fd5b600082516125388184602087016123ce565b919091019291505056fe360894a13ba1a3210667c828492db98dca3e2076cc3735a920a3ca505d382bbc416464726573733a206c6f772d6c6576656c2064656c65676174652063616c6c206661696c6564a076a07f65bcd51bcb15a0f01a65bc18f2d922acb81bcfd8af4caf5adb557091a26469706673582212202d35e20b7ca0285ac9209c69f5552898b95d2c438cf3f3eec984d0dc0691432d64736f6c63430008110033",
  "linkReferences": {},
  "deployedLinkReferences": {}
}