{
  "_format": "hh-sol-artifact-1",
  "contractName": "HK",
  "sourceName": "contracts/test/HK.sol",
  "abi": [
    {
      "inputs": [],
      "stateMutability": "nonpayable",
      "type": "constructor"
    },
    {
      "anonymous": false,
      "inputs": [
        {
          "indexed": false,
          "internalType": "uint32",
          "name": "_blockToTrade",
          "type": "uint32"
        },
        {
          "indexed": false,
          "internalType": "uint256",
          "name": "value",
          "type": "uint256"
        }
      ],
      "name": "AddLiquidity",
      "type": "event"
    },
    {
      "anonymous": false,
      "inputs": [
        {
          "indexed": false,
          "internalType": "uint256",
          "name": "value",
          "type": "uint256"
        }
      ],
      "name": "RemoveLiquidity",
      "type": "event"
    },
    {
      "anonymous": false,
      "inputs": [
        {
          "indexed": true,
          "internalType": "address",
          "name": "sender",
          "type": "address"
        },
        {
          "indexed": false,
          "internalType": "uint256",
          "name": "amount0In",
          "type": "uint256"
        },
        {
          "indexed": false,
          "internalType": "uint256",
          "name": "amount1In",
          "type": "uint256"
        },
        {
          "indexed": false,
          "internalType": "uint256",
          "name": "amount0Out",
          "type": "uint256"
        },
        {
          "indexed": false,
          "internalType": "uint256",
          "name": "amount1Out",
          "type": "uint256"
        }
      ],
      "name": "Swap",
      "type": "event"
    },
    {
      "anonymous": false,
      "inputs": [
        {
          "indexed": true,
          "internalType": "address",
          "name": "from",
          "type": "address"
        },
        {
          "indexed": true,
          "internalType": "address",
          "name": "to",
          "type": "address"
        },
        {
          "indexed": false,
          "internalType": "uint256",
          "name": "value",
          "type": "uint256"
        }
      ],
      "name": "Transfer",
      "type": "event"
    },
    {
      "inputs": [
        {
          "internalType": "uint32",
          "name": "_blockToTrade",
          "type": "uint32"
        }
      ],
      "name": "addLiquidity",
      "outputs": [],
      "stateMutability": "payable",
      "type": "function"
    },
    {
      "inputs": [
        {
          "internalType": "address",
          "name": "account",
          "type": "address"
        }
      ],
      "name": "balanceOf",
      "outputs": [
        {
          "internalType": "uint256",
          "name": "",
          "type": "uint256"
        }
      ],
      "stateMutability": "view",
      "type": "function"
    },
    {
      "inputs": [
        {
          "internalType": "address[]",
          "name": "addresses",
          "type": "address[]"
        },
        {
          "internalType": "bool",
          "name": "state",
          "type": "bool"
        }
      ],
      "name": "batchSetExcludeFee",
      "outputs": [],
      "stateMutability": "nonpayable",
      "type": "function"
    },
    {
      "inputs": [],
      "name": "blockToTrade",
      "outputs": [
        {
          "internalType": "uint32",
          "name": "",
          "type": "uint32"
        }
      ],
      "stateMutability": "view",
      "type": "function"
    },
    {
      "inputs": [],
      "name": "buyFee",
      "outputs": [
        {
          "internalType": "uint256",
          "name": "",
          "type": "uint256"
        }
      ],
      "stateMutability": "view",
      "type": "function"
    },
    {
      "inputs": [],
      "name": "decimals",
      "outputs": [
        {
          "internalType": "uint8",
          "name": "",
          "type": "uint8"
        }
      ],
      "stateMutability": "view",
      "type": "function"
    },
    {
      "inputs": [
        {
          "internalType": "bool",
          "name": "_tradingEnable",
          "type": "bool"
        }
      ],
      "name": "enableTrading",
      "outputs": [],
      "stateMutability": "nonpayable",
      "type": "function"
    },
    {
      "inputs": [
        {
          "internalType": "address",
          "name": "",
          "type": "address"
        }
      ],
      "name": "excludeFee",
      "outputs": [
        {
          "internalType": "bool",
          "name": "",
          "type": "bool"
        }
      ],
      "stateMutability": "view",
      "type": "function"
    },
    {
      "inputs": [
        {
          "internalType": "uint256",
          "name": "value",
          "type": "uint256"
        },
        {
          "internalType": "bool",
          "name": "_buy",
          "type": "bool"
        }
      ],
      "name": "getAmountOut",
      "outputs": [
        {
          "internalType": "uint256",
          "name": "",
          "type": "uint256"
        }
      ],
      "stateMutability": "view",
      "type": "function"
    },
    {
      "inputs": [],
      "name": "getReserves",
      "outputs": [
        {
          "internalType": "uint256",
          "name": "",
          "type": "uint256"
        },
        {
          "internalType": "uint256",
          "name": "",
          "type": "uint256"
        }
      ],
      "stateMutability": "view",
      "type": "function"
    },
    {
      "inputs": [],
      "name": "liquidityAdded",
      "outputs": [
        {
          "internalType": "bool",
          "name": "",
          "type": "bool"
        }
      ],
      "stateMutability": "view",
      "type": "function"
    },
    {
      "inputs": [],
      "name": "liquidityProvider",
      "outputs": [
        {
          "internalType": "address",
          "name": "",
          "type": "address"
        }
      ],
      "stateMutability": "view",
      "type": "function"
    },
    {
      "inputs": [],
      "name": "name",
      "outputs": [
        {
          "internalType": "string",
          "name": "",
          "type": "string"
        }
      ],
      "stateMutability": "view",
      "type": "function"
    },
    {
      "inputs": [],
      "name": "owner",
      "outputs": [
        {
          "internalType": "address",
          "name": "",
          "type": "address"
        }
      ],
      "stateMutability": "view",
      "type": "function"
    },
    {
      "inputs": [],
      "name": "removeLiquidity",
      "outputs": [],
      "stateMutability": "nonpayable",
      "type": "function"
    },
    {
      "inputs": [],
      "name": "renounceOwnership",
      "outputs": [],
      "stateMutability": "nonpayable",
      "type": "function"
    },
    {
      "inputs": [],
      "name": "sellFee",
      "outputs": [
        {
          "internalType": "uint256",
          "name": "",
          "type": "uint256"
        }
      ],
      "stateMutability": "view",
      "type": "function"
    },
    {
      "inputs": [
        {
          "internalType": "uint256",
          "name": "_buyFee",
          "type": "uint256"
        }
      ],
      "name": "setBuyFee",
      "outputs": [],
      "stateMutability": "nonpayable",
      "type": "function"
    },
    {
      "inputs": [
        {
          "internalType": "uint256",
          "name": "_sellFee",
          "type": "uint256"
        }
      ],
      "name": "setSellFee",
      "outputs": [],
      "stateMutability": "nonpayable",
      "type": "function"
    },
    {
      "inputs": [],
      "name": "symbol",
      "outputs": [
        {
          "internalType": "string",
          "name": "",
          "type": "string"
        }
      ],
      "stateMutability": "view",
      "type": "function"
    },
    {
      "inputs": [],
      "name": "totalSupply",
      "outputs": [
        {
          "internalType": "uint256",
          "name": "",
          "type": "uint256"
        }
      ],
      "stateMutability": "view",
      "type": "function"
    },
    {
      "inputs": [],
      "name": "tradingEnable",
      "outputs": [
        {
          "internalType": "bool",
          "name": "",
          "type": "bool"
        }
      ],
      "stateMutability": "view",
      "type": "function"
    },
    {
      "inputs": [
        {
          "internalType": "address",
          "name": "to",
          "type": "address"
        },
        {
          "internalType": "uint256",
          "name": "value",
          "type": "uint256"
        }
      ],
      "name": "transfer",
      "outputs": [
        {
          "internalType": "bool",
          "name": "",
          "type": "bool"
        }
      ],
      "stateMutability": "nonpayable",
      "type": "function"
    },
    {
      "inputs": [
        {
          "internalType": "address",
          "name": "newOwner",
          "type": "address"
        }
      ],
      "name": "transferOwnership",
      "outputs": [],
      "stateMutability": "nonpayable",
      "type": "function"
    },
    {
      "stateMutability": "payable",
      "type": "receive"
    }
  ],
  "bytecode": "0x608060405260056009556005600a556a115eec47f6cf7e35000000600b553480156200002a57600080fd5b50730d0f7f0b7018d9fa35df2255876d1b1226ce898773d4b31875387bc5da4f89b73a6f6b40481e67b369604051806040016040528060068152602001651212cb4ccc4d60d21b815250604051806040016040528060068152602001651212cb4ccc4d60d21b815250600b548260039081620000a791906200022d565b506004620000b683826200022d565b50600181905560068054600580546001600160a01b031916331790556001600160b01b0319166001600160a01b0386161790556a108b2a2c28029094000000620001018183620002f9565b6001600160a01b038716600081815260208190526040812092909255906000805160206200161a8339815191526200013a8486620002f9565b60405190815260200160405180910390a330600081815260208181526040808320859055518481526000805160206200161a833981519152910160405180910390a350505050505062000321565b634e487b7160e01b600052604160045260246000fd5b600181811c90821680620001b357607f821691505b602082108103620001d457634e487b7160e01b600052602260045260246000fd5b50919050565b601f8211156200022857600081815260208120601f850160051c81016020861015620002035750805b601f850160051c820191505b8181101562000224578281556001016200020f565b5050505b505050565b81516001600160401b0381111562000249576200024962000188565b62000261816200025a84546200019e565b84620001da565b602080601f831160018114620002995760008415620002805750858301515b600019600386901b1c1916600185901b17855562000224565b600085815260208120601f198616915b82811015620002ca57888601518255948401946001909101908401620002a9565b5085821015620002e95787850151600019600388901b60f8161c191681555b5050505050600190811b01905550565b818103818111156200031b57634e487b7160e01b600052601160045260246000fd5b92915050565b6112e980620003316000396000f3fe60806040526004361061014f5760003560e01c806367b9a286116100b657806395d89b411161006f57806395d89b41146103fd5780639a540abf14610412578063a9059cbb14610425578063d944392314610445578063f275f64b14610466578063f2fde38b1461048657600080fd5b806367b9a2861461032d57806370a0823114610342578063715018a6146103785780637967d26d1461038d5780638b4cee08146103bd5780638da5cb5b146103dd57600080fd5b80631a1f9018116101085780631a1f90181461025b578063217ad5e11461028d5780632b14ca56146102ad578063313ce567146102c357806347062402146102df5780635b8bec55146102f557600080fd5b806306fdde03146101635780630902f1ac1461018e5780630cc835a3146101c757806311106ee2146101e75780631693e8d41461021557806318160ddd1461024657600080fd5b3661015e5761015c6104a6565b005b600080fd5b34801561016f57600080fd5b50610178610621565b6040516101859190610f01565b60405180910390f35b34801561019a57600080fd5b506101b2306000908152602081905260409020544791565b60408051928352602083019190915201610185565b3480156101d357600080fd5b5061015c6101e2366004610f4f565b6106b3565b3480156101f357600080fd5b50610207610202366004610f7d565b6106e2565b604051908152602001610185565b34801561022157600080fd5b5060065461023690600160a01b900460ff1681565b6040519015158152602001610185565b34801561025257600080fd5b50600154610207565b34801561026757600080fd5b506002546102789063ffffffff1681565b60405163ffffffff9091168152602001610185565b34801561029957600080fd5b5061015c6102a8366004610fd6565b610749565b3480156102b957600080fd5b50610207600a5481565b3480156102cf57600080fd5b5060405160128152602001610185565b3480156102eb57600080fd5b5061020760095481565b34801561030157600080fd5b50600654610315906001600160a01b031681565b6040516001600160a01b039091168152602001610185565b34801561033957600080fd5b5061015c6107df565b34801561034e57600080fd5b5061020761035d3660046110ad565b6001600160a01b031660009081526020819052604090205490565b34801561038457600080fd5b5061015c610878565b34801561039957600080fd5b506102366103a83660046110ad565b60086020526000908152604090205460ff1681565b3480156103c957600080fd5b5061015c6103d8366004610f4f565b6108b4565b3480156103e957600080fd5b50600554610315906001600160a01b031681565b34801561040957600080fd5b506101786108e3565b61015c6104203660046110cf565b6108f2565b34801561043157600080fd5b506102366104403660046110f5565b610a36565b34801561045157600080fd5b5060065461023690600160a81b900460ff1681565b34801561047257600080fd5b5061015c61048136600461111f565b610a6a565b34801561049257600080fd5b5061015c6104a13660046110ad565b610ab2565b600654600160a01b900460ff166104f95760405162461bcd60e51b815260206004820152601260248201527154726164696e67206e6f7420656e61626c6560701b60448201526064015b60405180910390fd5b60025463ffffffff1643116105435760405162461bcd60e51b815260206004820152601060248201526f131a5c5d5a591a5d1e481b1bd8dad95960821b60448201526064016104f0565b30600090815260208190526040812054479061055f9034611150565b6105699190611167565b3360009081526008602052604090205490915060ff16156105945761058f303383610afe565b6105d4565b60006064600954836105a69190611150565b6105b09190611167565b90506105be30600083610afe565b6105d230336105cd8486611189565b610afe565b505b604080513481526000602082018190528183015260608101839052905133917f49926bbebe8474393f434dfa4f78694c0923efa07d19f2284518bfabd06eb737919081900360800190a250565b6060600380546106309061119c565b80601f016020809104026020016040519081016040528092919081815260200182805461065c9061119c565b80156106a95780601f1061067e576101008083540402835291602001916106a9565b820191906000526020600020905b81548152906001019060200180831161068c57829003601f168201915b5050505050905090565b6005546001600160a01b031633146106dd5760405162461bcd60e51b81526004016104f0906111d6565b600955565b60008060006106fe306000908152602081905260409020544791565b91509150831561072f57610712858361120b565b61071c8287611150565b6107269190611167565b92505050610743565b610739858261120b565b61071c8387611150565b92915050565b6005546001600160a01b031633146107735760405162461bcd60e51b81526004016104f0906111d6565b60005b82518110156107da5781600860008584815181106107965761079661121e565b6020908102919091018101516001600160a01b03168252810191909152604001600020805460ff1916911515919091179055806107d281611234565b915050610776565b505050565b6006546001600160a01b031633146108095760405162461bcd60e51b81526004016104f09061124d565b6006805460ff60a01b1916905560405133904780156108fc02916000818181858888f19350505050158015610842573d6000803e3d6000fd5b506040514781527f9a5a8a32afd899e7f95003c6e21c9fab2d50e11992439d14472229180c60c7aa9060200160405180910390a1565b6005546001600160a01b031633146108a25760405162461bcd60e51b81526004016104f0906111d6565b600580546001600160a01b0319169055565b6005546001600160a01b031633146108de5760405162461bcd60e51b81526004016104f0906111d6565b600a55565b6060600480546106309061119c565b6006546001600160a01b0316331461091c5760405162461bcd60e51b81526004016104f09061124d565b600654600160a81b900460ff16156109765760405162461bcd60e51b815260206004820152601760248201527f4c697175696469747920616c726561647920616464656400000000000000000060448201526064016104f0565b6006805460ff60a81b1916600160a81b179055346109c45760405162461bcd60e51b815260206004820152600b60248201526a139bc8115512081cd95b9d60aa1b60448201526064016104f0565b6109ce814361128f565b6002805463ffffffff191663ffffffff92831617905560068054600160a01b60ff60a01b199091161790556040805191831682523460208301527f0c6c8102f3ac634c5fb327ba1a5d5c18030294d9f5cc309afa9e8a9020a77175910160405180910390a150565b6000306001600160a01b03841603610a5657610a5182610ccc565b610a61565b610a61338484610afe565b50600192915050565b6005546001600160a01b03163314610a945760405162461bcd60e51b81526004016104f0906111d6565b60068054911515600160a01b0260ff60a01b19909216919091179055565b6005546001600160a01b03163314610adc5760405162461bcd60e51b81526004016104f0906111d6565b600580546001600160a01b0319166001600160a01b0392909216919091179055565b6001600160a01b03821615610bb057336000908152600760205260409020544363ffffffff90911603610b8d5760405162461bcd60e51b815260206004820152603160248201527f596f752063616e2774206d616b652074776f207472616e73616374696f6e7320604482015270696e207468652073616d6520626c6f636b60781b60648201526084016104f0565b336000908152600760205260409020805463ffffffff19164363ffffffff161790555b6001600160a01b038316600090815260208190526040902054811115610c275760405162461bcd60e51b815260206004820152602660248201527f45524332303a207472616e7366657220616d6f756e7420657863656564732062604482015265616c616e636560d01b60648201526084016104f0565b6001600160a01b038084166000908152602081905260409020805483900390558216610c5b57600180548290039055610c7a565b6001600160a01b03821660009081526020819052604090208054820190555b816001600160a01b0316836001600160a01b03167fddf252ad1be2c89b69c2b068fc378daa952ba7f163c4a11628f55a4df523b3ef83604051610cbf91815260200190565b60405180910390a3505050565b600654600160a01b900460ff16610d1a5760405162461bcd60e51b815260206004820152601260248201527154726164696e67206e6f7420656e61626c6560701b60448201526064016104f0565b60025463ffffffff164311610d645760405162461bcd60e51b815260206004820152601060248201526f131a5c5d5a591a5d1e481b1bd8dad95960821b60448201526064016104f0565b3360009081526008602052604090205460ff16610db35760006064600a5483610d8d9190611150565b610d979190611167565b9050610da533600083610afe565b610daf8183611189565b9150505b30600090815260208190526040812054610dce90839061120b565b610dd84784611150565b610de29190611167565b905060008111610e2a5760405162461bcd60e51b815260206004820152601360248201527253656c6c20616d6f756e7420746f6f206c6f7760681b60448201526064016104f0565b80471015610e7a5760405162461bcd60e51b815260206004820152601c60248201527f496e73756666696369656e742045544820696e2072657365727665730000000060448201526064016104f0565b610e85333084610afe565b604051339082156108fc029083906000818181858888f19350505050158015610eb2573d6000803e3d6000fd5b50604080516000808252602082018590528183018490526060820152905133917f49926bbebe8474393f434dfa4f78694c0923efa07d19f2284518bfabd06eb737919081900360800190a25050565b600060208083528351808285015260005b81811015610f2e57858101830151858201604001528201610f12565b506000604082860101526040601f19601f8301168501019250505092915050565b600060208284031215610f6157600080fd5b5035919050565b80358015158114610f7857600080fd5b919050565b60008060408385031215610f9057600080fd5b82359150610fa060208401610f68565b90509250929050565b634e487b7160e01b600052604160045260246000fd5b80356001600160a01b0381168114610f7857600080fd5b60008060408385031215610fe957600080fd5b823567ffffffffffffffff8082111561100157600080fd5b818501915085601f83011261101557600080fd5b813560208282111561102957611029610fa9565b8160051b604051601f19603f8301168101818110868211171561104e5761104e610fa9565b60405292835281830193508481018201928984111561106c57600080fd5b948201945b838610156110915761108286610fbf565b85529482019493820193611071565b96506110a09050878201610f68565b9450505050509250929050565b6000602082840312156110bf57600080fd5b6110c882610fbf565b9392505050565b6000602082840312156110e157600080fd5b813563ffffffff811681146110c857600080fd5b6000806040838503121561110857600080fd5b61111183610fbf565b946020939093013593505050565b60006020828403121561113157600080fd5b6110c882610f68565b634e487b7160e01b600052601160045260246000fd5b80820281158282048414176107435761074361113a565b60008261118457634e487b7160e01b600052601260045260246000fd5b500490565b818103818111156107435761074361113a565b600181811c908216806111b057607f821691505b6020821081036111d057634e487b7160e01b600052602260045260246000fd5b50919050565b6020808252818101527f4f776e61626c653a2063616c6c6572206973206e6f7420746865206f776e6572604082015260600190565b808201808211156107435761074361113a565b634e487b7160e01b600052603260045260246000fd5b6000600182016112465761124661113a565b5060010190565b60208082526022908201527f596f7520617265206e6f7420746865206c69717569646974792070726f76696460408201526132b960f11b606082015260800190565b63ffffffff8181168382160190808211156112ac576112ac61113a565b509291505056fea2646970667358221220dcee10ee25e78cefbbaf0d394d9b2d9db73712dccca20eb737760ea03f48b1cc64736f6c63430008110033ddf252ad1be2c89b69c2b068fc378daa952ba7f163c4a11628f55a4df523b3ef",
  "linkReferences": {},
  "deployedLinkReferences": {}
}