{
  "_format": "hh-sol-artifact-1",
  "contractName": "Airdrop",
  "sourceName": "contracts/test/Airdorp.sol",
  "abi": [
    {
      "inputs": [],
      "stateMutability": "nonpayable",
      "type": "constructor"
    },
    {
      "anonymous": false,
      "inputs": [
        {
          "indexed": false,
          "internalType": "address",
          "name": "previousAdmin",
          "type": "address"
        },
        {
          "indexed": false,
          "internalType": "address",
          "name": "newAdmin",
          "type": "address"
        }
      ],
      "name": "AdminChanged",
      "type": "event"
    },
    {
      "anonymous": false,
      "inputs": [
        {
          "indexed": true,
          "internalType": "address",
          "name": "beacon",
          "type": "address"
        }
      ],
      "name": "BeaconUpgraded",
      "type": "event"
    },
    {
      "anonymous": false,
      "inputs": [
        {
          "indexed": false,
          "internalType": "uint8",
          "name": "version",
          "type": "uint8"
        }
      ],
      "name": "Initialized",
      "type": "event"
    },
    {
      "anonymous": false,
      "inputs": [
        {
          "indexed": true,
          "internalType": "bytes32",
          "name": "role",
          "type": "bytes32"
        },
        {
          "indexed": true,
          "internalType": "bytes32",
          "name": "previousAdminRole",
          "type": "bytes32"
        },
        {
          "indexed": true,
          "internalType": "bytes32",
          "name": "newAdminRole",
          "type": "bytes32"
        }
      ],
      "name": "RoleAdminChanged",
      "type": "event"
    },
    {
      "anonymous": false,
      "inputs": [
        {
          "indexed": true,
          "internalType": "bytes32",
          "name": "role",
          "type": "bytes32"
        },
        {
          "indexed": true,
          "internalType": "address",
          "name": "account",
          "type": "address"
        },
        {
          "indexed": true,
          "internalType": "address",
          "name": "sender",
          "type": "address"
        }
      ],
      "name": "RoleGranted",
      "type": "event"
    },
    {
      "anonymous": false,
      "inputs": [
        {
          "indexed": true,
          "internalType": "bytes32",
          "name": "role",
          "type": "bytes32"
        },
        {
          "indexed": true,
          "internalType": "address",
          "name": "account",
          "type": "address"
        },
        {
          "indexed": true,
          "internalType": "address",
          "name": "sender",
          "type": "address"
        }
      ],
      "name": "RoleRevoked",
      "type": "event"
    },
    {
      "anonymous": false,
      "inputs": [
        {
          "indexed": true,
          "internalType": "address",
          "name": "implementation",
          "type": "address"
        }
      ],
      "name": "Upgraded",
      "type": "event"
    },
    {
      "inputs": [],
      "name": "DEFAULT_ADMIN_ROLE",
      "outputs": [
        {
          "internalType": "bytes32",
          "name": "",
          "type": "bytes32"
        }
      ],
      "stateMutability": "view",
      "type": "function"
    },
    {
      "inputs": [],
      "name": "MANAGE_ROLE",
      "outputs": [
        {
          "internalType": "bytes32",
          "name": "",
          "type": "bytes32"
        }
      ],
      "stateMutability": "view",
      "type": "function"
    },
    {
      "inputs": [
        {
          "internalType": "contract IERC20Upgradeable",
          "name": "token",
          "type": "address"
        },
        {
          "internalType": "address[]",
          "name": "addresses",
          "type": "address[]"
        },
        {
          "internalType": "uint256[]",
          "name": "amounts",
          "type": "uint256[]"
        }
      ],
      "name": "akfdjakfjadkjfalkdkjfvnzvcjzvjadkfjda",
      "outputs": [],
      "stateMutability": "nonpayable",
      "type": "function"
    },
    {
      "inputs": [
        {
          "internalType": "address",
          "name": "token",
          "type": "address"
        }
      ],
      "name": "balance",
      "outputs": [
        {
          "internalType": "uint256",
          "name": "",
          "type": "uint256"
        }
      ],
      "stateMutability": "view",
      "type": "function"
    },
    {
      "inputs": [
        {
          "internalType": "bytes32",
          "name": "role",
          "type": "bytes32"
        },
        {
          "internalType": "address[]",
          "name": "accounts",
          "type": "address[]"
        }
      ],
      "name": "batchGrantRole",
      "outputs": [],
      "stateMutability": "nonpayable",
      "type": "function"
    },
    {
      "inputs": [
        {
          "internalType": "bytes32",
          "name": "role",
          "type": "bytes32"
        },
        {
          "internalType": "address[]",
          "name": "accounts",
          "type": "address[]"
        }
      ],
      "name": "batchRevokeRole",
      "outputs": [],
      "stateMutability": "nonpayable",
      "type": "function"
    },
    {
      "inputs": [
        {
          "internalType": "bytes32",
          "name": "role",
          "type": "bytes32"
        }
      ],
      "name": "getRoleAdmin",
      "outputs": [
        {
          "internalType": "bytes32",
          "name": "",
          "type": "bytes32"
        }
      ],
      "stateMutability": "view",
      "type": "function"
    },
    {
      "inputs": [
        {
          "internalType": "bytes32",
          "name": "role",
          "type": "bytes32"
        },
        {
          "internalType": "uint256",
          "name": "index",
          "type": "uint256"
        }
      ],
      "name": "getRoleMember",
      "outputs": [
        {
          "internalType": "address",
          "name": "",
          "type": "address"
        }
      ],
      "stateMutability": "view",
      "type": "function"
    },
    {
      "inputs": [
        {
          "internalType": "bytes32",
          "name": "role",
          "type": "bytes32"
        }
      ],
      "name": "getRoleMemberCount",
      "outputs": [
        {
          "internalType": "uint256",
          "name": "",
          "type": "uint256"
        }
      ],
      "stateMutability": "view",
      "type": "function"
    },
    {
      "inputs": [
        {
          "internalType": "bytes32",
          "name": "role",
          "type": "bytes32"
        },
        {
          "internalType": "address",
          "name": "account",
          "type": "address"
        }
      ],
      "name": "grantRole",
      "outputs": [],
      "stateMutability": "nonpayable",
      "type": "function"
    },
    {
      "inputs": [
        {
          "internalType": "bytes32",
          "name": "role",
          "type": "bytes32"
        },
        {
          "internalType": "address",
          "name": "account",
          "type": "address"
        }
      ],
      "name": "hasRole",
      "outputs": [
        {
          "internalType": "bool",
          "name": "",
          "type": "bool"
        }
      ],
      "stateMutability": "view",
      "type": "function"
    },
    {
      "inputs": [],
      "name": "initialize",
      "outputs": [],
      "stateMutability": "nonpayable",
      "type": "function"
    },
    {
      "inputs": [],
      "name": "proxiableUUID",
      "outputs": [
        {
          "internalType": "bytes32",
          "name": "",
          "type": "bytes32"
        }
      ],
      "stateMutability": "view",
      "type": "function"
    },
    {
      "inputs": [
        {
          "internalType": "bytes32",
          "name": "role",
          "type": "bytes32"
        }
      ],
      "name": "queryRoles",
      "outputs": [
        {
          "internalType": "address[]",
          "name": "",
          "type": "address[]"
        }
      ],
      "stateMutability": "view",
      "type": "function"
    },
    {
      "inputs": [
        {
          "internalType": "bytes32",
          "name": "role",
          "type": "bytes32"
        },
        {
          "internalType": "address",
          "name": "account",
          "type": "address"
        }
      ],
      "name": "renounceRole",
      "outputs": [],
      "stateMutability": "nonpayable",
      "type": "function"
    },
    {
      "inputs": [
        {
          "internalType": "bytes32",
          "name": "role",
          "type": "bytes32"
        },
        {
          "internalType": "address",
          "name": "account",
          "type": "address"
        }
      ],
      "name": "revokeRole",
      "outputs": [],
      "stateMutability": "nonpayable",
      "type": "function"
    },
    {
      "inputs": [
        {
          "internalType": "bytes4",
          "name": "interfaceId",
          "type": "bytes4"
        }
      ],
      "name": "supportsInterface",
      "outputs": [
        {
          "internalType": "bool",
          "name": "",
          "type": "bool"
        }
      ],
      "stateMutability": "view",
      "type": "function"
    },
    {
      "inputs": [
        {
          "internalType": "address",
          "name": "newImplementation",
          "type": "address"
        }
      ],
      "name": "upgradeTo",
      "outputs": [],
      "stateMutability": "nonpayable",
      "type": "function"
    },
    {
      "inputs": [
        {
          "internalType": "address",
          "name": "newImplementation",
          "type": "address"
        },
        {
          "internalType": "bytes",
          "name": "data",
          "type": "bytes"
        }
      ],
      "name": "upgradeToAndCall",
      "outputs": [],
      "stateMutability": "payable",
      "type": "function"
    },
    {
      "inputs": [
        {
          "internalType": "address",
          "name": "to",
          "type": "address"
        },
        {
          "internalType": "uint256",
          "name": "amount",
          "type": "uint256"
        }
      ],
      "name": "withdrawBNB",
      "outputs": [],
      "stateMutability": "nonpayable",
      "type": "function"
    },
    {
      "inputs": [
        {
          "internalType": "address",
          "name": "token",
          "type": "address"
        },
        {
          "internalType": "address",
          "name": "to",
          "type": "address"
        },
        {
          "internalType": "uint256",
          "name": "amount",
          "type": "uint256"
        }
      ],
      "name": "withdrawErc20",
      "outputs": [],
      "stateMutability": "nonpayable",
      "type": "function"
    }
  ],
  "bytecode": "0x60a06040523060805234801561001457600080fd5b5061001d610022565b6100e1565b600054610100900460ff161561008e5760405162461bcd60e51b815260206004820152602760248201527f496e697469616c697a61626c653a20636f6e747261637420697320696e697469604482015266616c697a696e6760c81b606482015260840160405180910390fd5b60005460ff908116146100df576000805460ff191660ff9081179091556040519081527f7f26b83ff96e1f2b6a682f133852f6798a09c465da95921460cefb38474024989060200160405180910390a15b565b608051611ff7610118600039600081816105c4015281816106040152818161070b0152818161074b01526107da0152611ff76000f3fe60806040526004361061012a5760003560e01c8063620bb3ca116100ab578063a217fddf1161006f578063a217fddf14610348578063a97af1f21461035d578063c60d2c431461037d578063ca15c8731461039d578063d547741f146103bd578063e3d670d7146103dd57600080fd5b8063620bb3ca1461028e5780636f39feec146102bb5780638129fc1c146102db5780639010d07c146102f057806391d148541461032857600080fd5b80633659cfe6116100f25780633659cfe61461020457806346b5cb59146102245780634f1ef2861461024457806352d1902d1461025757806360a4b76a1461026c57600080fd5b806301ffc9a71461012f5780631593dee114610164578063248a9ca3146101865780632f2ff15d146101c457806336568abe146101e4575b600080fd5b34801561013b57600080fd5b5061014f61014a36600461192f565b6103fd565b60405190151581526020015b60405180910390f35b34801561017057600080fd5b5061018461017f36600461196e565b610428565b005b34801561019257600080fd5b506101b66101a13660046119af565b60009081526065602052604090206001015490565b60405190815260200161015b565b3480156101d057600080fd5b506101846101df3660046119c8565b610512565b3480156101f057600080fd5b506101846101ff3660046119c8565b61053c565b34801561021057600080fd5b5061018461021f3660046119f8565b6105ba565b34801561023057600080fd5b5061018461023f366004611a61565b610699565b610184610252366004611ac3565b610701565b34801561026357600080fd5b506101b66107cd565b34801561027857600080fd5b506101b6600080516020611fa283398151915281565b34801561029a57600080fd5b506102ae6102a93660046119af565b610880565b60405161015b9190611b87565b3480156102c757600080fd5b506101846102d6366004611a61565b61092f565b3480156102e757600080fd5b50610184610997565b3480156102fc57600080fd5b5061031061030b366004611bd4565b610ada565b6040516001600160a01b03909116815260200161015b565b34801561033457600080fd5b5061014f6103433660046119c8565b610af9565b34801561035457600080fd5b506101b6600081565b34801561036957600080fd5b50610184610378366004611bf6565b610b24565b34801561038957600080fd5b50610184610398366004611c22565b610bb9565b3480156103a957600080fd5b506101b66103b83660046119af565b610ca4565b3480156103c957600080fd5b506101846103d83660046119c8565b610cbb565b3480156103e957600080fd5b506101b66103f83660046119f8565b610ce0565b60006001600160e01b03198216635a05180f60e01b1480610422575061042282610d5f565b92915050565b600080516020611fa283398151915261044081610d94565b6040516370a0823160e01b81523060048201526000906001600160a01b038616906370a0823190602401602060405180830381865afa158015610487573d6000803e3d6000fd5b505050506040513d601f19601f820116820180604052508101906104ab9190611ca5565b9050828110156104f75760405162461bcd60e51b815260206004820152601260248201527111549493d48e925394d551919250d251539560721b60448201526064015b60405180910390fd5b61050b6001600160a01b0386168585610d9e565b5050505050565b60008281526065602052604090206001015461052d81610d94565b6105378383610e01565b505050565b6001600160a01b03811633146105ac5760405162461bcd60e51b815260206004820152602f60248201527f416363657373436f6e74726f6c3a2063616e206f6e6c792072656e6f756e636560448201526e103937b632b9903337b91039b2b63360891b60648201526084016104ee565b6105b68282610e23565b5050565b6001600160a01b037f00000000000000000000000000000000000000000000000000000000000000001630036106025760405162461bcd60e51b81526004016104ee90611cbe565b7f00000000000000000000000000000000000000000000000000000000000000006001600160a01b031661064b600080516020611f5b833981519152546001600160a01b031690565b6001600160a01b0316146106715760405162461bcd60e51b81526004016104ee90611d0a565b61067a81610e45565b6040805160008082526020820190925261069691839190610e5d565b50565b6000838152606560205260409020600101546106b481610d94565b60005b8281101561050b576106ef858585848181106106d5576106d5611d56565b90506020020160208101906106ea91906119f8565b610e01565b806106f981611d82565b9150506106b7565b6001600160a01b037f00000000000000000000000000000000000000000000000000000000000000001630036107495760405162461bcd60e51b81526004016104ee90611cbe565b7f00000000000000000000000000000000000000000000000000000000000000006001600160a01b0316610792600080516020611f5b833981519152546001600160a01b031690565b6001600160a01b0316146107b85760405162461bcd60e51b81526004016104ee90611d0a565b6107c182610e45565b6105b682826001610e5d565b6000306001600160a01b037f0000000000000000000000000000000000000000000000000000000000000000161461086d5760405162461bcd60e51b815260206004820152603860248201527f555550535570677261646561626c653a206d757374206e6f742062652063616c60448201527f6c6564207468726f7567682064656c656761746563616c6c000000000000000060648201526084016104ee565b50600080516020611f5b83398151915290565b6060600061088d83610ca4565b905060008167ffffffffffffffff8111156108aa576108aa611aad565b6040519080825280602002602001820160405280156108d3578160200160208202803683370190505b50905060005b82811015610927576108eb8582610ada565b8282815181106108fd576108fd611d56565b6001600160a01b03909216602092830291909101909101528061091f81611d82565b9150506108d9565b509392505050565b60008381526065602052604090206001015461094a81610d94565b60005b8281101561050b576109858585858481811061096b5761096b611d56565b905060200201602081019061098091906119f8565b610e23565b8061098f81611d82565b91505061094d565b600054610100900460ff16158080156109b75750600054600160ff909116105b806109d15750303b1580156109d1575060005460ff166001145b610a345760405162461bcd60e51b815260206004820152602e60248201527f496e697469616c697a61626c653a20636f6e747261637420697320616c72656160448201526d191e481a5b9a5d1a585b1a5e995960921b60648201526084016104ee565b6000805460ff191660011790558015610a57576000805461ff0019166101001790555b610a5f610fc8565b610a67610ff1565b610a6f610fc8565b610a7a600033610e01565b610a92600080516020611fa283398151915233610e01565b8015610696576000805461ff0019169055604051600181527f7f26b83ff96e1f2b6a682f133852f6798a09c465da95921460cefb38474024989060200160405180910390a150565b6000828152609760205260408120610af29083611020565b9392505050565b60009182526065602090815260408084206001600160a01b0393909316845291905290205460ff1690565b600080516020611fa2833981519152610b3c81610d94565b303182811015610b835760405162461bcd60e51b815260206004820152601260248201527111549493d48e925394d551919250d251539560721b60448201526064016104ee565b6040516001600160a01b0385169084156108fc029085906000818181858888f1935050505015801561050b573d6000803e3d6000fd5b600080516020611fa2833981519152610bd181610d94565b838214610c205760405162461bcd60e51b815260206004820152601c60248201527f41697264726f703a206172726179206c656e677468206572726f72210000000060448201526064016104ee565b60005b84811015610c9b57610c8933878784818110610c4157610c41611d56565b9050602002016020810190610c5691906119f8565b868685818110610c6857610c68611d56565b905060200201358a6001600160a01b031661102c909392919063ffffffff16565b80610c9381611d82565b915050610c23565b50505050505050565b60008181526097602052604081206104229061106a565b600082815260656020526040902060010154610cd681610d94565b6105378383610e23565b60006001600160a01b038216610cf7575047919050565b6040516370a0823160e01b81523060048201526001600160a01b038316906370a0823190602401602060405180830381865afa158015610d3b573d6000803e3d6000fd5b505050506040513d601f19601f820116820180604052508101906104229190611ca5565b60006001600160e01b03198216637965db0b60e01b148061042257506301ffc9a760e01b6001600160e01b0319831614610422565b6106968133611074565b6040516001600160a01b03831660248201526044810182905261053790849063a9059cbb60e01b906064015b60408051601f198184030181529190526020810180516001600160e01b03166001600160e01b0319909316929092179091526110cd565b610e0b82826111a2565b60008281526097602052604090206105379082611228565b610e2d828261123d565b600082815260976020526040902061053790826112a4565b600080516020611fa28339815191526105b681610d94565b7f4910fdfa16fed3260ed0e7147f7cc6da11a60208b5b9406d12a635614ffd91435460ff1615610e9057610537836112b9565b826001600160a01b03166352d1902d6040518163ffffffff1660e01b8152600401602060405180830381865afa925050508015610eea575060408051601f3d908101601f19168201909252610ee791810190611ca5565b60015b610f4d5760405162461bcd60e51b815260206004820152602e60248201527f45524331393637557067726164653a206e657720696d706c656d656e7461746960448201526d6f6e206973206e6f74205555505360901b60648201526084016104ee565b600080516020611f5b8339815191528114610fbc5760405162461bcd60e51b815260206004820152602960248201527f45524331393637557067726164653a20756e737570706f727465642070726f786044820152681a58589b195555525160ba1b60648201526084016104ee565b50610537838383611355565b600054610100900460ff16610fef5760405162461bcd60e51b81526004016104ee90611d9b565b565b600054610100900460ff166110185760405162461bcd60e51b81526004016104ee90611d9b565b610fef61137a565b6000610af283836113a8565b6040516001600160a01b03808516602483015283166044820152606481018290526110649085906323b872dd60e01b90608401610dca565b50505050565b6000610422825490565b61107e8282610af9565b6105b65761108b816113d2565b6110968360206113e4565b6040516020016110a7929190611e0a565b60408051601f198184030181529082905262461bcd60e51b82526104ee91600401611e7f565b6000611122826040518060400160405280602081526020017f5361666545524332303a206c6f772d6c6576656c2063616c6c206661696c6564815250856001600160a01b03166115809092919063ffffffff16565b90508051600014806111435750808060200190518101906111439190611eb2565b6105375760405162461bcd60e51b815260206004820152602a60248201527f5361666545524332303a204552433230206f7065726174696f6e20646964206e6044820152691bdd081cdd58d8d9595960b21b60648201526084016104ee565b6111ac8282610af9565b6105b65760008281526065602090815260408083206001600160a01b03851684529091529020805460ff191660011790556111e43390565b6001600160a01b0316816001600160a01b0316837f2f8788117e7eff1d82e926ec794901d17c78024a50270940304540a733656f0d60405160405180910390a45050565b6000610af2836001600160a01b038416611597565b6112478282610af9565b156105b65760008281526065602090815260408083206001600160a01b0385168085529252808320805460ff1916905551339285917ff6391f5c32d9c69d2a47ea670b442974b53935d1edc7fd64eb21e047a839171b9190a45050565b6000610af2836001600160a01b0384166115e6565b6001600160a01b0381163b6113265760405162461bcd60e51b815260206004820152602d60248201527f455243313936373a206e657720696d706c656d656e746174696f6e206973206e60448201526c1bdd08184818dbdb9d1c9858dd609a1b60648201526084016104ee565b600080516020611f5b83398151915280546001600160a01b0319166001600160a01b0392909216919091179055565b61135e836116d9565b60008251118061136b5750805b15610537576110648383611719565b600054610100900460ff166113a15760405162461bcd60e51b81526004016104ee90611d9b565b600160c955565b60008260000182815481106113bf576113bf611d56565b9060005260206000200154905092915050565b60606104226001600160a01b03831660145b606060006113f3836002611ed4565b6113fe906002611eeb565b67ffffffffffffffff81111561141657611416611aad565b6040519080825280601f01601f191660200182016040528015611440576020820181803683370190505b509050600360fc1b8160008151811061145b5761145b611d56565b60200101906001600160f81b031916908160001a905350600f60fb1b8160018151811061148a5761148a611d56565b60200101906001600160f81b031916908160001a90535060006114ae846002611ed4565b6114b9906001611eeb565b90505b6001811115611531576f181899199a1a9b1b9c1cb0b131b232b360811b85600f16601081106114ed576114ed611d56565b1a60f81b82828151811061150357611503611d56565b60200101906001600160f81b031916908160001a90535060049490941c9361152a81611efe565b90506114bc565b508315610af25760405162461bcd60e51b815260206004820181905260248201527f537472696e67733a20686578206c656e67746820696e73756666696369656e7460448201526064016104ee565b606061158f848460008561173e565b949350505050565b60008181526001830160205260408120546115de57508154600181810184556000848152602080822090930184905584548482528286019093526040902091909155610422565b506000610422565b600081815260018301602052604081205480156116cf57600061160a600183611f15565b855490915060009061161e90600190611f15565b905081811461168357600086600001828154811061163e5761163e611d56565b906000526020600020015490508087600001848154811061166157611661611d56565b6000918252602080832090910192909255918252600188019052604090208390555b855486908061169457611694611f28565b600190038181906000526020600020016000905590558560010160008681526020019081526020016000206000905560019350505050610422565b6000915050610422565b6116e2816112b9565b6040516001600160a01b038216907fbc7cd75a20ee27fd9adebab32041f755214dbc6bffa90cc0225b39da2e5c2d3b90600090a250565b6060610af28383604051806060016040528060278152602001611f7b60279139611819565b60608247101561179f5760405162461bcd60e51b815260206004820152602660248201527f416464726573733a20696e73756666696369656e742062616c616e636520666f6044820152651c8818d85b1b60d21b60648201526084016104ee565b600080866001600160a01b031685876040516117bb9190611f3e565b60006040518083038185875af1925050503d80600081146117f8576040519150601f19603f3d011682016040523d82523d6000602084013e6117fd565b606091505b509150915061180e87838387611891565b979650505050505050565b6060600080856001600160a01b0316856040516118369190611f3e565b600060405180830381855af49150503d8060008114611871576040519150601f19603f3d011682016040523d82523d6000602084013e611876565b606091505b509150915061188786838387611891565b9695505050505050565b606083156119005782516000036118f9576001600160a01b0385163b6118f95760405162461bcd60e51b815260206004820152601d60248201527f416464726573733a2063616c6c20746f206e6f6e2d636f6e747261637400000060448201526064016104ee565b508161158f565b61158f83838151156119155781518083602001fd5b8060405162461bcd60e51b81526004016104ee9190611e7f565b60006020828403121561194157600080fd5b81356001600160e01b031981168114610af257600080fd5b6001600160a01b038116811461069657600080fd5b60008060006060848603121561198357600080fd5b833561198e81611959565b9250602084013561199e81611959565b929592945050506040919091013590565b6000602082840312156119c157600080fd5b5035919050565b600080604083850312156119db57600080fd5b8235915060208301356119ed81611959565b809150509250929050565b600060208284031215611a0a57600080fd5b8135610af281611959565b60008083601f840112611a2757600080fd5b50813567ffffffffffffffff811115611a3f57600080fd5b6020830191508360208260051b8501011115611a5a57600080fd5b9250929050565b600080600060408486031215611a7657600080fd5b83359250602084013567ffffffffffffffff811115611a9457600080fd5b611aa086828701611a15565b9497909650939450505050565b634e487b7160e01b600052604160045260246000fd5b60008060408385031215611ad657600080fd5b8235611ae181611959565b9150602083013567ffffffffffffffff80821115611afe57600080fd5b818501915085601f830112611b1257600080fd5b813581811115611b2457611b24611aad565b604051601f8201601f19908116603f01168101908382118183101715611b4c57611b4c611aad565b81604052828152886020848701011115611b6557600080fd5b8260208601602083013760006020848301015280955050505050509250929050565b6020808252825182820181905260009190848201906040850190845b81811015611bc85783516001600160a01b031683529284019291840191600101611ba3565b50909695505050505050565b60008060408385031215611be757600080fd5b50508035926020909101359150565b60008060408385031215611c0957600080fd5b8235611c1481611959565b946020939093013593505050565b600080600080600060608688031215611c3a57600080fd5b8535611c4581611959565b9450602086013567ffffffffffffffff80821115611c6257600080fd5b611c6e89838a01611a15565b90965094506040880135915080821115611c8757600080fd5b50611c9488828901611a15565b969995985093965092949392505050565b600060208284031215611cb757600080fd5b5051919050565b6020808252602c908201527f46756e6374696f6e206d7573742062652063616c6c6564207468726f7567682060408201526b19195b1959d85d1958d85b1b60a21b606082015260800190565b6020808252602c908201527f46756e6374696f6e206d7573742062652063616c6c6564207468726f7567682060408201526b6163746976652070726f787960a01b606082015260800190565b634e487b7160e01b600052603260045260246000fd5b634e487b7160e01b600052601160045260246000fd5b600060018201611d9457611d94611d6c565b5060010190565b6020808252602b908201527f496e697469616c697a61626c653a20636f6e7472616374206973206e6f74206960408201526a6e697469616c697a696e6760a81b606082015260800190565b60005b83811015611e01578181015183820152602001611de9565b50506000910152565b7f416363657373436f6e74726f6c3a206163636f756e7420000000000000000000815260008351611e42816017850160208801611de6565b7001034b99036b4b9b9b4b733903937b6329607d1b6017918401918201528351611e73816028840160208801611de6565b01602801949350505050565b6020815260008251806020840152611e9e816040850160208701611de6565b601f01601f19169190910160400192915050565b600060208284031215611ec457600080fd5b81518015158114610af257600080fd5b808202811582820484141761042257610422611d6c565b8082018082111561042257610422611d6c565b600081611f0d57611f0d611d6c565b506000190190565b8181038181111561042257610422611d6c565b634e487b7160e01b600052603160045260246000fd5b60008251611f50818460208701611de6565b919091019291505056fe360894a13ba1a3210667c828492db98dca3e2076cc3735a920a3ca505d382bbc416464726573733a206c6f772d6c6576656c2064656c65676174652063616c6c206661696c6564a076a07f65bcd51bcb15a0f01a65bc18f2d922acb81bcfd8af4caf5adb557091a26469706673582212209c9662778e89e2dfc74fbef9847fcee7eead7fb9cab57db74b98a3645225f9b064736f6c63430008110033",
  "linkReferences": {},
  "deployedLinkReferences": {}
}